:020000041000EA
:1000000000B5324B212058609868022188439860DF
:10001000D860186158612E4B002199600221596106
:100020000121F02299502B49196001219960352056
:1000300000F044F80222904214D00621196600F024
:1000400034F8196E01211966002018661A6600F04E
:100050002CF8196E196E196E052000F02FF8012189
:100060000842F9D1002199601B49196000215960AB
:100070001A491B48016001219960EB211966A021F2
:10008000196600F012F800219960164914480160C1
:100090000121996001BC002800D000471248134993
:1000A000086003C880F30888084703B5996A0420EC
:1000B0000142FBD001200142F8D103BD02B5186610
:1000C0001866FFF7F2FF186E186E02BD00000240BE
:1000D000000000180000070000035F00212200005C
:1000E000F4000018222000A00001001008ED00E03C
:1000F00000000000000000000000000074B24E7A12
:1001000000200420F7010010C3010010C5010010F9
:10011000C1010010C1010010C1010010C101001097
:10012000C1010010C1010010C1010010C701001081
:10013000C1010010C1010010C9010010CB01001065
:10014000CD010010CD010010CD010010CD01001037
:10015000CD010010CD010010CD010010CD01001027
:10016000CD010010CD010010CD010010CD01001017
:10017000CD010010CD010010CD010010CD01001007
:10018000CD010010CD010010CD010010CD010010F7
:10019000CD010010CD010010CD010010CD010010E7
:1001A000CD010010CD010010CD010010CD010010D7
:1001B000CD010010CD010010CD010010CD010010C7
:1001C00000BE00BE00BE00BE00BE00BE00F04BF888
:1001D000103800BEF2EB8871388C0410588C041073
:1001E0003402001090A31AE700202149086006C8D5
:1001F00081F3088810471F48006800282FD10DA4FC
:100200000ECC002902D000F012F8F9E71A491B4A77
:10021000002000E001C19142FCD1194988471949E9
:1002200088471949884700BEFDE701C901C29A42C3
:10023000FBD37047588C0410C00000205C1E0020C7
:10024000F4A904100000042000000420F4A9041004
:1002500000100420001004200000000070470B482C
:1002600003F01AF80047EFF30580C0B270470000B2
:1002700008ED00E0000000D0601E0020F4390020EE
:100280007D18001091030010391800105756000017
:1002900006005250ABB36053D0E603100600525034
:1002A000861C0302E0E60310060052505422A29D71
:1002B000E8E6031005005250DE65F468F4A9041066
:1002C000F8B5C0460448054B10B5834203D0044B33
:1002D000002B00D0984710BD5C1E00205C1E002043
:1002E0000000000006480749091A8B10C90FC918F9
:1002F00010B5491003D0044B002B00D0984710BD17
:100300005C1E00205C1E00200000000010B5074CA1
:100310002378002B09D1FFF7D5FF054B002B02D026
:10032000044800E000BF0123237010BD601F0020BF
:1003300000000000F8D80310054B10B5002B03D0C7
:100340000449054800E000BFFFF7CCFF10BDC046E0
:1003500000000000641F0020F8D8031070B50400EE
:100360000D00012805D0002C02D1074B9D4207D07B
:1003700070BD054B9942F6D1044805F089F9F2E7C2
:10038000024805F095F9F3E7FFFF00003036002042
:1003900000B58BB008230922164908A800F03AF8E6
:1003A00008A800F0C1F808A800F0F8F8124B1A8865
:1003B00069460A809B788B7052238B77033BCB77FF
:1003C00008A800F0FCF80D4800F06AFE0C4B009302
:1003D00052236A469377033BD377694608A800F017
:1003E000EEF8064800F05CFEE0E708A800F044F8EC
:1003F00004F018FA00000440F8D80310B80B00000D
:100400002D36300010B502490120FFF7A7FF10BDBF
:10041000FFFF000070B50400080016001D002160F9
:10042000A280E380134904F0C9F901210A2000F0F9
:10043000EFF801210B2000F0EBF801210C2000F077
:10044000E7F8300000F0FCF8280000F0F9F801218E
:100450000A00B240D0231B065A620A00AA405A6220
:10046000E288080090409861A2889140596120007C
:1004700070BDC04640420F00704770B584B00400A4
:100480006B46D81D00236A46D3731F330B4003709D
:10049000A38801252A009A40D0263606B26101229F
:1004A000010020683DF0F0F901230F226A44FF218A
:1004B00020683DF091F9A3889D4075616B46D87B1B
:1004C00004B070BDF0B5C64600B582B004009046D9
:1004D0001F006B461F20084020210843D8710733B6
:1004E000A288012529009140D0263606B16101225B
:1004F000190020683DF0C8F93A00414620683DF0F7
:10050000C3F9A3889D40756102B004BC9046F0BD5C
:1005100000B583B013006A46073213700123FFF75A
:10052000D1FF03B000BD000070B504008288012334
:1005300019009140D02212065161C1888B4093610D
:100540000B2000F0ADFD0A2200212000FFF7E0FFA4
:100550001048002100F078FD002201212000FFF763
:10056000D7FF3C2205212000FFF7D2FF0A4D0523CB
:100570002A000A212000FFF7A5FF05232A001021E9
:100580002000FFF79FFF202211212000FFF7C0FF6E
:1005900070BDC046DC050000FCD8031010B5040097
:1005A0000021FFF76AFF01239843C2B20021200017
:1005B000FFF7AEFF8220002100F046FD10BDF0B530
:1005C00083B004000F006B46D91DA0230B708388F5
:1005D00001252A009A40D0263606B2610122006821
:1005E0003DF052F92022390020683DF04DF9A388F2
:1005F0002A009A407261E3882A009A4072610A20B8
:10060000002100F021FDE3889D40B56103B0F0BDFD
:1006100010B58300084A944663441C684022624037
:10062000C02414408022520113431C60C000034BBD
:100630009C466044416010BD04C001400040014040
:1006400010B501238340D0221206936293610521E5
:10065000FFF7DEFF10BD0000EFF3108072B6034B12
:100660001B68002BFBD0BFF35F8F70472C0100D0BD
:10067000BFF35F8F024B00221A6080F3108870472F
:100680002C0100D0F8B506000C001500FFF7E4FFC0
:10069000E308F718F15C07222240012393400B4244
:1006A00005D1DBB20B433B70FFF7E2FFF8BD210041
:1006B000280001F05FF90000034B1B68022018407E
:1006C000431E9841C0B2704700C0064000231F2B54
:1006D00008D8054A9A189200BFF35F8F0021116075
:1006E0000133F4E77047C04640000034054A1078F3
:1006F000431CDBB21370172B02D9130010221A709F
:100700007047C046D412002070B505000C000800E8
:1007100000F016FD200000F01DFE0849200000F04A
:100720005DFDFFF7E3FF064B9C4660448000686078
:100730002C75A400034BE55070BDC0464D0A001057
:1007400040000034BC3700200A4B1A68EFF31081D8
:1007500072B61368002BFCD0BFF35F8F054B1B688C
:10076000BFF35F8F00221A6081F3108840BF002022
:1007700000217047D837002010B5002922D0036827
:100780001B7B99421ED8174B9C4661440901836824
:100790009C4661440C684968002A19D003681B7B99
:1007A0009A4215D883680F488446624412019A1809
:1007B00010685368020001208B4201D80ED000203F
:1007C000C0B210BD084B094A3B21094801F038F876
:1007D000054B064A3B21064801F032F8A242EFD809
:1007E000EDE7C046FFFFFF0F50D90310F4DB031005
:1007F00018D9031010B500291ED0037B99421BD8CD
:100800004B005B18033B0468A4466344002919D0DD
:10081000002A1DD0914221D0002A25D0047BA2427B
:1008200022D8046850008018033820188170197885
:1008300000291FD11A7010BD104B114A69211148AF
:1008400000F0FEFF104B114A70310E4800F0F8FF27
:100850000F4B0E4A71210B4800F0F2FF0D4B0B4A73
:100860007221084800F0ECFF044B054A6921054855
:1008700000F0E6FF41701A70DDE7C04684D903102E
:10088000B4DB0310A0D90310ECD90310C0DB0310B4
:10089000F8D9031004DA031070B506000D00140037
:1008A000002914D0002A14D0806873689847002863
:1008B00006D0220029003000FFF79CFF280007E047
:1008C0002A0021003000FFF795FF200000E0100013
:1008D00070BD0800FCE70000F0B583B00500009291
:1008E00001930AAB1C780BAB1F78002C26D0036851
:1008F0005A7B944207D10123002B19D1002C3BD104
:10090000200003B0F0BD002C0CD01A7B944209D813
:100910001A6863001B19033BD3189B78002BEBD09C
:100920000123E9E73E4B3F4A69213F4800F088FF39
:100930003E4B3F4A65213F4800F082FF03689C7BA5
:10094000002CDBD012D01A7B94420FD8620012190F
:10095000033A19688C46624451789973002900D192
:10096000D9730023937053701370C7E72C4B2D4A33
:1009700069212D4800F064FF002C3AD02B681B7BC6
:100980009C4236D82C4BE3181B01AA68944663445A
:10099000009A1A60019A5A60089A9A60099ADA6075
:1009A0002E68002C2BD030D0337B9C422DD8630096
:1009B0001B19033B32689446634400229A705A70B4
:1009C0001A70717B22003000FFF766FF707384425B
:1009D00000D095E7287D009A019B00F047FC061E99
:1009E00001D0002F17D00C9B002B00D188E71E7080
:1009F00086E7124B124A3B210E4800F021FF114BB3
:100A0000114AA621084800F01BFF054B054A692141
:100A1000054800F015FF2868210000F073FEE2E7AA
:100A200084D90310B4DB0310A0D903101CDA03101F
:100A30002CDC031018D90310FFFFFF0F50D903104F
:100A4000F4DB031014D90310D4DB0310F0B5DE4639
:100A500057464E464546E0B58BB0099000230893B3
:100A60008200B34BD658370052E0B24BB24A3F2116
:100A7000B24800F0E5FEB24BB24A3B21B24800F06A
:100A8000DFFE002901D1002869D10021404600F095
:100A90002FFEA04219D12A686B6806920793AB68B3
:100AA0009846EB689A464346002B14D0002C18D089
:100AB0003B681B7B9C4214D8631EFA68D35C089386
:100AC0001B0218433861002015E0A04BA04A8C217E
:100AD0009D4800F0B5FE9F4B9D4A90219A4800F03A
:100AE000AFFE974B9C4A4021974800F0A9FE002397
:100AF0009A46984600207B68BFF35F8F00221A60F9
:100B000086F310884346002B32D1002800D107E13C
:100B100000F022FB02000B1EA7DB00200021069044
:100B200007917868EFF3108672B601680029FCD04F
:100B3000BFF35F8F396888464C7B002CD7D09AD0A2
:100B4000097B8C4297D8854965182D01B9688C4678
:100B5000654428686968801A9941002991DD2A68EE
:100B60006B68099800F082FB00239A469846C2E71A
:100B7000089B1B022343994651461800C0470500B5
:100B80000E007A68EFF3108B72B6136859424B412E
:100B9000D9B2002BF9D1BFF35F8F002E26DB002ED8
:100BA00052DD3B69002B53D04B4572D100F0D4FA93
:100BB00002000B1E73DB01001800521973419842AA
:100BC00002D804D1914202D901225242D317002BFC
:100BD0006BDB002104910131039102945146019194
:100BE000414600913800FFF777FE49E03B69002B52
:100BF000D5D04B451CD1069A079B10001900521BFB
:100C0000B341994202D804D1904202D90122524202
:100C1000D317002B12DB00210491013103910294C0
:100C200051460191414600913800FFF755FE27E0FB
:100C30004B4B474A9F21444800F002FE3D4B3E4A41
:100C40003F213E4800F0FCFD002E01D1002DA8D12F
:100C50003A68002C45D0537B9C422CD101210029BD
:100C60003FD1D37B002B42D1D473002C52D03B68B0
:100C70001B7B9C424ED8FA68013C135D013313552F
:100C800000233B617A68BFF35F8F13608BF310889A
:100C90003EE7334B2E4AA2212B4800F0D1FD254BD5
:100CA000254A3F21254800F0CBFD224B224A3F2117
:100CB000224800F0C5FD002C0DD0137B9C420AD8C1
:100CC00063001B19033B1068844663449B78002B28
:100CD000C5D00121C3E7234B234A6921234800F0F3
:100CE000AFFD234B234AF721204800F0A9FD002B3C
:100CF0000AD0117B8B4207D85900CB18033B1168EF
:100D00008C4663445C70AFE7164B174A692117485D
:100D100000F096FD0A4B104A40210B4800F090FD70
:100D20000BB03CBC90469946A246AB46F0BDC046CF
:100D3000BC37002044DA03109CDB031060DA031098
:100D400050D90310F4DB031018D90310A4DA0310F0
:100D500044DC0310BCDA031000DC0310FFFFFF0FBC
:100D6000C8DA031084D90310B4DB0310A0D9031030
:100D700004DB0310E4DB031010B50A4B5B68002BA7
:100D800004D00A21084800F005FB10BD054C2300E3
:100D9000064A1021206800F0CBFB03212000FFF75A
:100DA000B3FCEEE7D8120020D837002079070010F6
:100DB00010B5064B5B68002B01D0044810BD044BF6
:100DC000044A5C21044800F03BFDC046D8120020D4
:100DD00028DB031014DC031018D90310F0B5DE462D
:100DE00057464E464546E0B58BB0804616001F007C
:100DF000149B9A46159B994616AB1B789B461F235E
:100E000002AA9446634400221A7032E0002809D0F6
:100E100042461268127B904204D8421E4146C9687D
:100E20008A5C48E0434B444A4021444800F008FDB6
:100E30000798002B75D05B46002B72D04946D047EF
:100E400004000D0003000B4300D171E0002946DBD4
:100E500000F082F906000F1E55DB36196F41B942CA
:100E600002D804D1B04202D901267642F717002FEA
:100E70004FDB43465A68EFF3108472B61368594249
:100E80004B41D9B20791002BF8D1BFF35F8F1F33CD
:100E900002AA9446634404930023039302934B46AF
:100EA00001935346009332003B004046FFF714FD88
:100EB000031EABD1020041464968BFF35F8F002596
:100EC0000D6084F31088002B29D01F2302A98C46C3
:100ED00063441B78002BABD112021043A9E7320008
:100EE0003B00361BAF41BB4202D804D1B24202D90B
:100EF00001267642F717002FBBDA114B114A3F212A
:100F0000114800F09DFC0E4B0E4A3F210E4800F0A8
:100F100097FC0B4B0B4A3F210B4800F091FC012042
:100F200040420BB03CBC90469946A246AB46F0BD51
:100F30000798F6E750D9031000DC031018D9031006
:100F400044DA03109CDB031060DA0310F0B587B0BD
:100F500006000F00FFF787F900281FD1062464421E
:100F6000E517A4197D41BD4202D803D1B44201D98D
:100F700000240025002D14DB0494059500F0ECF806
:100F800002000B1E13DBA41A9D41002D17DC14D0A8
:100F90003000390000F0ECF807B0F0BD234800F055
:100FA000E9FC234B234A3F21234800F049FC204B16
:100FB000204A3F21204800F043FC002CE8D0FFF7F6
:100FC000F7FE0023029301931C4B0093049A059BA8
:100FD000FFF704FF002818DADAE7002300E0002317
:100FE000002BD5D1164B1A68EFF3108172B6136837
:100FF000002BFCD0BFF35F8F114B1B68BFF35F8FDB
:1010000000221A6081F3108820BF0499059A0D4BC5
:101010005B6A9A42E3D80B48806A884203D29A42BC
:10102000DBD00123DCE70123DAE7C0464CDB031009
:1010300044DA03109CDB031060DA03104907001048
:10104000D837002000400540F8B504000D0000F03E
:1010500083F802000B1E10DB200029008018594184
:101060008B4202D804D1824202D901204042C117EA
:10107000002908DBFFF76AFFF8BD064B064A3F214F
:10108000064800F0DDFB034B034A3F21034800F014
:10109000D7FBC04644DA03109CDB031060DA031070
:1010A00010B5FA2292000023002103F05BF8FFF74D
:1010B000CBFF10BD70B5EFF305833F20184010380B
:1010C000EFF3108472B6194B1B68002BFBD0BFF3F3
:1010D0005F8F012319008140154A5163154A127828
:1010E0001500C5402B4214D0114B5D6A8300124E8F
:1010F0009B599D4206D38300104D5B598A430D498D
:101100000A7007E00A4A031D9B0099589950002372
:1011100000E00023BFF35F8F044A0021116084F3D5
:101120001088002B00D0984770BDC046280100D021
:1011300000400540EF370020DC3700203836002023
:1011400010B50100024A0348FFF79CFA10BDC046E3
:1011500068DC0310ED370020044B5B6A034A906A99
:101160001900536A9942F9D17047C04600400540C2
:10117000074B5B6A8B4204D2054B5B6AFAE7044B70
:101180005B6A8B4203D1024B9B6A8342F7D3704761
:101190000040054070B504000D00FFF7DDFF0200C0
:1011A0000B0020002900801859418B4202D804D13D
:1011B000824202D901204042C117002902DBFFF719
:1011C000D7FF70BD024B034A3F21034800F038FBB4
:1011D00044DA0310F0DC031060DA031070B5040089
:1011E0000D00EFF3108672B61B4B1B68002BFBD073
:1011F000BFF35F8F002D1CD0200000F04DFD174B7A
:1012000083420BD01900200000F04EFD0121200088
:1012100000F03AFD0123A340114A1360A400114BD2
:10122000E550BFF35F8F0C4B00221A6086F31088E5
:1012300070BDA2000B4B0021D1500122A2400A49EF
:101240000B7893430B700549200000F057FD0021F7
:10125000200000F019FDE4E7280100D0B5100010CF
:101260003860054038360020EF370020F0B5DE4604
:1012700000B584B00400150001921E000293FFF730
:101280006BFF03958E4202D84ED185424CD9EFF3C5
:10129000108B72B6274B1B68002BFBD0BFF35F8F00
:1012A000254A17780125A540EBB23B431370234B29
:1012B0005D63221D92000199D150A200204902983D
:1012C00050501B6A2B4212D11C4B1B6C2B4208D076
:1012D0000020BFF35F8F174B00221A608BF310883A
:1012E00023E0184B184AC121184800F0A9FAFFF76B
:1012F00033FF8E4214D802D1039B834210D80E4B89
:101300001B78BB420ED00D4B1D625D631F20044055
:101310000123A3400E4A1360074B1F701E38D8E705
:101320000020D6E70120D4E7012004B004BC934696
:10133000F0BDC046280100D0EF3700200040054036
:10134000DC3700208CDC031008DD0310B0DC031058
:1013500080E200E010B5EFF3108472B60A4B1B6810
:10136000002BFBD0BFF35F8F01238340074A13623A
:1013700007490A789A430A70BFF35F8F024B002235
:101380001A6084F3108810BD280100D00040054089
:10139000EF370020024B9C46614489000160704792
:1013A0004000003410B50400FFF7A0F90100200050
:1013B000FFF7F0FFFF232371BFF35F8F10BD10B560
:1013C0000400FFF793F901002000FFF7E3FFFF237C
:1013D000237100236371BFF35F8F10BD10B5002927
:1013E0001ED0037B99421BD84B005B18033B04685B
:1013F000A4466344002919D0002A1DD0914221D06F
:10140000002A25D0047BA24222D80468500080180C
:10141000033820188170197800291FD11A7010BD67
:10142000104B114A6921114800F00AFA104B114A79
:1014300070310E4800F004FA0F4B0E4A71210B4830
:1014400000F0FEF90D4B0B4A7221084800F0F8F944
:10145000044B054A6921054800F0F2F941701A7001
:10146000DDE7C04684D9031070DE0310A0D9031055
:10147000ECD903107CDE0310F8D9031004DA031052
:1014800070B506000D001400002914D0002A14D0F5
:10149000806873689847002806D022002900300031
:1014A000FFF79CFF280007E02A0021003000FFF72B
:1014B00095FF200000E0100070BD0800FCE7000070
:1014C00010B50023437301338373037BC37301237C
:1014D000027B9A4214D9002B0CD0027B934209D88C
:1014E0005A00D218033A01688C4662440133DBB2D9
:1014F0005370EDE70B4B0C4A69210C4800F0A0F942
:10150000002A09D0924207D8016853009A18033A7A
:101510008A180023537010BD024B034A6921034807
:1015200000F08EF984D9031070DE0310A0D90310E7
:1015300010B5017342608360FFF7C2FF10BD000069
:1015400070B50400081E00D170BD002934D0237B83
:10155000994231D84B005B18033B226894466344A0
:101560005A78002AF0D02DD0237B9A422AD85300F3
:101570009B18033B21688C4663445D7800215970B9
:10158000002825D0237B984222D843001B18033B18
:1015900021688C4663440021597001002000FFF748
:1015A0006FFF060029002000FFF7CAFF020031008C
:1015B0002000FFF765FFC7E7084B094A6921094882
:1015C00000F03EF9054B064A6921064800F038F95B
:1015D000024B034A6921034800F032F984D9031011
:1015E00070DE0310A0D9031070B505000C001600C2
:1015F000002928D02DD0037B99422AD84B005B18B4
:10160000033B0268944663445A78002A27D19A78AB
:10161000002A2AD11978FFF793FF0300002E03D088
:10162000EA7B002A27D1EC73002B37D1002C49D05C
:101630002B7B9C4246D82B6861000C19033C1C197B
:101640000023637070BD224B224A3821224800F0EB
:10165000F7F8224B224A6921224800F0F1F8224B88
:101660001C4A3A211C4800F0EBF8204B194A3B2158
:10167000194800F0E5F8002A0AD0297B8A4207D8E9
:1016800051008A18033A29688C4662445470CAE7AC
:10169000124B134A6921134800F0D2F8002B0BD0EB
:1016A0002A7B934208D843001B18033B2A689446C0
:1016B000634400229A70B9E7084B094A6921094836
:1016C00000F0BEF8054B064A6921064800F0B8F85C
:1016D000BCDD031090DE0310C4DD031084D90310B9
:1016E00070DE0310A0D90310FCDD031024DE03100C
:1016F00070B504000A00457B2900FFF775FF607391
:10170000280070BD70B50400002966D0437B8B4271
:101710000ED0002911D0037B99420ED84B005B18E4
:10172000033B0268D0188378002B0CD1002055E0D1
:101730000121FFF7DDFF012050E0294B294A6921F3
:10174000294800F07DF8002B1FD0227B93421CD843
:1017500025685A00D318033BEA18EB5C8B421AD079
:10176000002B1BD0227B934218D85A00D318033B7E
:101770002268D21853788B4216D0002BF0D11B4B25
:101780001B4A67211B4800F05BF8154B154A69217D
:10179000154800F055F84378137007E0104B114AD4
:1017A0006921114800F04CF843785370002383708E
:1017B000437001222000FFF717FF0200617B814286
:1017C00005D02000FFF75CFE6073012006E00A4BA5
:1017D000074A6D21074800F033F8002070BDC0466D
:1017E00084D9031070DE0310A0D9031048DE031063
:1017F000A4DE0310C4DD031050DE031000BEFDE7BD
:1018000003000A4A1268002A08D0084A1068C31860
:10181000074A9A4206D3054A13607047034A0549AE
:101820001160F2E701204042F7E7C046B8370020D8
:1018300000000420F439002010B5FFF7DFFF00009E
:1018400010B582B00C001900002A0CD0084B002AF9
:101850000BD00192009323000200064802F02CFFF7
:101860000120FFF7CBFF044BF1E7034AF1E7C04645
:10187000BCDE0310CCDE0310F816041070B52B4B41
:101880002B4A1A602B4B2C4A1A602C4B9A682A4B15
:101890009343FAD12A4C2B4B9C4202D208CC984756
:1018A000F9E700F001F9234B274A1A60234B9B68A4
:1018B000DB43DB01FAD1254B40229A675A671A674E
:1018C000DA66234C09E0234B234A83212348FFF7A0
:1018D000B7FF2000FFF766FD0834214B9C4209D278
:1018E0002368002BF5D0012BEDD12000FFF767FD19
:1018F0000834F2E71B4CA1681B4DC022280002F0FF
:101900004BFDA560FEF7AFFC002800D000BEFEF73F
:10191000DDFE00F041FBFFF72FFA144C144B9C4204
:1019200002D208CC9847F9E770BDC04600E00040FD
:10193000BFCDFBFE00F00040FE7F3C0000C0004039
:10194000281E0020381E0020FFFFFF0100F001408C
:10195000201E0020FCDE031070DF03101CDF0310CC
:10196000281E002000ED00E000000020381E0020AE
:101970005C1E00200FB400B583B0084802F06AFE78
:10198000049B002B07D005A90191180002F072FEFC
:10199000034802F05FFE0120FFF730FF5CDF031019
:1019A0006CDF0310F8B5DE4657464E464546E0B5B7
:1019B00005000F0092461E000A9B9E424ED3330E36
:1019C000994636020A9A00233000494601F0FAFC93
:1019D00080466C006419A4002E4B9C4664446368E6
:1019E000834200D260602B1FDBB29B46012B3BD9A8
:1019F000C0239B012343802212011A60AB00264AB8
:101A00009958002905D0506901F09AFC013001383D
:101A1000FDD153465A0123685A40E0231A408023DF
:101A20005B0123431A605A46012A28D980239B016F
:101A30002343802212011A6043466360424600231A
:101A40003000494601F0BEFCAD00134B5851012057
:101A50003CBC90469946A246AB46F8BD0F4B104A97
:101A60002D211048FFF7ECFE012FC1D1C0239B01AF
:101A7000234303221A60A368DB07FCD5C9E721686A
:101A8000794003220A401A60A3680122BA401A4230
:101A9000FAD0CBE7008000404837002080DF0310F9
:101AA000D8DF031094DF031030B583B00C2000F0B2
:101AB0000DFBFEF701FE00280DD00023092B05D8F1
:101AC00099002D4A2D4888500133F7E72A4B2C4ABC
:101AD0005A6203B030BD2B4B00229A6700F0FEFA29
:101AE000294B01221A60274B5B6C012BFBD1274B42
:101AF00003221A60234B9B6B012BFBD10224009421
:101B00000533234A0121234800F054FA00940523A9
:101B1000214A0121214800F04DFA214B0093002277
:101B200002210420FFF73EFF1E4D00952B000022EE
:101B300001210520FFF736FF104C009423000022FE
:101B400000210720FFF72EFF009423000022002130
:101B50000820FFF727FF0A4B0093230000220021F3
:101B60000920FFF71FFF00952B000022002106200F
:101B7000FFF718FFADE7C04648370020006CDC02D5
:101B80001BB70000008000403CB0004030B0004077
:101B9000002F68590080024000389C1C00C00240A1
:101BA000001BB700405973078000014BC0587047B5
:101BB00048370020074B9B68103080001950BFF356
:101BC0005F8FBFF35F8F044B0021196082F3108891
:101BD0007047C04600ED00E0240100D010B5091A9E
:101BE00004394808090B05D14005400D044B184342
:101BF00080B210BD034B044A8B210448FFF720FE3E
:101C000000E0FFFFE8DF0310C4E10310F8DF03107A
:101C100010B5091A04394C08090B08D14905490DBA
:101C2000064A11430180064B2343438010BD054BF8
:101C3000054A93210548FFF703FEC04600F0FFFF69
:101C400000F8FFFFE8DF0310D0E10310F8DF031016
:101C500001238340034A10681840431E9841C0B2D4
:101C60007047C04600E100E0002904D0034B186033
:101C7000034B18607047034B1860FBE780E200E0FD
:101C800000E100E080E100E010B50123834018008E
:101C9000FFF7EAFF10BD0000024B9B681030800088
:101CA000C058704700ED00E070B504000D00EFF380
:101CB000108672B60C4B1B68002BFBD0BFF35F8FF6
:101CC0002000FFF7E9FF094B984201D0A84205D157
:101CD000320029002000FFF76DFF70BD044B054A5C
:101CE0006E210548FFF7ACFD240100D0CD010010A6
:101CF00034E00310A8E10310F8DF0310F0B5CE467E
:101D0000474680B583B006000D00EFF3108872B629
:101D1000574B1B68002BFBD0BFF35F8F554B9A6866
:101D200034001034A300D758534B9F4207D0AF4222
:101D300000D19BE00197514BFB1A2F2B09D942464A
:101D400039003000FFF736FF03B00CBC90469946CF
:101D5000F0BD3000FFF77CFF814600213000FFF727
:101D600093FFBFF35F8FFEF77EFA002801D0844215
:101D700019D10123019C9C43414923003F4A9B1AEE
:101D80005B415943090D49B20022A368AB4212D00E
:101D90000622A256002A0DDB53009B189B0022004E
:101DA000364CE418F1E71E21364B374AFF313748ED
:101DB000FFF746FD2200AB4251D106256557002DA5
:101DC00039DB6B005B199A002C4B9B189A68A26058
:101DD000DA79E27106229A56A2719B795BB2002BE6
:101DE00010DABD200002A0806B005B199B00234A23
:101DF000D318274A11789971157049463000FFF7BA
:101E000043FF9CE7201D6B005B199B001B4A9B183E
:101E10001A1D9B88D90A1C2907D159054915023179
:101E200049005118FFF7DAFEDDE71A4B1A4A9921EB
:101E30001648FFF705FD00280CD1002A08D0FF2323
:101E40009371164B9380124B1A78A2711970D4E7D4
:101E5000094FF8E7201D1249FFF7DAFECDE7A92167
:101E6000104B094A49000948FFF7EAFC024F66E7B0
:101E7000240100D000ED00E0CD010010001300208F
:101E8000AAAA000048E10310F8E10310F8DF0310EC
:101E9000EE37002030E10310E8E1031000BDFFFF42
:101EA0003A1300206CE10310F8B504000126064344
:101EB0002D4BF31A2F2B28D8FEF7D5F900282BD05D
:101EC000EFF3108772B6294B1B68002BFBD0BFF3D2
:101ED0005F8F274D22002449521A524155432D0D40
:101EE0006DB2244B9B6880001B58B3421BD000226C
:101EF000032A32D853009B189B001B49CB189B79AF
:101F00005BB2AB421FD00132F2E778211A4B1B4A79
:101F1000FF311B48FFF794FCBD211A4B174A4900BB
:101F20001748FFF78DFC134B9B68174A1A50174B45
:101F30001A78A2711D70BFF35F8F0C4B00221A60DC
:101F400087F31088F8BD08005300991889004118DC
:101F5000FF268E710E4A8A80E9E78C210D4B074AD5
:101F6000FF310748FFF76CFC00130020240100D06C
:101F7000AAAA000000ED00E074E103100CE20310D7
:101F8000F8DF03109CE10310CD010010EE370020B4
:101F900000BDFFFF48DE03100022044B02E00449AD
:101FA00002C30132072AFAD97047C04600E400E0B4
:101FB00080808080F0B5CE4600B504000E009146CA
:101FC0001F000C2001F0BCF9050043011B1A990108
:101FD000C91AC90009188901484601F0B1F902007F
:101FE000103A98235B009A4233D87B1E062B36D8D2
:101FF000069B013B062B32D8069B9F4235D34B46AE
:102000001A09AA4237D33F04069B1D032F432368B6
:10201000002B36DB234B9C4241D080256D01224BA7
:102020001D60224B1D60224A92682B009343FAD117
:102030002660A060221DC0239B01134321221A6049
:102040002268002AFCDAE76008221A6004BC914684
:10205000F0BD184B184A16211848FFF7F1FB184B32
:10206000154A19211548FFF7EBFB164B124A1F21A1
:102070001248FFF7E5FB144B0F4A22210F48FFF7E8
:10208000DFFB22683F231340B342C3D1A3681B0583
:102090001B0D8342BED1E368002FBBD1D6E780255C
:1020A000AD01BCE700C0024000E0004000F000408D
:1020B00000C0004028E2031000E3031044E20310D4
:1020C00080E20310CCE20310E4E2031080239B00C3
:1020D0000343014AD362704700800540064BAA22A1
:1020E00012011A602F22DA60044B054A1A60024B73
:1020F0005B68002BFBDA7047004002400060024042
:1021000000B0FA009A4200D288547047704710B568
:10211000002802D00B684968984710BD01000020D4
:102120000A681378303BDBB2092B08D883001B18F0
:102130005B00501C08601078C0183038F0E770471A
:10214000F0B5DE4657464E464546E0B583B0934669
:102150001F000C9B9A460D9C0E9B99460F9B9B075C
:1021600003D0B8460F00060022E00192A34688463D
:102170004E46B9460700B44207D2551C4B4641466D
:102180002020B84701342A00F5E73D004F465C4661
:10219000019B9B46B1464646B84637002E0007E0F5
:1021A000013C551C5346185D43463900B0472A0090
:1021B000002CF5D135003E0047460F9B9B0707D406
:1021C000100003B03CBC90469946A246AB46F0BD19
:1021D000B0464E46B9462F005D46531BB342EFD280
:1021E000541C4B4641462020B8472200F5E7F0B585
:1021F000CE46474680B585B0944698460C9D0D9CCA
:102200000EAB1B789946109A119B129EB7071BD4F0
:10221000002B08D0F70706D54F46002F02D10C3708
:10222000374200D0013B944208D21F2C06D83027F9
:102230002F550134F7E730272F550134F70703D521
:102240009C4201D21F2CF6D9F70615D5770505D487
:10225000002C03D0944224D09C4222D00F9A102A02
:102260002BD00F9A102A30D00F9A022A35D01F2C6B
:1022700002D830222A5501341F2C05D84A46002A9C
:1022800031D02D222A5501340396029301940095F2
:1022900043466246FFF754FF05B00CBC9046994692
:1022A000F0BD621E012C06D00F9F102F01D014002C
:1022B000D4E7023CD2E71400D0E7B206D1D41F2CF9
:1022C000CFD878222A550134D1E7B206CCD51F2CBD
:1022D000CAD858222A550134C9E71F2CC7D8603202
:1022E0002A550134C3E7720703D52B222A5501343E
:1022F000CAE73207C8D520222A550134C4E7F0B511
:10230000DE4657464E464546E0B593B081468A467E
:10231000089209931CAB10CB1B789B461E9D219BFA
:102320009846002C03D1102342469A4390468023BE
:10233000DB0046461E4042461A4212D0002C22D0F4
:1023400000260EE03033D9B2771C0AAB995529002C
:10235000200000F0F5FFAC4216D31F2F14D83E002A
:1023600004002900200000F0EBFFCBB2092BE9D9D3
:102370004246920605D54121C918C9B20A39C9B2E7
:10238000E2E76121F8E7270043460693209B059387
:102390001F9B049303955B46029301970AAB00933E
:1023A000099B089A51464846FFF721FF13B03CBCF1
:1023B00090469946A246AB46F0BDF0B5DE4657467C
:1023C0004E464546E0B595B0089009910A920B93A8
:1023D0001E9E1F9C20AB1B789B46229B9946239DEB
:1023E000269B9A463300234303D1103352469A4327
:1023F00092468023DB0057461F4052461A4219D0AE
:10240000330023432DD0002714E03033DAB27B1C95
:1024100098460CABDA554A462B003000210000F0FC
:10242000D1FFA5421FD819D043461F2B1BD84746C2
:1024300006000C004A462B003000210000F0C2FFCD
:10244000D3B2092BE1D95246920605D54122D218C2
:10245000D2B20A3AD2B2DAE76122F8E7B145E3D95B
:1024600001E00023984653460693259B0593249B41
:1024700004934B4603935B460293434601930CAB94
:1024800000930B9B0A9A09990898FFF7B0FE15B0C4
:102490003CBC90469946A246AB46F0BDF0B5DE4640
:1024A00057464E464546E0B591B083468A460C9263
:1024B00098461A9C08941B9D099522002B00200029
:1024C000290001F016FA002800D0E5E0012252426E
:1024D000D34B2000290001F007FA002800D0DBE0F0
:1024E00001225242CF4B2000290001F0E7F90028D9
:1024F00000D0D1E000220023089D2800099E310071
:1025000001F0DCF9002800D0DDE008980999069078
:1025100007918023DB001E9A1A400D921E9A1A42E0
:1025200001D106231C930698079904000D000A00A8
:102530000600024300D1CDE0080D4005400DBA4C25
:10254000A44660440A03120BB84B13431F0001F06A
:10255000E3F9B74AB74B01F066F9B74AB74B01F058
:102560003BF904000D000022B54B3000390001F0AA
:102570002AF9B44AB44B01F056F902000B002000CE
:10258000290001F029F901F0DFF9814601F0C4F9D1
:1025900004000D00AD4AAE4B01F045F90022AD4BF1
:1025A00001F01AF901F0D0F90600AB4AAB4B20005C
:1025B000290001F038F904000D00300001F0ACF9F9
:1025C000A74AA84B01F02FF902000B0020002900B8
:1025D00001F0F9F804000D0002000B0001F023F9EE
:1025E0000A900B91A04BF31800261F0522002B0028
:1025F0002000290001F0F0F80E900F9122002B002E
:1026000000208021C90501F0DEF804000D00002241
:10261000964B0A980B9901F0E8F80022944B01F0D0
:10262000DBF802000B000A980B9901F0DEF800229B
:10263000904B01F0D1F802000B000A980B9901F0C1
:10264000D4F802000B002000290001F0C5F80200B8
:102650000B000E980F9901F0C8F80022734B01F09F
:10266000BBF832003B0001F0DEF806000F0004006A
:102670000D00069A079B01F037F900282CD00123A2
:102680005B429C46E1440022794B3000390001F066
:10269000ACF804000D001FE01E9B04931D9B0393E8
:1026A0001C9B0293089A099B0092019343460C9A43
:1026B0005146584600F0F8F811B03CBC9046994697
:1026C000A246AB46F0BD069580231B069C46664499
:1026D00007961EE7002399464B466333C62B1FD847
:1026E00004261E9B1B0527D52B00234310D0624ACE
:1026F000624B0698079901F0EFF8002800D183E0BB
:1027000000225F4B0698079901F0D8F800287BD08B
:102710001C9B4B4506DD4A46981A431E1C9303E05A
:102720000526DEE700231C938023DB001E9A1A4354
:102730001E920026002399461D9B9E426ED29F1B2F
:1027400002231E9A1A400A921E9A134202D0002EA9
:1027500000D000274B46002B07D022002B00069804
:10276000079901F042F8069007910022002308988B
:10277000099901F0A3F8002800D085E0414B1E9A8A
:102780001340049303971C9B0293069B079C0093A2
:10279000019443460C9A5146584600F085F8002EA5
:1027A00000D189E71E9B9B067AD54525441C4346EC
:1027B000020051462800D8474B46DA179B18534071
:1027C00005220592013E0496002203920A320292EB
:1027D0004A46D00F01900093434622005146584686
:1027E000FFF78DFD0A9B002B00D165E702005F46D5
:1027F0000C9E1D9D931BAB4254D2541C4346514624
:102800002020B8472200F5E71C9B002B94D00D9B9D
:10281000002B91D01C9B013B1C938DE700278FE779
:10282000FFFFEF7FFFFFEFFF01FCFFFF0000F03F26
:10283000FB799F501344D33FB3C8608B288AC63FAF
:102840000000F83F61436F63A787D23F71A3790906
:102850004F930A400000E03F1655B5BBB16B0240F4
:10286000EF39FAFE422EE63FFF03000000002C4045
:1028700000002440000018402D431CEBE2361A3FB4
:1028800080842E41FFF7FFFF069C079D2200290050
:1028900080200006844661440B00069207936DE792
:1028A000652583E7100007E7F0B5DE4657464E463C
:1028B0004546E0B595B00690079193469946209F0E
:1028C0001E9A1F9B1000190001F013F8002831D147
:1028D00001225242BF4B1E981F9900F0EFFF0028C3
:1028E00037D101225242BC4B1E981F9900F0FCFFC9
:1028F00000283DD10022B94B1E981F9900F0F4FF2B
:10290000002850D10022B64B1E981F9900F0D6FF28
:10291000002848D1002200231E981F9900F0CEFF06
:10292000002850D100239846229B5B0500D4B6E0D6
:10293000002458E0229B0393219B029303230193DD
:10294000A84B00934B465A4607990698FFF7F8FBA9
:102950000EE1229B0393219B029304230193A24B3C
:1029600000934B465A4607990698FFF7E9FBFFE0AC
:102970000423229A1A4022990B4210D09B4B002A22
:102980000FD0042222990391219902910192009380
:102990004B465A4607990698FFF7D2FBE8E0944B5E
:1029A000EDE70322EEE7229B0493219B039302971A
:1029B0001E9B1F9C009301944B465A46079906980C
:1029C000FFF76CFDD4E01E9A1F9B0020002100F051
:1029D000FAFE1E901F9101239846A5E70CAB30220A
:1029E0001A55013F01341F2C01D8092FF6D81E9823
:1029F0001F9900F0A9FF050000F08EFF02000B00F8
:102A00001E981F9900F0DFFEFA007A4B9B181A6897
:102A10005B680A920B9300F006FF0890099100F0A2
:102A2000B7FF060000F074FF02000B000898099938
:102A300000F0C9FE0890099100226F4B00F054FF8E
:102A400000282ED00136300000F062FF02000B009B
:102A50000A980B9900F038FF002801D001350026B4
:102A6000002F2CD1280000F057FF02000B001E9809
:102A70001F9900F0A8FE06000F0000225E4B00F038
:102A80001DFF002842D100225B4B3000390000F0CE
:102A90002BFF00283AD1EB0738D5013536E0062761
:102AA00046E70022544B0898099900F007FF0028D8
:102AB000D6D1002E01D0F307D2D50136D0E7AA46F1
:102AC0001F2C11D8013F0A21300000F039FC651C91
:102AD00030310CAB19550A21300000F031FC092EC1
:102AE00026D906002C00EBE7554604E00CAA30215D
:102AF00011551F0001341F2C02D87B1E002FF5D169
:102B00001F2C03D80CAB2E221A5501341F2C14D8BD
:102B10000A21280000F0ECFB661C30310CAB195583
:102B20000A21280000F0E4FB051E05D03400EDE783
:102B30002B0055461C00DEE734000323229A134085
:102B4000012B1CD01F2C06D84346002B32D00CABD7
:102B50002D221A550134229B0393219B0293019449
:102B60000CAB00934B465A4607990698FFF7E8FAD4
:102B700015B03CBC90469946A246AB46F0BD219BA1
:102B8000002B13D04346002B02D10C3313420FD03D
:102B9000219B013B2193190003E00CAB30221A5515
:102BA00001348C42CED21F2CF7D9CBE72199F8E71C
:102BB0002199F6E7229B5B0704D50CAB2B221A5513
:102BC0000134C8E7229B1B07C5D50CAB20221A5540
:102BD0000134C0E7FFFFEFFFFFFFEF7F65CDCD4181
:102BE00065CDCDC118E303101CE3031010E30310FF
:102BF0000CE3031008E503100000E03FF0B5DE46EB
:102C000057464E464546E0B593B082468B469046C1
:102C10001193002900D1ECE200275546119B18784A
:102C2000002800D1E8E2252809D07C1C43463A0060
:102C30005946A847119B013311932700EEE7013352
:102C4000119300241DE00B00303BDBB2092B37D978
:102C50002A293AD000230A93119B1A782E2A44D0AD
:102C600000239A46119A1378683BD9B2122900D9E9
:102C700080E08B00CB49CB589F4601231C43013297
:102C80001192119A11780B00203BD8B21028DAD893
:102C90008300C548C3589F4602231C43013211924A
:102CA000EFE704231C4301321192EAE708231C4397
:102CB00001321192E5E710231C4301321192E0E743
:102CC00011A8FFF72BFA0A90C6E71C9B1A1D1C924D
:102CD0001868002804DB0A90119B01331193BBE7AD
:102CE00002231C4343420A93F6E78022D200144396
:102CF0005A1C11925A781300303BDBB2092B04D9CD
:102D00002A2A07D000239A46ACE711A8FFF706FA53
:102D10008246A7E71C9B1A1D1C921868002804DB3A
:102D20008246119B013311939CE70020F8E7802332
:102D30005B002343511C119152786C2A01D01C0076
:102D400018E0C0239B001C430131119112E0802345
:102D50002343511C11915278682A01D01C0009E0CC
:102D6000C0231C430131119104E080235B001C430C
:102D700001321192119B18780300253BDAB2532AD5
:102D800000D92CE29300894AD3589F4680239B00A8
:102D90001C4301321192EDE780235B001C4301329A
:102DA0001192E7E7782809D0582838D06F2838D012
:102DB000622838D010239C430A2600E010265828A9
:102DC00033D0692803D0642801D00C2294436305D2
:102DD00001D50122944369282AD0642828D0A3056C
:102DE00000D59FE0E30500D5B8E0630600D4CAE053
:102DF0001C9A111D1C911168FF220A4005940A9B20
:102E00000493534603930296002301930092434692
:102E10003A0059462800FFF772FA070027E010260B
:102E2000CDE70826CBE70226C9E720221443C8E7EE
:102E3000A30520D4E30550D4630666D51C9A111D62
:102E40001C911168FF220A40D317D11859400594EC
:102E50000A9B0493534603930296D20F019200916A
:102E600043463A0059462800FFF749FA0700119BEC
:102E700001331193D2E61C9BDA1D07218A4311000E
:102E800008311C91116853689C46DB170C930D9315
:102E90000C9A0D9B100048400E90624653400F93D1
:102EA0000E980F990C9A0D9B801A99410E900F91D4
:102EB00008940A9B079353460693049600230593B0
:102EC0006346DA0F02920090019143463A00594658
:102ED0002800FFF772FA0700C9E71C9A111D1C9120
:102EE0001268D317D118594005940A9B049353468E
:102EF00003930296D20F0192009143463A0059463D
:102F00002800FFF7FCF90700B1E7230605D51C9A56
:102F1000111D1C910023D25E96E71C9A111D1C9175
:102F2000126891E71C9BDA1D07218A4311000831C2
:102F30001C9108940A9B079353460693049600231A
:102F400005930293136854680093019443463A0032
:102F500059462800FFF731FA070088E71C9A111D2F
:102F60001C9105940A9B04935346039302960023F5
:102F700001931368009343463A0059462800FFF72F
:102F8000BEF9070073E7230606D51C9A111D1C9194
:102F900012681204120C31E71C9A111D1C91126860
:102FA0002CE7C04624E3031070E30310B4E30310DE
:102FB00046281AD01C9B0733072293431A00083275
:102FC0001C9204940A9A0392524602925C681B680F
:102FD0000093019443463A0059462800FFF764FCE9
:102FE0000700119B0133119318E620231C43E1E7EE
:102FF000672801D0472802D180231B011C434528A4
:1030000001D0472801D120231C431C9B07330722F2
:1030100093431A0008321C9204940A9A039252466F
:1030200002925C681B680093019443463A0059463B
:103030002800FFF733FA0700119B01331193EDE5E8
:1030400002231A002240924623421FD001241C9BD7
:103050001A1D1C927A1C9146187843463A0059462C
:10306000A8475346002B16D1119B013311934F46AD
:10307000D4E5561C434659462020B8472300320069
:103080005C1C9D42F5D83D001700E0E701233A00A3
:103090002F000A9DF4E74A46A9460A9D06E0571C00
:1030A000434659462020C84734003A00661CA542D2
:1030B000F5D84D469146D7E71C9B1A1D1C921B68FC
:1030C00099465346002B00D1013B4E4601E00136A4
:1030D00013003278002A02D05A1E002BF7D14B463B
:1030E000F21A10928023DB0026001E401C4203D0FF
:1030F000524501D95346109302231A0022400B92E5
:10310000234205D03A0037004C46A946554620E0F8
:103110003A00109B5F46B3462E0006E0551C43461E
:1031200039002020B04723002A005C1C0A999942EC
:10313000F4D835005E46BB46109437004C46A9468D
:10314000554606E01D000134561C43465946C84703
:1031500032002078002804D0002FF4D06B1E002D00
:10316000F0D117004D460B9B002B03D1119B01336F
:10317000119353E50A9F109B06E0561C434659469F
:103180002020A847230032005C1C9F42F5D817007E
:10319000ECE721231C431C9B1A1D1C921B68009307
:1031A00005940823049353460393102302930023AA
:1031B000019343463A0059462800FFF7A0F807005C
:1031C000119B0133119329E57C1C43463A00594673
:1031D0002520A847119B0133119327001EE57C1C75
:1031E00043463A005946A847119B013311932700E3
:1031F00014E50B4B9A460FE5AA4647450DD34346C7
:103200005A1E434659460020D047380013B03CBCF4
:1032100090469946A246AB46F0BD3A00F1E7C0465B
:103220000D2100100EB410B585B0010007AC08CC1C
:1032300003940122009452420348FFF7DFFC05B0DB
:1032400010BC08BC03B018470521001000B583B0BE
:10325000009313000A0001000248FFF7CFFC03B0FF
:1032600000BDC0460521001000B585B00290039155
:103270000121009313004A4202A90248FFF7BEFC55
:1032800005B000BD0F21001001480421014B184773
:1032900050130020B932001010B5010018231B880C
:1032A00014221088984710BD10B5010018231B8800
:1032B00016221088984710BDF0B5C64600B5070025
:1032C0000E0000250123984600E00135B5420AD2E0
:1032D000AC003C192068FFF7DFFF20600028F4D124
:1032E00000239846F1E7404604BC9046F0BD00003C
:1032F000124A936F9B0815D29066D166002905D0BB
:10330000FFE7FFE7FFE7516F106F704704B58021BB
:103310000906C2175140002800D0C8433AF094FA79
:10332000002104BDF0B5146E556E576F166FFFF790
:10333000E3FF1466556657671667F0BD000000D0BE
:10334000114A936F9B0813D210665166002905D06D
:10335000FFE7FFE7FFE7516F106F704704B50028E4
:1033600001D00020C0433AF06FFA002104BDC046EE
:10337000F0B5146E556E576F166FFFF7E5FF1466C4
:10338000556657671667F0BD000000D094464E4A58
:10339000926F9208624601D230E0C046F0B54A4EC4
:1033A000B56F6D08FCD3346E756E776F366F00F0B5
:1033B00025F89446444A1466556657671667624670
:1033C000F0BDC0469446404A926F9208624601D2D0
:1033D00058E0C046F0B53C4EB56F6D08FCD3346E76
:1033E000756E776F366F00F04DF89446364A146666
:1033F0005566576716676246F0BDC046002B24DB52
:1034000011D000293EDA00B5C943404200D1013154
:1034100000F038F8C943404200D10131DB43524249
:1034200000D1013300BD002AEBD1002801D10029D1
:1034300005D00020C90FC90701D1C043410800B51C
:103440003AF0DAF90022002300BD00B500290ADBBA
:10345000DB43524200D1013300F014F8C94340422B
:1034600000D1013100BDC943404200D10131DB43ED
:10347000524200D1013300F005F8DB43524200D143
:10348000013300BD002923D1002B18D1002A0CD014
:10349000BC460D4F38667A6600210023FFE7FFE740
:1034A000FFE77A6F386F67467047002801D00748FA
:1034B000010000B53AF0A0F90022002300BD02008F
:1034C0000B00002000217047000000D0FFFFFFFF2D
:1034D000002B00D0BFE0130C28D1002AE7D080B425
:1034E000114F39667A66FFE7FFE730B4040C7B6F53
:1034F000396F1B0423433B667A66FFE7FFE7FFE76C
:10350000C04684B27B6F3D6F1B0423433B667A66E3
:10351000FFE7FFE7C04600232C042D0C7A6F386FBD
:1035200000196941B0BC7047000000D0F0B5944666
:103530000025140E01D112020835140F01D1120119
:103540000435940F01D192000235D40F01D15200FD
:103550000135D40B0134254F7C66254C3C660E0C9E
:1035600093B2FFE7FFE7FFE73C6F6643360C770354
:10357000BE467343DF0B5B04C01AB941130C73439F
:10358000DB18C91ACE086643360CB64493B27343AF
:103590001F0F1B01C01AB941130C73431F0B1B05EE
:1035A000C01AB941860D8F023E436643360C092D81
:1035B00024DB520A7243801A7703460A6643360CAC
:1035C00016235B1BDE40DF40BF1964466643821B47
:1035D0007046043506330100D940A840C01900D315
:1035E0000131A24206D20023F0BD0000000000D04D
:1035F000FFFFFFFF121B0130F3D3F1E709277F1B09
:10360000FE406446A2B27243801A00D20139220CF5
:103610007243130C1204821A99410B007046043550
:1036200013370100F940A840801900D30131002B65
:1036300002D1A2420AD2F0BD013000D30131121BE7
:10364000FAD2013BF8D1A24200D2F0BD013000D342
:103650000131121BF7E7F0B51C0C00D080E00CB470
:1036600000251C0A04D11B02160E33431202083532
:103670001C0B04D11B01160F3343120104359C0BA4
:1036800004D19B00960F334392000235DC0B02D12C
:1036900092185B4101351C00971864410134464F74
:1036A0007C66464C3C660E0CFFE7FFE7FFE7C04632
:1036B0003C6F6643360C7703BE4697B27743C01B18
:1036C00000D20139C01B00D201399FB27743C91B18
:1036D000C91B170C77437E04FF0B801BB941CE0832
:1036E0006643360C0C2D33DBB644120B1F053A43F0
:1036F0001B0B97B27743C01B00D201399FB27743AF
:10370000C91B170C77433E043F0C801BB941860D43
:103710008F023E43664329277F1BFE400C3D7746C0
:10372000AF40BF1930BCA2B2ABB272437343801A30
:103730009941220C7243130C1204801A9941020021
:103740000B000137001BA941F9D2781E0021F0BD02
:103750000C277F1BFE4077467F0BAF40FF19E0E749
:1037600000245D1C07D0144F7D663966FFE7FFE734
:10377000FFE7FFE73C6F95B29EB265436643401B8F
:10378000B141150C1E0C6543664336042F0C3E43B5
:103790002D04401BB141994204D202000B002000CD
:1037A0000021F0BD01D19042F7D3801A9941013434
:1037B0009942F2D3F6E70000000000D0FFFFFFFFC0
:1037C00048404140484018B41B4B5B68FC4601939D
:1037D00008BD04DF333B001018B4174B1B68FC46D0
:1037E000019308BD00DF3D3B00109446134A926FE1
:1037F000920809D2624618B40F4BDB68FC4601936D
:1038000008BD0CDFF53D00100C4AF0B5146E556E86
:10381000576F166F6246FFF7EEFF084A146655664B
:1038200057671667F0BD18B4034B9B68FC460193BD
:1038300008BD08DF993C0010F0370020000000D0E0
:10384000FFB550404240504059404B40594000E085
:10385000FFB5154F4C00640D03D0BC4204D10C03DE
:1038600014D80020090D09055C00640D03D0BC428A
:1038700004D11C030AD800221B0D1B0501264B4056
:1038800009D44B4003D58B4200D18242FFBD9942FF
:10389000FCD19042FFBD0B43DB1803431343F5D02B
:1038A000C9434918FFBD0000FF07000000B5FFF73E
:1038B000CFFF01D0002000BD012000BD00B5FFF703
:1038C000C7FF804100BDC04600B5FFF7C1FF01D969
:1038D000002000BD012000BD00B5FFF7B1FF01D9F8
:1038E000002000BD012000BD00B5FFF7A9FF804109
:1038F00000BD012040054A00121804D85A001218D1
:1039000001D8002070470120704700207047000058
:103910000021002805D17047C1174840401AFAD04D
:10392000C90713B5064B1B6898470CBC441CA24042
:103930001005120B0349091B09051943114310BD5A
:10394000D43700201F04000010B54C00620D802306
:10395000D218DB00D21A5B057E2A10DD9E3A13DAFC
:10396000CC170903490819435242D140640001347D
:103970001532202A05DAD0400843604310BD0020EC
:1039800010BD0846604310BDC80FC018013810BDF7
:1039900018B4044B5B6AFC46019308BD24DFA53FC5
:1039A00000100000F037002018B4044BDB6DFC461B
:1039B000019308BD5CDFB14000100000F03700202B
:1039C000C94211D300B549004908002200F018F897
:1039D000002904D4002240428A41114600BD8021C2
:1039E0000906002000BD000018B4044BDB6EFC4645
:1039F000019308BD6CDFB33F00100000F0370020DA
:103A000018B4044B9B6FFC46019308BD78DFCF3F91
:103A100000100000F037002018B4044BDB6FFC46A8
:103A2000019308BD7CDF3D4000100000F03700200E
:103A300070B513231C78012C0CD0012C13DC022C44
:103A400002DC1F4A1F4B9A641F48FFF725FC1F4BDF
:103A5000186070BD00231F2BEFD899001848194A31
:103A600088500133F7E71A48FFF71EFC0500194894
:103A7000FFF71AFC023803789B007F2B19DD8022A8
:103A80002900104800F088FC022CD8D1124B1A886B
:103A9000B5231B029A4209D1104B1A88104B9A4247
:103AA00004D1104B1A88104B9A42C8D00020FDF761
:103AB00061FF0E4B0E4A32210E48FDF7C1FEC04693
:103AC000F93A0010F03700204C330000D4370020C2
:103AD000534400005346000054380000D83800001A
:103AE000494600009C3800005946000058E5031084
:103AF00000E60310B8E5031007B56046002800D1C2
:103B000000BE01880A0A0230DF2AFAD1C9B282084F
:103B100004D3028840880004104300E00068024A91
:103B20005050039007BD0000F03700200FB403BCD5
:103B30000CBCF0B50124E407634000E0F0B50C0DC7
:103B4000CF0F661E3605891B640503D3C943404267
:103B500000D30131640D03D0661CF60A07D0E41BC4
:103B600000207F00791C89078912803C24031D0DE9
:103B7000DF0F6E1E36059B1B6D0503D3DB435242E0
:103B800000D301336D0D03D06E1CF60A07D0ED1B78
:103B900000227F007B1C9B079B12803D2D032F1B67
:103BA000661B58D4A446202E46DA20371400BC40A9
:103BB0001D00BD40F24033412A4380185941CB0FCC
:103BC00005D0C943C043002264425041514162467E
:103BD0004D0D28D10D0D07D100281FD024194041CB
:103BE0004941013A0D0DF9D0640006D3013000D3EC
:103BF0000131002C01D140084000013A0BD4941C43
:103C0000E40A04D112051144DB071944F0BDD907B9
:103C1000204B194300E0D9070020F0BD0029DDD179
:103C2000002CDBD1F0BD0132C6074008CD07284388
:103C30004908002EE1D0D9E73C2E29DA203E403752
:103C40001400BC4000D00124F24014431A00BB40D1
:103C50001C43D317ACE7AC46202F08DA203604000B
:103C6000B4400D00B540F84039412843A5E73C2F4A
:103C70000CDA203F40360400B44000D00124F84064
:103C800004430800B1400C43C117EAE710001900D3
:103C9000002494E70000F07FF0B50C0D661E360599
:103CA000891BE60A6405640D02D0651CED0A04D088
:103CB000002001210905803C2403A4461C0D671E39
:103CC0003F05DB1BE70A6405640D02D0651CED0AA5
:103CD00004D0002201231B05803C24037740644468
:103CE00097B484B296B27443070C7E43150C6F43AD
:103CF00080B26843361802D3012000043F18300414
:103D0000350C00197D41844688B29AB250430C0CA0
:103D100062431F0C7C438EB27E43921902D301266C
:103D20003604A4191604170C3618674101BC81B279
:103D30009AB25143040C62431B0C5C4380B258435B
:103D4000121802D30120000424181004130C401888
:103D500063412D185E410020474106BC88B293B2F2
:103D600058430C0C6343120C544389B251435B1803
:103D700002D301210904641819041A0C09186241BC
:103D80006D1856410020474118BCF902720D1143CD
:103D9000F0026A0D1043ED020A0D03D16D19404186
:103DA0004941013B124E9B1B7600B3420ED26D007F
:103DB00007D30130002671416646354301D14008E2
:103DC00040001B05C918E4072144F0BD0BDA01339C
:103DD00006D1013004D101314F0D01D04908F2E77D
:103DE000E1070020F0BD013631050020EBE70000BF
:103DF000FF030000F0B51C0D671E3F05DB1BE70A43
:103E00006405640D02D0661CF60A04D0002201236A
:103E10001B05803C2403D0252D060026F6432E6684
:103E20001E096E66CE0FF619B44649004F0D02D03A
:103E30007E1CF60A03D000200021403F3F033E1BBA
:103E4000B600B444013F7F05C91B49082E6F0136F7
:103E500076089C02950D25437543ED137543AD130C
:103E600001356D10F603761B0CB4CC02450D2C43C6
:103E7000A2B2B3B25A43270C7B43350C6F43A4B2B2
:103E80006C431B1902D3012424043F191C041D0C8C
:103E9000A4187D4124196D41009A91B2ACB26143DE
:103EA000170C7C432B0C5F4392B25A43A41802D3E5
:103EB00001221204BF182204230C52187B41019CDA
:103EC0006C431B19520ED9010A434401A01A81B256
:103ED000B2B2514303145A43360C734387B277434B
:103EE000D617D21900277E4136049B191704160CE9
:103EF0007F185E417316ED18F3010026803375417B
:103F0000A90F06D16400690AE8055B0A184309D2C3
:103F10002FE00422944480337541A90AA8059B0A26
:103F2000184326D3404149412404009A019B0D00C7
:103F30005543641B4343E41A95B286B27543170C8C
:103F40007E43030C5F4392B25A43B61802D3012258
:103F50001204BF183204330C52197B4152429C4167
:103F6000002C02D40022013051414008CA071043FE
:103F7000490802B06246D7079210084BD218084B86
:103F80009A4203D212058918C919F0BD0020002AEF
:103F900001DC3900F0BD01331905F5E7FD03000030
:103FA000FE070000002200B5203200F010F80800E3
:103FB00000BD002200B500F00CF8CA179A4200D1EB
:103FC00000BDD8430121C907414000BD00220B15A7
:103FD0000AD410B5944600F0A7F81414013400DA9E
:103FE0000021CB17144C2047002000217047624469
:103FF000343A0CD40C2A07DA040091409040524223
:104000002032D440214310BDD843D94310BD2032C3
:1040100007D40C469440524220321141D0402043F4
:1040200010BD0800C917203203D45242203210417B
:1040300010BD1800190010BDEF3F00104A00520DCE
:10404000144BD21A13DDFF2A1EDAD205CB0FDB0781
:104050001A43C300400F0903490A084310435B0099
:1040600001D301D0013070474308FBD2704702D022
:10407000C80FC00770470A0312130132F8D1420F6C
:10408000072AF5D1012200E0FF22C80F00028018A4
:10409000C00570478003000000210A00002104E0F1
:1040A00000210A00C11704E00022002306E0C046F8
:1040B0000022CB1758405940C01A994130B5184CCE
:1040C000A21A002903D1010010D00020203A4C157B
:1040D00012D104D2013A001849414C0DFAD3114CC7
:1040E000A24204D212058918DB07C91830BDD24399
:1040F000520D00200021F5E703D4013A0018494190
:10410000FBD50B324405C00A4D052843C90A64009B
:1041100003D0002460416141E1E7E0D34408F8E7BF
:1041200032040000FE0700000A0DCC0F531E1B05D1
:10413000C91A520503D3C943404200D30131520D7D
:1041400003D0531CDB0A07D0121B00206400611C43
:1041500089078912803A1203014BD21A7047000076
:10416000FF03000051434343C9188C46110C83B22E
:104170004B4310B4040C614392B280B2504362438B
:104180001C041B0C001910BC59411304120CC0185C
:10419000514161447047000007B5484041404840E4
:1041A00001E0C04607B54200120E03D0FF2A03D13A
:1041B000420218D8C00DC0054A00120E03D0FF2AD3
:1041C00003D14A020FD8C90DC9050122414005D4C7
:1041D000414001D5814207BD884207BD01434918CE
:1041E00001D0C043001807BD00B5FFF7DBFF01D0C9
:1041F000002000BD012000BD00B5FFF7D3FF01D9AD
:10420000002000BD012000BD01231B064200D21882
:1042100004D84A00D21801D8002070470120704706
:1042200070B513231D782A48FFF73EF80400012DCE
:1042300011D0012D09DDA31E1B789B007F2B40DDD3
:1042400080222100234800F0A7F82348FFF724F834
:10425000224B186070BD542201001E4800F09CF8EB
:104260001F4B1A881F4B9A421CD1A7239B011A8807
:104270001D4B9A4216D11D4B1A881D4B9A4211D1E3
:104280001C4B1A8894239B019A420BD11A4B1A8813
:104290001A4B9A4206D11A4B1A681A4B9A4201D10C
:1042A000152307E01848FDF765FB99001748094AF0
:1042B000885001331F2BF8D9144A064B1A62DA6171
:1042C000B7E7134B134A42211348FDF7B9FAC0462A
:1042D00053460000F03800204C330000D437002053
:1042E000EE290000C40F0000C20D0000962B000054
:1042F000C0B50000182B0000CC2A000010B500004B
:10430000FC2C000051ED8764F81604101D430010CA
:1043100014E6031090E6031048E6031007B5604664
:10432000002800D100BE01880A0A0230DF2AFAD133
:10433000C9B2820804D3028840880004104300E018
:104340000068024A5050039007BD0000F03800207A
:1043500010B504002DF036F9002804D00419034BE1
:104360009C4200D810BD0248FDF704FB0000042069
:10437000A4E6031010B52DF02FF910BD014804215B
:10438000014B184760130020B9320010014B1B6825
:104390001847000060130020014B5B6818470000BD
:1043A0006013002010B50300080011001B68984737
:1043B00010BD0000F8B507000D001600437C002B6F
:1043C00002D0002400200CE0036811002800984768
:1043D0002DE03B7C10E0022115483B689847601CAB
:1043E0000134B44214DA002CF3DD2B19013B1B78A5
:1043F0000D3B5A425341DBB22A5D0A2AF0D1002B11
:10440000EED1A042E7DA211A28183B689847E2E784
:10441000B04203DA311A28183B689847002E06DDAF
:10442000AD19013D2B780D3B5A4253413B74F8BD09
:1044300024E7031070B505000368002B16D00C4B61
:104440001C6805E0290004C92000FFF7B3FFE468F9
:10445000002C09D02368002BF9D0064B1B68002BD9
:10446000F0D0A342F3D1EDE700232B6070BDC0462E
:10447000B0370020B437002070B505000C000B6881
:10448000802B05D021684B1C23606418257170BDFA
:104490000800FFF7CFFFF5E7F0B583B007000E0087
:1044A0000092019328E0A368002B04D0310038006B
:1044B0009847002827DCE468002C06D0134B1D68C1
:1044C000002DF0D0A542F6D1EDE701200021FCF748
:1044D00061FE0099019A0E4B5B6A9A4209D80C481A
:1044E000806A88420BD29A4201D0012302E0002365
:1044F00000E00023002B04D1064B1C68DCE70123FD
:10450000F8E70120404203B0F0BDC046B4370020B8
:1045100000400540B037002010B582B0D0231B0604
:1045200000241C5701A9074839F09EF9002806D13C
:10453000019B9C4203D0034839F0CEF9012002B020
:1045400010BDC046201E002010B5024839F04CF9BD
:1045500010BDC046201E0020F0B5CE46474680B5AF
:1045600083B006000D0090461C00FFF7D5FF814682
:104570006B1C05D0002C08D0194F1A4B1C6807E0A3
:1045800030002EF0D1FE0500F4E7174FF5E7E468A0
:10459000002C17D02368002BF9D0144B1B68002B7C
:1045A00001D0A342F3D12A0031002000B84743468E
:1045B000002BECD06B46D91D0A230B700122200082
:1045C000B847E4E74B46002B07D1681E8541E8B2A7
:1045D00003B00CBC90469946F0BDFFF7B5FFF4E779
:1045E000A5430010B0370020B5430010B4370020B9
:1045F00010B5030008001100002B05D1044B1A6808
:104600005B68FFF749FF10BD01204042FBE7C04651
:1046100060DC031070B50D001400012807D10023E1
:10462000002221002800FFF797FF200070BD012025
:104630004042FBE710B5064B1C6800E0E468002C24
:1046400004D06368002BF9D09847F7E710BDC04647
:10465000B037002070B505002EF066FE0400002380
:10466000012201002800FFF777FFFFF7E3FF20009A
:1046700070BD000070B5A2B004000E00FFF74CFF43
:1046800005008422002101A8FFF780FE33002200EC
:1046900001A90848FEF7E8FD040001A8FFF7CAFEDB
:1046A000FFF7C8FF002D02D1200022B070BDFFF738
:1046B0004BFFF9E7794400100FB400B583B004A9AB
:1046C00001C90191FFF7D6FF03B008BC04B0184739
:1046D00010B5024800F004F810BDC046CC370020E9
:1046E00070B588B0040004AD0026049609220021AC
:1046F00005A8FFF74BFE00960922002101A8FFF74D
:1047000045FE4B232B700D226946280039F05CF8DA
:10471000002304E05A1D69468A5CE2540133072BEA
:10472000F8DD08B070BDF0B5D646474680B583B019
:10473000824688460620FDF737FA0700022400E08B
:104740002C00FE2C1DD801970026A51C28024246ED
:1047500000230021FFF706FD002904D1B142EFD16B
:10476000019B9842ECD980256D00012D0CD96E1E5D
:10477000210071433800FEF7E3FD404504D83500C1
:10478000F3E780256D00F0E753461C616B1E1B02AA
:10479000524612685340FF2212021340802040010B
:1047A000524610430360290061433800FEF7C8FDFC
:1047B00003B00CBC90469A46F0BD000010B5040052
:1047C000144B984222D080229202134B1A60134B52
:1047D0001A60134B9B6810009843FAD12000FFF732
:1047E000A2FF226807235340CF221A4080235B0197
:1047F00023431A602200243280239B011A430321A1
:10480000116004341C430223236010BD8022520235
:10481000DBE7C04600C0034000E0004000F000407D
:1048200000C000401EB400F09BF81EBC39F014F824
:10483000F0B5C64600B51E0003780C0082B0472BC9
:104840001ED000232C4D01932B6828009B689847AD
:10485000012700280FD1236829001B6920009846F2
:1048600001AA0123C047002830D10027380002B038
:1048700004BC9046F0BD019B01371B680193EAE739
:1048800043784E2BDDD18378552BDAD1C378432B77
:10489000D7D10379462B23D00379432BD1D1437948
:1048A0002B2BCED183792B2BCBD1C379012BC8D81D
:1048B0000FD00300203B58301D6801902B68280062
:1048C0009B68984701270028C5D0D4E7019B336037
:1048D000CCE7203800680300783B1D680190EDE7C5
:1048E00043794F2BD8D18379522BD5D1C379002B63
:1048F000D2D1024D0193A7E7BCE80310B4E803103E
:1049000010B5040000F07CF823002278203B472AF1
:1049100005D08268002A20D18360012010BD627812
:104920004E2AF6D1A278552AF3D1E278432AF0D163
:104930002279432AEDD162792B2AEAD1A2792B2A56
:10494000E7D1E279012AE4D8DA690132DA61012A91
:10495000E3D182689A618360DFE700F0B5FBC0466F
:1049600010B500F04DF88368002B2ED020229A5C01
:10497000472A04D0002282602033180010BD263A56
:104980009A5C4E2AF6D12C3A9A5C552AF2D1323AE8
:104990009A5C432AEED11F3A9A5C432AEAD11E3A26
:1049A0009A5C2B2AE6D1053A9A5C2B2AE2D1043A8A
:1049B0009A5C012ADED8DA69013ADA61002ADBD191
:1049C0009A69826000229A61D6E700F07DFBC046BA
:1049D0007047C0467047C0460048704790E80310D3
:1049E00000487047A0E8031010B50400042129F026
:1049F00051FC200010BDC0460048704784200020B4
:104A00000048704784200020F8B5DE4645465746EA
:104A10004E468B46E0B50500502825D00F20284093
:104A20000C2800D976E03C4C80002058874650780E
:104A3000147800022043947824042043D478240678
:104A40000443101D002C08D070262E40102E00D1DB
:104A500093466DB25C44002D0CDB1C603CBC904660
:104A60009946A246AB46F8BD032103328A431000A3
:104A700010C8F2E72468F0E7507814780002204369
:104A8000947824042043D47824060443100008308A
:104A9000D8E75478107824020443901CD2E7547865
:104AA00010782402044324042414901CCAE77F21B4
:104AB000904600240027894646463178701C4E46B1
:104AC0000E40BE4034434EB280460737002EF3DB23
:104AD0001F2FB7D84906B5D50126BE4076423443CC
:104AE000B2E7002188467F311700002489463E0046
:104AF000317801378A464946564631404646B140EC
:104B00000C4307218C4651464EB23800E044002E3B
:104B1000EDDB97E72BF074FC54E90310020010B5AD
:104B20000800FF2A15D070231340302B17D004D86B
:104B3000202B07D138F040FE03E0402B0BD138F09A
:104B4000ABFE10BD202B02D86023134201D02BF006
:104B500057FC0020F5E70020502BF2D0F7E738F0A3
:104B60006BFEEEE7F8B505000E0014000020002DE6
:104B700002D0280038F090FE2060771C3678FF2E97
:104B800029D160603B78781C2375FF2B33D010232C
:104B9000002500217F2623753200037801301A405A
:104BA0008A405BB215430731002BF5DB4519E56000
:104BB000002500227F2603780130637531000378D9
:104BC0000130194091405BB20D430732002BF5DBF9
:104BD00045192561F8BD29003000FFF79FFF3A0015
:104BE0000100231D3000FFF70FFF07003B78781C02
:104BF0002375FF2BCBD10023E360D9E7F0B5DE4668
:104C0000454657464E460023E0B593B0089303331C
:104C10008B4690460340012B00D19FE0022B0FD121
:104C20004146584638F0F8FD0924002800D10824F0
:104C3000200013B03CBC90469946A246AB46F0BD5E
:104C4000002B00D027E20307EAD401230CAD029326
:104C50005B460C9300230C2200214046009538F05F
:104C6000D3FD404638F040FE03900028D8D02A00FB
:104C700003994046FFF776FF41460600287DFFF77F
:104C80004DFF0BABA8600F2200939A460021002332
:104C9000404638F009FE01220B9B9343013B9946A5
:104CA0002B699E426BD27F276C7D00212000FFF78D
:104CB00035FF3200010009AB2000FFF7A5FE6C7D37
:104CC000060000212000FFF729FF320001000AAB97
:104CD0002000FFF799FE6C7D060000212000FFF701
:104CE0001DFF5346010032002000FFF78DFE002417
:104CF000002103003A001B7801301A408A405BB261
:104D0000060014430731002BF3DB099A2B68944605
:104D100063444B4519D9029BDB072AD500230024A5
:104D2000049353460D220093002100234046089D22
:104D300038F0BAFD5B460B9A9C621A62039A06240D
:104D4000DA62049A5D621A6372E70A9A94466344CF
:104D50004B4574D82B698342A6D8DCE708231A0098
:104D60000240034214D002231A4302920C910CAD6C
:104D700070E70823029A134207D000F0A5F90299C0
:104D80000A42CBD108230B42F7D1584629F0C0FB89
:104D90000CAD0C6A00230D2200214046009538F02E
:104DA00083FD0C9B9C4202D00223029350E75B469A
:104DB0000C220C93002100234046009538F024FD7E
:104DC0005B461B6B0493002BDFD05B469C6ADB6A5F
:104DD00003930BAB9A460326002C4DDB5B460B93EB
:104DE00053460022002100934046002338F00CFD7A
:104DF0005346012200210093404600230B9438F0D3
:104E000003FD53460F22002100934046002338F053
:104E10004BFD01230B9A00211340049A4046134393
:104E20000B9353460F220093002338F0EDFC072428
:104E3000022E00D0FCE65846FFF762FDF8E60B9B19
:104E4000002B00D1ECE66A68944663440493002C7E
:104E500031D1002B00D1E3E6029BDB0700D5DFE672
:104E60000226BBE7079B5446AB469846B2464D46E2
:104E7000029BDB0700D554E72A0003994046FFF761
:104E800071FE4146287DFFF749FEE343E9689B0038
:104E9000A860C9180B68002B05D0002301339A00C5
:104EA0008A58002AFAD15A46936204230326D06214
:104EB0001363516392E72B69661E9C46049B66440C
:104EC000002B00D1ACE6002E00D1CEE0029A0823E0
:104ED000110019400691134200D1CDE05A463F33EC
:104EE00013700733537007339370123BD37003333F
:104EF000137109335371033393710023D37100236A
:104F0000424605937F273300A946079200240021DB
:104F10001A0010783A0002408A400133144342B22A
:104F20001D000731002AF3DB1F2906D84022024268
:104F300003D03F3A8A4052421443002600213A00EF
:104F40001878013302408A40164342B20731002AE2
:104F5000F5DB1F2906D84023034203D03F3B8B409B
:104F60005B421E43002C10D012DC5B46002B02D0AB
:104F7000069B002B47D0E3430F9A9B009B58002BC6
:104F80002BD0002E6BD0AB19C0E701230593F8E7B7
:104F90004B46187DFF2860D007230340022B59D0D1
:104FA0002CD9032B2CD0042B75D1E20052424B4656
:104FB000DB6849469C46896853466244FFF724FDF6
:104FC0000B99002909D05B46002BDAD00022584605
:104FD00008ABFFF72DFC0028D3D0079B4D46984621
:104FE000029BDB0700D59CE6069B002B00D1F2E676
:104FF0000326002C00DBF1E600F072F8002B4AD10A
:10500000A2005242D3E7089B0F9A0B93E3439046CA
:105010009B00984443461968002938D05B465246A5
:10502000AB46A2461D004446B046160004E0616847
:105030000434002900D115E733000022280061184C
:10504000FFF7F6FB0028F2D02B00B2465D4646463D
:105050009B4696E762005242A9E70022A7E7079B1A
:105060009846059B002B00D1DAE5029BDB0700D5B3
:10507000D6E500240226B1E65B46DA795833012AE8
:1050800001D008933BE7783B1B68089337E7079B01
:105090004D469846ECE62BF0B3F929F0C9FA6CE6D8
:1050A00070B580472BF0ACF929F0C2FA2BF0A8F9C3
:1050B0000D00040029F0F6FA6B1C02D1200029F043
:1050C00037FAFFF7AFFBC046024B10B51868FFF781
:1050D000E7FFC0467813002010B58047FFF7F4FFC4
:1050E000024B10B51868FFF7F7FFC0467013002099
:1050F000014B18687047C04678130020014B1868B0
:105100007047C0467013002010B5FFF7DDFFC046A2
:1051100010B50400034B0833036029F05BF820004E
:1051200010BDC046BCE9031010B50400054B0833A0
:10513000036029F04FF820000C2129F0ABF8200083
:1051400010BDC046BCE90310F0B583B01E00089B3B
:1051500005000F00140093420AD0A868089A03685B
:1051600000921D6A220033003900A84703B0F0BD49
:10517000310000F069F80028EFD00620F6E7C046BD
:10518000F0B5C64600B50D0084B019000600904683
:105190001F0000F059F8041E18D10A9B0C9A934284
:1051A00031D00D9AB0682900036803920C9A0292DC
:1051B0000B9A01920A9A0092DC6942463B00A04792
:1051C0000400200004B004BC9046F0BD0D9B0A9A78
:1051D0001A6042461A71002D0EDB0A9B00249C4681
:1051E0000C9B65445D1B69424D4105236D421D408A
:1051F0000D9B01359D71E4E70024AB1CE1D1012337
:105200000D9A9371DDE730000B9900F01DF800282E
:10521000C7D042460D9B5A71D3E7C046F8B5070088
:105220000C0015001E0029F011F8002806D1B868FE
:105230002A00036821009F693300B847F8BDC046C3
:105240007047C0460020704710B5814211D04068B9
:1052500003782A2B0BD049680B782A3B5A425341DA
:10526000C9182DF06BF843425841C0B210BD002060
:10527000FCE70120FAE7C046F0B5DE4657464E4649
:1052800045460122E0B5DF4F00243800DE4B83B0F5
:105290001A70DE4B7C6098461B681C309D68DC4BA6
:1052A000BC603B60FC603C617C61BC619B4601F082
:1052B0001FF9D84BD84E9A463B6001235B42994672
:1052C0007B6243461B683D625D6830005B467460EC
:1052D0003360B460F46034617461B4611C3001F017
:1052E00007F9534633604B46736243463562CB4DF4
:1052F0005A4628001B682A60DB686C60AC60EC6072
:105300002C616C61AC611C30019301F0F1F8019BE0
:1053100052462B624B466B62C14B2A60994618007D
:1053200012F0D6F94B4678221C67043B9C52083297
:105330009C5004329C5004329C50DC67B94C3900BC
:105340002200143248461C605A6012F051F9B64FE0
:10535000380012F0BDF93B0000227C21083B5A5274
:1053600004315A5004315A5004315A5004315A50C1
:10537000AE4938001960143199603A6731005A60BB
:1053800012F036F9AA4E300012F0A2F9002278216C
:10539000331F5A5208315A5004315A5004315A506E
:1053A0003267B26722001432290030001C6032607C
:1053B00012F01EF99F4E300012F08AF90022782177
:1053C000331F5A5208315A5004315A501C6004316C
:1053D00014345A50300029003267B267346012F03A
:1053E00007F980229449954B92019967944B954F08
:1053F0001869596702431A614346002438001B6844
:105400007C609D68904BBC603B60FC603C617C6153
:10541000BC611C309B4601F06BF88C4B8C4E9A465D
:105420003B6001235B4299467B6243461B683D62B9
:105430005D6830005B4674603360B460F460346172
:105440007461B4611C3001F053F8534633604B462D
:10545000736243461B683562DB687E4D98462800C0
:105460005B466C602B60AC60EC602C616C61AC6185
:105470001C3001F03DF853462B6043462B624B46EF
:105480006B62754B9846180012F022F943467C2255
:105490001C675C67043B9C5404329C5004329C5053
:1054A00004329C5004329C506C4C3900220014325F
:1054B00040461C605A6012F0F5F8694F380012F04F
:1054C00007F93B0000228021083B5A5404315A500E
:1054D00004315A5004315A5004315A50614938004D
:1054E0001960143199603A6731007A675A6012F096
:1054F000D9F85D4E300012F0EBF800227C21331F0A
:105500005A5404315A5004315A5004315A5004311B
:105510005A503267726722001432290030001C6032
:10552000326012F0BFF8514E300012F0D1F8002274
:105530007C21331F5A5404315A5004315A500431DB
:105540005A501C60043114345A503000290032671C
:105550007267346012F0A6F880224549454B9201EB
:105560009967454B1869596702431A61434A1368A2
:105570000133136003B03CBC90469946A246AB464B
:10558000F0BD2D4B3E4A48465A6012F0F3F8FFF743
:1055900049F93C4B3C4A30005A6012F0EBF8FFF7F7
:1055A00041F9354B384A30005A6012F0E3F8FFF702
:1055B00039F9304B344A38009A6012F0DBF8FFF7C3
:1055C00031F92B4B304A40465A6012F0D3F8FFF7BE
:1055D00029F92E4B2A4A30005A6012F0CBF8FFF717
:1055E00021F9174B264A30005A6012F0C3F8FFF732
:1055F00019F9124B224A38009A6012F0BBF8FFF7F3
:1056000011F9C046742F00207413002008140020E4
:1056100010170410980C0410242F00204C2F002089
:1056200064330020E8150410C0310020640E04101B
:105630004C320020D832002060330020B8310020E6
:1056400048320020EC2F002050170410D80C041012
:105650009C2F0020C42F0020A43500201816041011
:10566000F4330020940E04108434002014350020FC
:10567000A0350020EC33002080340020843100204D
:10568000B40D041010350020C40D0410D4320020D5
:10569000064A10B513680400591C1160002B01D094
:1056A000200010BDFFF7E8FDFAE7C0468431002076
:1056B000104A10B513680400591E1160022B01D066
:1056C000200010BD0C481CF0D3FF0C481CF0D0FF8C
:1056D0000B481CF0CDFF0B481DF012F80A481DF0D6
:1056E0000FF80A481DF00CF8EAE728F0A1FF28F0AF
:1056F000D9FFE5E7843100206033002048320020E4
:10570000D4320020A0350020803400201035002045
:105710007047C04610B5040028F0B8FD200010BD49
:10572000044A0B6812680360934202D01A6801327F
:105730001A6070470431002010B5064C206800281C
:1057400000D010BD20000022034929F019FD206877
:10575000F7E7C0460C31002000EA0310004870470C
:1057600000EA0310416870B50500002916D083686F
:10577000002B10D00024354EA2005058002805D030
:1057800043685A1E4260012B36D0AB680134A342F5
:10579000F2D8002902D0080028F080FDE96800292D
:1057A00016D0AB68002B10D00024284EA200505811
:1057B000002805D043685A1E4260012B24D0AB68F4
:1057C0000134A342F2D8002902D0080028F066FD77
:1057D0002B690024002B0DD01859002802D028F086
:1057E0005DFD2B690434182CF6D1002B02D0180073
:1057F00028F054FD280070BD03685B68B3420BD1EC
:1058000028F044FD6968C0E703685B68B34206D1CD
:1058100028F03CFDE968D2E798476968B5E7984702
:10582000E968CCE728F004FF28F03CFF6968ACE7A2
:1058300028F0FEFE28F036FFE968C0E74B1C02D1D5
:1058400028F076FEFAE7FEF7EDFFC0461557001088
:105850000E4A0B68126870B504000D00934202D026
:105860001968013119602668B24204D03268511EAD
:105870003160012A02D02000236070BD3000FFF7A4
:1058800071FF300028F002FD2B68F4E7043100209E
:105890000A4B70B51B68056804009D4204D02B6854
:1058A0005A1E2A60012B01D0200070BD2800FFF78E
:1058B00059FF280028F0EAFCF6E7C0460431002032
:1058C000F0B54E46DE4657464546E0B583B0161E57
:1058D000009000D1E6E00C68002C04D1A84B1A68B7
:1058E000541C1C600C60009A671E9368013BBB420D
:1058F0005CD2E31C994653689B46A24B994500D85D
:10590000DCE001235B429A46504629F00DF8009BEB
:1059100080469B689C46002B0AD0009B58686346D3
:10592000990000234546C258EA5004339942F9D100
:10593000E14509D963460021A2009B000C32434493
:10594000424402C39A42FCD1009D5046EB68019349
:1059500028F0EAFFAB689C46002B09D0009BD96871
:1059600063469A000023CD58C55004339A42FAD1B9
:10597000E14509D963460021A2009B000C32C318FF
:10598000821802C39A42FCD14B46009A9360434668
:1059900053605B46D060002B02D0584628F07EFC56
:1059A000019B002B02D0180028F078FC7368BF0020
:1059B00001337360009B5B68984647443B68BA4676
:1059C0009946002B48D0704A116800293DD06C4898
:1059D000844610E057683B68002B05D16346654656
:1059E0001B6801332B603B609C4200D173E09168DF
:1059F0000832002929D00B68002B03D1036801333A
:105A000003600B609C42E5D151680C68002C04D106
:105A10005B4A13685C1C14600C60013CA4004444A5
:105A20002368002B11D030000CF0A4FE43688046A0
:105A300001334360206843685A1E4260012B6FD0D7
:105A40004346236053461B6899464B4649465B686C
:105A50005A1E4A60012B35D053461E60009B9A683F
:105A6000002A1FD0D968494B00240027984605E03A
:105A70001F60009B9A680134A24213D9A6008B19BB
:105A800018680028F7D04268551E4560012AEFD1FA
:105A900003685B6843450CD128F0F8FB009BD9688C
:105AA0008B19E5E703B03CBC90469946A246AB464D
:105AB000F0BD9847009BD9688B19D9E74B469B00EE
:105AC0009A4621E70B68314A5B684846934225D1E4
:105AD00028F0DCFBC0E70C68002C04D1284A1368CE
