:020000041000EA
:1000000000B5324B212058609868022188439860DF
:10001000D860186158612E4B002199600221596106
:100020000121F02299502B49196001219960352056
:1000300000F044F80222904214D00621196600F024
:1000400034F8196E01211966002018661A6600F04E
:100050002CF8196E196E196E052000F02FF8012189
:100060000842F9D1002199601B49196000215960AB
:100070001A491B48016001219960EB211966A021F2
:10008000196600F012F800219960164914480160C1
:100090000121996001BC002800D000471248134993
:1000A000086003C880F30888084703B5996A0420EC
:1000B0000142FBD001200142F8D103BD02B5186610
:1000C0001866FFF7F2FF186E186E02BD00000240BE
:1000D000000000180000070000035F00212200005C
:1000E000F4000018222000A00001001008ED00E03C
:1000F00000000000000000000000000074B24E7A12
:1001000000200420F7010010C3010010C5010010F9
:10011000C1010010C1010010C1010010C101001097
:10012000C1010010C1010010C1010010C701001081
:10013000C1010010C1010010C9010010CB01001065
:10014000CD010010CD010010CD010010CD01001037
:10015000CD010010CD010010CD010010CD01001027
:10016000CD010010CD010010CD010010CD01001017
:10017000CD010010CD010010CD010010CD01001007
:10018000CD010010CD010010CD010010CD010010F7
:10019000CD010010CD010010CD010010CD010010E7
:1001A000CD010010CD010010CD010010CD010010D7
:1001B000CD010010CD010010CD010010CD010010C7
:1001C00000BE00BE00BE00BE00BE00BE00F04BF888
:1001D000103800BEF2EB88711099041030990410A9
:1001E0003402001090A31AE700202149086006C8D5
:1001F00081F3088810471F48006800282FD10DA4FC
:100200000ECC002902D000F012F8F9E71A491B4A77
:10021000002000E001C19142FCD1194988471949E9
:1002200088471949884700BEFDE701C901C29A42C3
:10023000FBD3704730990410C0000020DC1D002063
:100240004CB6041000000420000004204CB604103A
:1002500000100420001004200000000070470B482C
:1002600003F0EAF90047EFF30580C0B270470000E1
:1002700008ED00E0000000D0E01D0020D43A00208E
:10028000291C0010B5090010E51B0010575600008E
:1002900006005250ABB36053C8F30310060052502F
:1002A000861C0302D8F30310060052505422A29D6C
:1002B000E8F3031005005250DE65F4684CB60410F4
:1002C000F8B5C0460448054B10B5834203D0044B33
:1002D000002B00D0984710BDDC1D0020DC1D002045
:1002E0000000000006480749091A8B10C90FC918F9
:1002F00010B5491003D0044B002B00D0984710BD17
:10030000DC1D0020DC1D00200000000010B5074CA3
:100310002378002B09D1FFF7D5FF054B002B02D026
:10032000044800E000BF0123237010BD40200020DE
:1003300000000000F8E50310054B10B5002B03D0BA
:100340000449054800E000BFFFF7CCFF10BDC046E0
:100350000000000044200020F8E5031070B5040000
:100360000D00012805D0002C02D1074B9D4207D07B
:1003700070BD054B9942F6D1044805F0F1FAF2E759
:10038000024805F0FDFAF3E7FFFF000010370020F8
:1003900010B51C00431A0298001B5843511A03F071
:1003A00077F9001910BD000010B5040004210068A1
:1003B00000F010FB21684908072319408B005A18E8
:1003C00092000948844662448020C000506007487B
:1003D00010615B189B0063441A68012191438022DD
:1003E00052011343196010BD0000054096980000AB
:1003F00070B50300081C1C68134904F094FD1349F0
:1004000004F0A7FD04F014FE80B2620807231A402E
:1004100001210D00254093009B189B000C4A944637
:10042000634421420CD010229040002D0AD0094A8A
:10043000196848401040802252011343186070BD73
:100440002A00F1E7044AF3E700409C46009618476B
:100450000C0005400000FFFFFFFF0000F0B5D6468E
:100460004F464646C0B588B080461000190002903D
:10047000039103F0B4FB04000D00109A119B1000CF
:10048000190003F0ACFB02000B002000290003F070
:100490007FFB03F0B5FC04000D00129A139B1000C3
:1004A000190003F09CFB06000F0000226E4B200099
:1004B000290003F064FB02000B0003F090FB020034
:1004C0000B003000390003F063FB03F099FC0400DB
:1004D0000D0002000B0003F082FB0A0001000691F0
:1004E0000792130002000020604903F048FB060059
:1004F0000F0000225E4B2000290003F070FB020079
:100500000B003000390003F04CFB03F0C3FD002268
:10051000584B03F064FB584A584B03F042FB06006B
:100520000F0022002B001298139903F03AFB03F0FE
:10053000B1FD00224F4B03F052FB4F4A4F4B03F0EB
:1005400030FB02000B003000390003F021FB049067
:100550000591109A119B0298039903F022FB03F076
:10056000C7FD0022434B03F03AFB434A434B03F0E1
:1005700018FB0022424B03F00BFB06000F00002289
:10058000404B0698079903F0FAFA00223E4B03F01D
:10059000F6FA00223D4B03F004FB03F07BFD002242
:1005A000344B03F01CFB344A344B03F0FAFA0400DA
:1005B0000D0043460499059A19605A601E615F61F7
:1005C0009C60DD604146029A039B8A61CB61109A70
:1005D000119B0A624B62129A139B8A62CB624B6B2D
:1005E00099468B6B9A463000390003F089FB5346DD
:1005F00000934B46B4220021FFF7CAFE04F0F6FC3C
:10060000011C434630331800FFF7F2FE43461E6CD0
:100610005F6C0498059903F073FB00973300B422D4
:100620000021FFF7B5FE04F0E1FC011C40463C3020
:10063000FFF7DEFE4346DE6C1F6D2000290003F04D
:100640005FFB00973300B4220021FFF7A1FE04F006
:10065000CDFC011C40464830FFF7CAFE08B01CBC68
:1006600090469946A246F0BD008040400030AE4022
:1006700000805BC0008066401F85EB51B81E0940BA
:100680000080464000E9BA4000A2A74000D5C1C0A2
:10069000F0B5C64600B58CB08046100019000022A7
:1006A000454B03F09CFA07000E000891434A444B67
:1006B0001298139903F093FA0022424B03F071FA57
:1006C000069007911498159903F0C6FB04000D00DD
:1006D0000022002303F0CEFA002801D100240025D7
:1006E00080231B069C4666441498159903F09EFBD4
:1006F00002000B003800310003F071FA04900591FC
:100700003A00089B2000290003F069FA00222E4BD2
:1007100003F03EFA08900991069C079D20002900ED
:1007200003F084FB06000F00049A059B03F057FAC0
:100730000022254B03F02CFA069007912000290097
:1007400003F08AFB04000D000022002303F047FAA7
:100750000A900B91049A059B2000290003F03FFAB0
:100760000022194B03F014FA049005910022002393
:100770003000390003F033FA04000D000A9A0B9B95
:100780000698079903F0FBF906000F00089A099BE9
:100790000292039322002B000498059903F0F8F9C4
:1007A0000090019132003B004046FFF757FE0CB02D
:1007B00004BC9046F0BDC0460000E03F1F85EB51F1
:1007C000B81E09400080664000004E4070B5324BB4
:1007D00014221A6331495963962212019A63132035
:1007E000D86319645A6401389864D9641A657630FC
:1007F00009241C5004301A500430195004300134BC
:100800001C5004301A5004301950043001341C506C
:1008100004301A5004301950383011341C50043050
:100820001A50043019500430063C1C5004301A5041
:10083000043019500430013C1C5004301A5004306C
:100840001950383000241C500430195004301A500C
:10085000043001341C500430195004301A50043054
:1008600007341C5004301950CE395A5000250EE080
:1008700063001B19980058236B43C0183030064B97
:10088000C018FFF791FD0134022CF1DD0135032D75
:1008900001DC0024F8E770BDE01E00202602000005
:1008A00010B584B000240CE00022084B58206043AF
:1008B000074940180292039300920193FFF7CEFD7F
:1008C0000134032CF0DD04B010BDC04600004E40E2
:1008D000E01E0020F0B5C64600B586B02D4A2E4B6E
:1008E0003000390003F04BF932003B0003F0C2F94D
:1008F00000284BD00024294D294B98460296039797
:100900000022284B0092019322002B004046FFF763
:10091000BFFE204A244B3000390003F039F90A00A9
:100920000100404658300491059202910392002242
:100930001E4B0092019322002B00FFF7A9FE4046B8
:10094000B0300499059A029103920021174A009150
:10095000019222002B00FFF79BFE40460930FF303A
:100960000296039700220F4B0092019322002B0066
:10097000FFF78EFE642000F069FD00220C4B300072
:10098000390003F0FCF806000F00A7E706B004BC2E
:100990009046F0BD1F85EB51B81E194000805140B4
:1009A000E01E0020008046C0B81E094000E0604004
:1009B0000000E03F10B5FFF709FFFFF771FFFFF7F9
:1009C00089FFFCE710B502490120FFF7C7FC10BD05
:1009D000FFFF000010B58300084A944663441C687A
:1009E00040226240C02414408022520113431C6004
:1009F000C000034B9C466044416010BD04C00140F0
:100A000000400140EFF3108072B6034B1B68002BCF
:100A1000FBD0BFF35F8F70472C0100D0BFF35F8F17
:100A2000024B00221A6080F3108870472C0100D01E
:100A3000F8B506000C001500FFF7E4FFE308F7180F
:100A4000F15C07222240012393400B4205D1DBB227
:100A50000B433B70FFF7E2FFF8BD2100280001F0D7
:100A60005FF90000034B1B6802201840431E9841A9
:100A7000C0B2704700C0064000231F2B08D8054AAB
:100A80009A189200BFF35F8F002111600133F4E7E1
:100A90007047C04640000034054A1078431CDBB262
:100AA0001370172B02D9130010221A707047C0461A
:100AB0005C12002070B505000C00080000F016FD67
:100AC000200000F01DFE0849200000F05DFDFFF74A
:100AD000E3FF064B9C466044800068602C75A400D0
:100AE000034BE55070BDC046F90D001040000034C6
:100AF0009C3800200A4B1A68EFF3108172B6136815
:100B0000002BFCD0BFF35F8F054B1B68BFF35F8FDB
:100B100000221A6081F3108840BF00200021704736
:100B2000B838002010B5002922D003681B7B9942F9
:100B30001ED8174B9C466144090183689C4661445A
:100B40000C684968002A19D003681B7B9A4215D8A3
:100B500083680F488446624412019A1810685368EB
:100B6000020001208B4201D80ED00020C0B210BD7F
:100B7000084B094A3B21094801F038F8054B064A61
:100B80003B21064801F032F8A242EFD8EDE7C0461B
:100B9000FFFFFF0F44E60310E8E803100CE6031024
:100BA00010B500291ED0037B99421BD84B005B185F
:100BB000033B0468A4466344002919D0002A1DD0D1
:100BC000914221D0002A25D0047BA24222D8046879
:100BD00050008018033820188170197800291FD11F
:100BE0001A7010BD104B114A6921114800F0FEFF28
:100BF000104B114A70310E4800F0F8FF0F4B0E4AAF
:100C000071210B4800F0F2FF0D4B0B4A722108488E
:100C100000F0ECFF044B054A6921054800F0E6FFAF
:100C200041701A70DDE7C04678E60310A8E80310AB
:100C300094E60310E0E60310B4E80310ECE60310BA
:100C4000F8E6031070B506000D001400002914D05A
:100C5000002A14D0806873689847002806D02200C4
:100C600029003000FFF79CFF280007E02A00210040
:100C70003000FFF795FF200000E0100070BD080075
:100C8000FCE70000F0B583B00500009201930AABC9
:100C90001C780BAB1F78002C26D003685A7B94423B
:100CA00007D10123002B19D1002C3BD1200003B028
:100CB000F0BD002C0CD01A7B944209D81A6863004E
:100CC0001B19033BD3189B78002BEBD00123E9E7DA
:100CD0003E4B3F4A69213F4800F088FF3E4B3F4A68
:100CE00065213F4800F082FF03689C7B002CDBD02D
:100CF00012D01A7B94420FD862001219033A196875
:100D00008C46624451789973002900D1D97300232D
:100D1000937053701370C7E72C4B2D4A69212D48EF
:100D200000F064FF002C3AD02B681B7B9C4236D825
:100D30002C4BE3181B01AA6894466344009A1A607E
:100D4000019A5A60089A9A60099ADA602E68002C13
:100D50002BD030D0337B9C422DD863001B19033B32
:100D600032689446634400229A705A701A70717BFC
:100D700022003000FFF766FF7073844200D095E7D1
:100D8000287D009A019B00F047FC061E01D0002F31
:100D900017D00C9B002B00D188E71E7086E7124B02
:100DA000124A3B210E4800F021FF114B114AA621A7
:100DB000084800F01BFF054B054A6921054800F073
:100DC00015FF2868210000F073FEE2E778E60310C3
:100DD000A8E8031094E6031010E7031020E90310BD
:100DE0000CE60310FFFFFF0F44E60310E8E80310D2
:100DF00008E60310C8E80310F0B5DE4657464E4635
:100E00004546E0B58BB00990002308938200B34BB0
:100E1000D658370052E0B24BB24A3F21B24800F0F8
:100E2000E5FEB24BB24A3B21B24800F0DFFE00299A
:100E300001D1002869D10021404600F02FFEA042D8
:100E400019D12A686B6806920793AB689846EB68DD
:100E50009A464346002B14D0002C18D03B681B7BCD
:100E60009C4214D8631EFA68D35C08931B02184393
:100E70003861002015E0A04BA04A8C219D4800F06D
:100E8000B5FE9F4B9D4A90219A4800F0AFFE974BCC
:100E90009C4A4021974800F0A9FE00239A469846B4
:100EA00000207B68BFF35F8F00221A6086F31088F2
:100EB0004346002B32D1002800D107E100F022FB8D
:100EC00002000B1EA7DB0020002106900791786826
:100ED000EFF3108672B601680029FCD0BFF35F8F74
:100EE000396888464C7B002CD7D09AD0097B8C423D
:100EF00097D8854965182D01B9688C4665442868DE
:100F00006968801A9941002991DD2A686B680998FF
:100F100000F082FB00239A469846C2E7089B1B021A
:100F20002343994651461800C04705000E007A68D1
:100F3000EFF3108B72B6136859424B41D9B2002BB4
:100F4000F9D1BFF35F8F002E26DB002E52DD3B6907
:100F5000002B53D04B4572D100F0D4FA02000B1E87
:100F600073DB0100180052197341984202D804D172
:100F7000914202D901225242D317002B6BDB002190
:100F8000049101310391029451460191414600912F
:100F90003800FFF777FE49E03B69002BD5D04B4581
:100FA0001CD1069A079B10001900521BB3419942AD
:100FB00002D804D1904202D901225242D317002B09
:100FC00012DB0021049101310391029451460191F9
:100FD000414600913800FFF755FE27E04B4B474A4A
:100FE0009F21444800F002FE3D4B3E4A3F213E48CF
:100FF00000F0FCFD002E01D1002DA8D13A68002C94
:1010000045D0537B9C422CD1012100293FD1D37B79
:10101000002B42D1D473002C52D03B681B7B9C42E6
:101020004ED8FA68013C135D0133135500233B6130
:101030007A68BFF35F8F13608BF310883EE7334B02
:101040002E4AA2212B4800F0D1FD254B254A3F21F5
:10105000254800F0CBFD224B224A3F21224800F0D8
:10106000C5FD002C0DD0137B9C420AD863001B19D0
:10107000033B1068844663449B78002BC5D0012154
:10108000C3E7234B234A6921234800F0AFFD234BDC
:10109000234AF721204800F0A9FD002B0AD0117B3C
:1010A0008B4207D85900CB18033B11688C46634428
:1010B0005C70AFE7164B174A6921174800F096FDA0
:1010C0000A4B104A40210B4800F090FD0BB03CBC8D
:1010D00090469946A246AB46F0BDC0469C380020DB
:1010E00038E7031090E8031054E7031044E60310B8
:1010F000E8E803100CE6031098E7031038E9031042
:10110000B0E70310F4E80310FFFFFF0FBCE7031084
:1011100078E60310A8E8031094E60310F8E703103C
:10112000D8E8031010B50A4B5B68002B04D00A21E5
:10113000084800F005FB10BD054C2300064A1021AD
:10114000206800F0CBFB03212000FFF7B3FCEEE7A3
:1011500060120020B8380020250B001010B5064B97
:101160005B68002B01D0044810BD044B044A5C218D
:10117000044800F03BFDC046601200201CE803104C
:1011800008E903100CE60310F0B5DE4657464E465C
:101190004546E0B58BB0804616001F00149B9A466A
:1011A000159B994616AB1B789B461F2302AA9446B3
:1011B000634400221A7032E0002809D042461268C7
:1011C000127B904204D8421E4146C9688A5C48E0BE
:1011D000434B444A4021444800F008FD0798002B47
:1011E00075D05B46002B72D04946D04704000D00F5
:1011F00003000B4300D171E0002946DB00F082F9C7
:1012000006000F1E55DB36196F41B94202D804D1D2
:10121000B04202D901267642F717002F4FDB434632
:101220005A68EFF3108472B6136859424B41D9B231
:101230000791002BF8D1BFF35F8F1F3302AA9446AA
:10124000634404930023039302934B460193534654
:10125000009332003B004046FFF714FD031EABD164
:10126000020041464968BFF35F8F00250D6084F39B
:101270001088002B29D01F2302A98C4663441B78B9
:10128000002BABD112021043A9E732003B00361B02
:10129000AF41BB4202D804D1B24202D90126764204
:1012A000F717002FBBDA114B114A3F21114800F00C
:1012B0009DFC0E4B0E4A3F210E4800F097FC0B4B55
:1012C0000B4A3F210B4800F091FC012040420BB03B
:1012D0003CBC90469946A246AB46F0BD0798F6E75F
:1012E00044E60310F4E803100CE6031038E703109B
:1012F00090E8031054E70310F0B587B006000F0024
:10130000FEF7B1FF00281FD106246442E517A41997
:101310007D41BD4202D803D1B44201D90024002549
:10132000002D14DB0494059500F0ECF802000B1E70
:1013300013DBA41A9D41002D17DC14D030003900B6
:1013400000F0ECF807B0F0BD234800F0E9FC234BB7
:10135000234A3F21234800F049FC204B204A3F21EB
:10136000204800F043FC002CE8D0FFF7F7FE0023F4
:10137000029301931C4B0093049A059BFFF704FF13
:10138000002818DADAE7002300E00023002BD5D18B
:10139000164B1A68EFF3108172B61368002BFCD05D
:1013A000BFF35F8F114B1B68BFF35F8F00221A6082
:1013B00081F3108820BF0499059A0D4B5B6A9A420D
:1013C000E3D80B48806A884203D29A42DBD00123DB
:1013D000DCE70123DAE7C04640E8031038E70310F2
:1013E00090E8031054E70310F50A0010B838002005
:1013F00000400540F8B504000D0000F083F802003D
:101400000B1E10DB20002900801859418B4202D8A6
:1014100004D1824202D901204042C117002908DBD1
:10142000FFF76AFFF8BD064B064A3F21064800F069
:10143000DDFB034B034A3F21034800F0D7FBC046C6
:1014400038E7031090E8031054E7031010B5FA22B0
:1014500092000023002103F03FFDFFF7CBFF10BDFA
:1014600070B5EFF305833F2018401038EFF3108478
:1014700072B6194B1B68002BFBD0BFF35F8F0123A3
:1014800019008140154A5163154A12781500C5406C
:101490002B4214D0114B5D6A8300124E9B599D4222
:1014A00006D38300104D5B598A430D490A7007E04B
:1014B0000A4A031D9B0099589950002300E000231D
:1014C000BFF35F8F044A0021116084F31088002B62
:1014D00000D0984770BDC046280100D000400540AC
:1014E000CF380020BC3800201837002010B501008C
:1014F000024A0348FFF79CFA10BDC04660E903109A
:10150000CD380020044B5B6A034A906A1900536A85
:101510009942F9D17047C04600400540074B5B6ACD
:101520008B4204D2054B5B6AFAE7044B5B6A8B4241
:1015300003D1024B9B6A8342F7D3704700400540BA
:1015400070B504000D00FFF7DDFF02000B00200066
:101550002900801859418B4202D804D1824202D915
:1015600001204042C117002902DBFFF7D7FF70BD01
:10157000024B034A3F21034800F038FB38E70310D1
:10158000E8E9031054E7031070B504000D00EFF311
:10159000108672B61B4B1B68002BFBD0BFF35F8F0E
:1015A000002D1CD0200000F047FD174B83420BD0CC
:1015B0001900200000F048FD0121200000F034FD5A
:1015C0000123A340114A1360A400114BE550BFF35F
:1015D0005F8F0C4B00221A6086F3108870BDA2004A
:1015E0000B4B0021D1500122A2400A490B789343B2
:1015F0000B700549200000F051FD0021200000F093
:1016000013FDE4E7280100D06114001038600540A4
:1016100018370020CF380020F0B5DE4600B584B082
:101620000400150001921E000293FFF76BFF039563
:101630008E4202D84ED185424CD9EFF3108B72B650
:10164000274B1B68002BFBD0BFF35F8F254A177811
:101650000125A540EBB23B431370234B5D63221D74
:1016600092000199D150A2002049029850501B6A63
:101670002B4212D11C4B1B6C2B4208D00020BFF315
:101680005F8F174B00221A608BF3108823E0184BF2
:10169000184AC121184800F0A9FAFFF733FF8E421B
:1016A00014D802D1039B834210D80E4B1B78BB4247
:1016B0000ED00D4B1D625D631F2004400123A3402B
:1016C0000E4A1360074B1F701E38D8E70020D6E77C
:1016D0000120D4E7012004B004BC9346F0BDC0460D
:1016E000280100D0CF38002000400540BC38002041
:1016F00084E9031000EA0310A8E9031080E200E087
:1017000010B5EFF3108472B60A4B1B68002BFBD0A8
:10171000BFF35F8F01238340074A136207490A78AA
:101720009A430A70BFF35F8F024B00221A6084F362
:10173000108810BD280100D000400540CF3800209F
:10174000024B9C46614489000160704740000034B0
:1017500010B50400FFF7A0F901002000FFF7F0FF2B
:10176000FF232371BFF35F8F10BD10B50400FFF797
:1017700093F901002000FFF7E3FFFF23237100230B
:101780006371BFF35F8F10BD10B500291ED0037BBE
:1017900099421BD84B005B18033B0468A446634482
:1017A000002919D0002A1DD0914221D0002A25D02D
:1017B000047BA24222D80468500080180338201805
:1017C0008170197800291FD11A7010BD104B114A71
:1017D0006921114800F00AFA104B114A70310E4885
:1017E00000F004FA0F4B0E4A71210B4800F0FEF98D
:1017F0000D4B0B4A7221084800F0F8F9044B054ADA
:101800006921054800F0F2F941701A70DDE7C04621
:1018100078E6031068EB031094E60310E0E603108B
:1018200074EB0310ECE60310F8E6031070B5060045
:101830000D001400002914D0002A14D080687368A9
:101840009847002806D0220029003000FFF79CFFAF
:10185000280007E02A0021003000FFF795FF200054
:1018600000E0100070BD0800FCE7000010B5002388
:10187000437301338373037BC3730123027B9A4257
:1018800014D9002B0CD0027B934209D85A00D218ED
:10189000033A01688C4662440133DBB25370EDE7D2
:1018A0000B4B0C4A69210C4800F0A0F9002A09D022
:1018B000924207D8016853009A18033A8A18002305
:1018C000537010BD024B034A6921034800F08EF9A2
:1018D00078E6031068EB031094E6031010B501736B
:1018E00042608360FFF7C2FF10BD000070B50400C6
:1018F000081E00D170BD002934D0237B994231D815
:101900004B005B18033B2268944663445A78002AD4
:10191000F0D02DD0237B9A422AD853009B18033B4A
:1019200021688C4663445D7800215970002825D0D9
:10193000237B984222D843001B18033B21688C4626
:1019400063440021597001002000FFF76FFF06007B
:1019500029002000FFF7CAFF020031002000FFF736
:1019600065FFC7E7084B094A6921094800F03EF9BD
:10197000054B064A6921064800F038F9024B034A34
:101980006921034800F032F978E6031068EB031090
:1019900094E6031070B505000C001600002928D04D
:1019A0002DD0037B99422AD84B005B18033B026879
:1019B000944663445A78002A27D19A78002A2AD17B
:1019C0001978FFF793FF0300002E03D0EA7B002A6B
:1019D00027D1EC73002B37D1002C49D02B7B9C42B4
:1019E00046D82B6861000C19033C1C190023637056
:1019F00070BD224B224A3821224800F0F7F8224BD2
:101A0000224A6921224800F0F1F8224B1C4A3A216F
:101A10001C4800F0EBF8204B194A3B21194800F014
:101A2000E5F8002A0AD0297B8A4207D851008A1893
:101A3000033A29688C4662445470CAE7124B134A31
:101A40006921134800F0D2F8002B0BD02A7B934277
:101A500008D843001B18033B2A68944663440022BD
:101A60009A70B9E7084B094A6921094800F0BEF8A5
:101A7000054B064A6921064800F0B8F8B4EA03109D
:101A800088EB0310BCEA031078E6031068EB031040
:101A900094E60310F4EA03101CEB031070B5040085
:101AA0000A00457B2900FFF775FF6073280070BDB1
:101AB00070B50400002966D0437B8B420ED000290C
:101AC00011D0037B99420ED84B005B18033B026890
:101AD000D0188378002B0CD1002055E00121FFF7AE
:101AE000DDFF012050E0294B294A6921294800F0F7
:101AF0007DF8002B1FD0227B93421CD825685A000A
:101B0000D318033BEA18EB5C8B421AD0002B1BD096
:101B1000227B934218D85A00D318033B2268D2186C
:101B200053788B4216D0002BF0D11B4B1B4A6721F8
:101B30001B4800F05BF8154B154A6921154800F069
:101B400055F84378137007E0104B114A692111488A
:101B500000F04CF8437853700023837043700122E7
:101B60002000FFF717FF0200617B814205D02000B3
:101B7000FFF75CFE6073012006E00A4B074A6D2107
:101B8000074800F033F8002070BDC04678E6031027
:101B900068EB031094E6031040EB03109CEB03107A
:101BA000BCEA031048EB031000BEFDE703000A4A3D
:101BB0001268002A08D0084A1068C318074A9A42D7
:101BC00006D3054A13607047034A05491160F2E7DE
:101BD00001204042F7E7C04698380020000004206A
:101BE000D43A002010B5FFF7DFFF000010B582B037
:101BF0000C001900002A0CD0084B002A0BD00192CF
:101C0000009323000200064803F066FC0120FFF762
:101C1000CBFF044BF1E7034AF1E7C046B4EB0310F6
:101C2000C4EB03108822041070B52B4B2B4A1A60AA
:101C30002B4B2C4A1A602C4B9A682A4B9343FAD1AF
:101C40002A4C2B4B9C4202D208CC9847F9E700F073
:101C500001F9234B274A1A60234B9B68DB43DB01C6
:101C6000FAD1254B40229A675A671A67DA66234CE5
:101C700009E0234B234A83212348FFF7B7FF2000C5
:101C8000FFF766FD0834214B9C4209D22368002BE4
:101C9000F5D0012BEDD12000FFF767FD0834F2E706
:101CA0001B4CA1681B4DC022280003F085FAA560DB
:101CB000FEF7D9FA002800D000BEFEF7DDFE00F0E6
:101CC0003BFBFFF72FFA144C144B9C4202D208CC7A
:101CD0009847F9E770BDC04600E00040BFCDFBFE6D
:101CE00000F00040FE7F3C0000C00040A81D002026
:101CF000B81D0020FFFFFF0100F00140A01D0020E3
:101D0000F4EB031068EC031014EC0310A81D002082
:101D100000ED00E000000020B81D0020DC1D0020C8
:101D20000FB400B583B0084803F0A4FB049B002B5C
:101D300007D005A90191180003F0ACFB034803F09C
:101D400099FB0120FFF730FF54EC031064EC031003
:101D5000F8B5DE4657464E464546E0B505000F004D
:101D600092461E000A9B9E424ED3330E994636027F
:101D70000A9A00233000494601F0F4FC80466C00CA
:101D80006419A4002E4B9C4664446368834200D2CD
:101D900060602B1FDBB29B46012B3BD9C0239B010C
:101DA0002343802212011A60AB00264A9958002969
:101DB00005D0506901F094FC01300138FDD1534643
:101DC0005A0123685A40E0231A4080235B012343D1
:101DD0001A605A46012A28D980239B012343802276
:101DE00012011A60434663604246002330004946B0
:101DF00001F0B8FCAD00134B585101203CBC90469B
:101E00009946A246AB46F8BD0F4B104A2D2110480B
:101E1000FFF7ECFE012FC1D1C0239B012343032216
:101E20001A60A368DB07FCD5C9E721687940032263
:101E30000A401A60A3680122BA401A42FAD0CBE7DE
:101E4000008000402838002078EC0310D0EC03100C
:101E50008CEC031030B583B00C2000F007FBFEF7CC
:101E600001FE00280DD00023092B05D899002D4A2A
:101E70002D4888500133F7E72A4B2C4A5A6203B0A9
:101E800030BD2B4B00229A6700F0F8FA294B012253
:101E90001A60274B5B6C012BFBD1274B03221A6086
:101EA000234B9B6B012BFBD1022400940533234A67
:101EB0000121234800F04EFA00940523214A012114
:101EC000214800F047FA214B009300220221042010
:101ED000FFF73EFF1E4D00952B000022012105203B
:101EE000FFF736FF104C009423000022002107204A
:101EF000FFF72EFF00942300002200210820FFF7A7
:101F000027FF0A4B00932300002200210920FFF73E
:101F10001FFF00952B00002200210620FFF718FF6D
:101F2000ADE7C04628380020006CDC021BB700007B
:101F3000008000403CB0004030B00040002F6859A5
:101F40000080024000389C1C00C00240001BB7000B
:101F500040597307074B9B68103080001950BFF33E
:101F60005F8FBFF35F8F044B0021196082F31088ED
:101F70007047C04600ED00E0240100D010B5091AFA
:101F800004394808090B05D14005400D044B18439E
:101F900080B210BD034B044A8B210448FFF726FE94
:101FA00000E0FFFFE0EC0310BCEE0310F0EC0310C8
:101FB00010B5091A04394C08090B08D14905490D17
:101FC000064A11430180064B2343438010BD054B55
:101FD000054A93210548FFF709FEC04600F0FFFFC0
:101FE00000F8FFFFE0EC0310C8EE0310F0EC031064
:101FF00001238340034A10681840431E9841C0B231
:102000007047C04600E100E0002904D0034B18608F
:10201000034B18607047034B1860FBE780E200E059
:1020200000E100E080E100E010B5012383401800EA
:10203000FFF7EAFF10BD0000024B9B6810308000E4
:10204000C058704700ED00E070B504000D00EFF3DC
:10205000108672B60C4B1B68002BFBD0BFF35F8F52
:102060002000FFF7E9FF094B984201D0A84205D1B3
:10207000320029002000FFF76DFF70BD044B054AB8
:102080006E210548FFF7B2FD240100D0CD010010FC
:102090002CED0310A0EE0310F0EC0310F0B5CE46CB
:1020A000474680B583B006000D00EFF3108872B686
:1020B000574B1B68002BFBD0BFF35F8F554B9A68C3
:1020C00034001034A300D758534B9F4207D0AF427F
:1020D00000D19BE00197514BFB1A2F2B09D94246A7
:1020E00039003000FFF736FF03B00CBC904699462C
:1020F000F0BD3000FFF77CFF814600213000FFF784
:1021000093FFBFF35F8FFEF7AEF8002801D0844243
:1021100019D10123019C9C43414923003F4A9B1A4A
:102120005B415943090D49B20022A368AB4212D06A
:102130000622A256002A0DDB53009B189B002200AA
:10214000364CE418F1E71E21364B374AFF31374849
:10215000FFF74CFD2200AB4251D106256557002DFB
:1021600039DB6B005B199A002C4B9B189A68A260B4
:10217000DA79E27106229A56A2719B795BB2002B42
:1021800010DABD200002A0806B005B199B00234A7F
:10219000D318274A11789971157049463000FFF716
:1021A00043FF9CE7201D6B005B199B001B4A9B189B
:1021B0001A1D9B88D90A1C2907D1590549150231D6
:1021C00049005118FFF7DAFEDDE71A4B1A4A992148
:1021D0001648FFF70BFD00280CD1002A08D0FF237A
:1021E0009371164B9380124B1A78A2711970D4E731
:1021F000094FF8E7201D1249FFF7DAFECDE7A921C4
:10220000104B094A49000948FFF7F0FC024F66E706
:10221000240100D000ED00E0CD0100108812002064
:10222000AAAA000040EE0310F0EE0310F0EC031039
:10223000CE38002028EE0310E0EE031000BDFFFFB3
:10224000C212002064EE0310F8B504000126064314
:102250002D4BF31A2F2B28D8FEF705F800282BD08A
:10226000EFF3108772B6294B1B68002BFBD0BFF32E
:102270005F8F274D22002449521A524155432D0D9C
:102280006DB2244B9B6880001B58B3421BD00022C8
:10229000032A32D853009B189B001B49CB189B790B
:1022A0005BB2AB421FD00132F2E778211A4B1B4AD6
:1022B000FF311B48FFF79AFCBD211A4B174A490012
:1022C0001748FFF793FC134B9B68174A1A50174B9C
:1022D0001A78A2711D70BFF35F8F0C4B00221A6039
:1022E00087F31088F8BD0800530099188900411839
:1022F000FF268E710E4A8A80E9E78C210D4B074A32
:10230000FF310748FFF772FC88120020240100D03B
:10231000AAAA000000ED00E06CEE031004EF031029
:10232000F0EC031094EE0310CD010010CE38002025
:1023300000BDFFFF40EB03100022044B02E0044904
:1023400002C30132072AFAD97047C04600E400E010
:1023500080808080F0B5CE4600B504000E00914626
:102360001F000C2001F0BCF9050043011B1A990164
:10237000C91AC90009188901484601F0B1F90200DB
:10238000103A98235B009A4233D87B1E062B36D82E
:10239000069B013B062B32D8069B9F4235D34B460A
:1023A0001A09AA4237D33F04069B1D032F43236813
:1023B000002B36DB234B9C4241D080256D01224B04
:1023C0001D60224B1D60224A92682B009343FAD174
:1023D0002660A060221DC0239B01134321221A60A6
:1023E0002268002AFCDAE76008221A6004BC9146E1
:1023F000F0BD184B184A16211848FFF7F7FB184B89
:10240000154A19211548FFF7F1FB164B124A1F21F7
:102410001248FFF7EBFB144B0F4A22210F48FFF73E
:10242000E5FB22683F231340B342C3D1A3681B05D9
:102430001B0D8342BED1E368002FBBD1D6E78025B8
:10244000AD01BCE700C0024000E0004000F00040E9
:1024500000C0004020EF0310F8EF03103CEF031022
:1024600078EF0310C4EF0310DCEF031080239B0010
:102470000343014AD362704700800540064BAA22FD
:1024800012011A602F22DA60044B054A1A60024BCF
:102490005B68002BFBDA704700400240006002409E
:1024A00000B0FA009A4200D288547047704710B5C5
:1024B000002802D00B684968984710BD0100002031
:1024C0000A681378303BDBB2092B08D883001B184D
:1024D0005B00501C08601078C0183038F0E7704777
:1024E000F0B5DE4657464E464546E0B583B09346C6
:1024F0001F000C9B9A460D9C0E9B99460F9B9B07B9
:1025000003D0B8460F00060022E00192A346884699
:102510004E46B9460700B44207D2551C4B464146C9
:102520002020B84701342A00F5E73D004F465C46BD
:10253000019B9B46B1464646B84637002E0007E051
:10254000013C551C5346185D43463900B0472A00EC
:10255000002CF5D135003E0047460F9B9B0707D462
:10256000100003B03CBC90469946A246AB46F0BD75
:10257000B0464E46B9462F005D46531BB342EFD2DC
:10258000541C4B4641462020B8472200F5E7F0B5E1
:10259000CE46474680B585B0944698460C9D0D9C26
:1025A0000EAB1B789946109A119B129EB7071BD44D
:1025B000002B08D0F70706D54F46002F02D10C3765
:1025C000374200D0013B944208D21F2C06D8302756
:1025D0002F550134F7E730272F550134F70703D57E
:1025E0009C4201D21F2CF6D9F70615D5770505D4E4
:1025F000002C03D0944224D09C4222D00F9A102A5F
:102600002BD00F9A102A30D00F9A022A35D01F2CC7
:1026100002D830222A5501341F2C05D84A46002AF8
:1026200031D02D222A55013403960293019400954E
:1026300043466246FFF754FF05B00CBC90469946EE
:10264000F0BD621E012C06D00F9F102F01D0140088
:10265000D4E7023CD2E71400D0E7B206D1D41F2C55
:10266000CFD878222A550134D1E7B206CCD51F2C19
:10267000CAD858222A550134C9E71F2CC7D860325E
:102680002A550134C3E7720703D52B222A5501349A
:10269000CAE73207C8D520222A550134C4E7F0B56D
:1026A000DE4657464E464546E0B593B081468A46DB
:1026B000089209931CAB10CB1B789B461E9D219B57
:1026C0009846002C03D1102342469A43904680231B
:1026D000DB0046461E4042461A4212D0002C22D051
:1026E00000260EE03033D9B2771C0AAB9955290089
:1026F000200000F0F5FFAC4216D31F2F14D83E0087
:1027000004002900200000F0EBFFCBB2092BE9D92F
:102710004246920605D54121C918C9B20A39C9B243
:10272000E2E76121F8E7270043460693209B0593E3
:102730001F9B049303955B46029301970AAB00939A
:10274000099B089A51464846FFF721FF13B03CBC4D
:1027500090469946A246AB46F0BDF0B5DE465746D8
:102760004E464546E0B595B0089009910A920B9304
:102770001E9E1F9C20AB1B789B46229B9946239D47
:10278000269B9A463300234303D1103352469A4383
:1027900092468023DB0057461F4052461A4219D00A
:1027A000330023432DD0002714E03033DAB27B1CF2
:1027B00098460CABDA554A462B003000210000F059
:1027C000D1FFA5421FD819D043461F2B1BD847461F
:1027D00006000C004A462B003000210000F0C2FF2A
:1027E000D3B2092BE1D95246920605D54122D2181F
:1027F000D2B20A3AD2B2DAE76122F8E7B145E3D9B8
:1028000001E00023984653460693259B0593249B9D
:1028100004934B4603935B460293434601930CABF0
:1028200000930B9B0A9A09990898FFF7B0FE15B020
:102830003CBC90469946A246AB46F0BDF0B5DE469C
:1028400057464E464546E0B591B083468A460C92BF
:1028500098461A9C08941B9D099522002B00200085
:10286000290001F022FA002800D0E5E001225242BE
:10287000D34B2000290001F013FA002800D0DBE040
:1028800001225242CF4B2000290001F0F3F9002829
:1028900000D0D1E000220023089D2800099E3100CD
:1028A00001F0E8F9002800D0DDE0089809990690C9
:1028B00007918023DB001E9A1A400D921E9A1A423D
:1028C00001D106231C930698079904000D000A0005
:1028D0000600024300D1CDE0080D4005400DBA4C82
:1028E000A44660440A03120BB84B13431F0001F0C7
:1028F000EFF9B74AB74B01F072F9B74AB74B01F09D
:1029000047F904000D000022B54B3000390001F0FA
:1029100036F9B44AB44B01F062F902000B00200012
:10292000290001F035F901F0EBF9814601F0D0F909
:1029300004000D00AD4AAE4B01F051F90022AD4B41
:1029400001F026F901F0DCF90600AB4AAB4B2000A0
:10295000290001F044F904000D00300001F0B8F93D
:10296000A74AA84B01F03BF902000B002000290008
:1029700001F005F904000D0002000B0001F02FF931
:102980000A900B91A04BF31800261F0522002B0084
:102990002000290001F0FCF80E900F9122002B007E
:1029A00000208021C90501F0EAF804000D00002292
:1029B000964B0A980B9901F0F4F80022944B01F021
:1029C000E7F802000B000A980B9901F0EAF80022E0
:1029D000904B01F0DDF802000B000A980B9901F012
:1029E000E0F802000B002000290001F0D1F80200FD
:1029F0000B000E980F9901F0D4F80022734B01F0F0
:102A0000C7F832003B0001F0EAF806000F000400AE
:102A10000D00069A079B01F043F900282CD00123F2
:102A20005B429C46E1440022794B3000390001F0C2
:102A3000B8F804000D001FE01E9B04931D9B039338
:102A40001C9B0293089A099B0092019343460C9A9F
:102A50005146584600F0F8F811B03CBC90469946F3
:102A6000A246AB46F0BD069580231B069C466644F5
:102A700007961EE7002399464B466333C62B1FD8A3
:102A800004261E9B1B0527D52B00234310D0624A2A
:102A9000624B0698079901F0FBF8002800D183E00B
:102AA00000225F4B0698079901F0E4F800287BD0DC
:102AB0001C9B4B4506DD4A46981A431E1C9303E0B7
:102AC0000526DEE700231C938023DB001E9A1A43B1
:102AD0001E920026002399461D9B9E426ED29F1B8C
:102AE00002231E9A1A400A921E9A134202D0002E06
:102AF00000D000274B46002B07D022002B00069861
:102B0000079901F04EF806900791002200230898DB
:102B1000099901F0AFF8002800D085E0414B1E9ADA
:102B20001340049303971C9B0293069B079C0093FE
:102B3000019443460C9A5146584600F085F8002E01
:102B400000D189E71E9B9B067AD54525441C434648
:102B5000020051462800D8474B46DA179B185340CD
:102B600005220592013E0496002203920A32029247
:102B70004A46D00F019000934346220051465846E2
:102B8000FFF78DFD0A9B002B00D165E702005F4631
:102B90000C9E1D9D931BAB4254D2541C4346514680
:102BA0002020B8472200F5E71C9B002B94D00D9BFA
:102BB000002B91D01C9B013B1C938DE700278FE7D6
:102BC000FFFFEF7FFFFFEFFF01FCFFFF0000F03F83
:102BD000FB799F501344D33FB3C8608B288AC63F0C
:102BE0000000F83F61436F63A787D23F71A3790963
:102BF0004F930A400000E03F1655B5BBB16B024051
:102C0000EF39FAFE422EE63FFF03000000002C40A1
:102C100000002440000018402D431CEBE2361A3F10
:102C200080842E41FFF7FFFF069C079D22002900AC
:102C300080200006844661440B00069207936DE7EE
:102C4000652583E7100007E7F0B5DE4657464E4698
:102C50004546E0B595B00690079193469946209F6A
:102C60001E9A1F9B1000190001F01FF8002831D197
:102C700001225242BF4B1E981F9900F0FBFF002813
:102C800037D101225242BC4B1E981F9901F008F81F
:102C900000283DD10022B94B1E981F9901F000F881
:102CA000002850D10022B64B1E981F9900F0E2FF79
:102CB000002848D1002200231E981F9900F0DAFF57
:102CC000002850D100239846229B5B0500D4B6E033
:102CD000002458E0229B0393219B0293032301933A
:102CE000A84B00934B465A4607990698FFF7F8FB06
:102CF0000EE1229B0393219B029304230193A24B99
:102D000000934B465A4607990698FFF7E9FBFFE008
:102D10000423229A1A4022990B4210D09B4B002A7E
:102D20000FD00422229903912199029101920093DC
:102D30004B465A4607990698FFF7D2FBE8E0944BBA
:102D4000EDE70322EEE7229B0493219B0393029776
:102D50001E9B1F9C009301944B465A460799069868
:102D6000FFF76CFDD4E01E9A1F9B0020002100F0AD
:102D700006FF1E901F9101239846A5E70CAB302259
:102D80001A55013F01341F2C01D8092FF6D81E987F
:102D90001F9900F0B5FF050000F09AFF02000B003C
:102DA0001E981F9900F0EBFEFA007A4B9B181A68E8
:102DB0005B680A920B9300F012FF0890099100F0F3
:102DC000C3FF060000F080FF02000B00089809997D
:102DD00000F0D5FE0890099100226F4B00F060FFD3
:102DE00000282ED00136300000F06EFF02000B00EC
:102DF0000A980B9900F044FF002801D00135002605
:102E0000002F2CD1280000F063FF02000B001E9859
:102E10001F9900F0B4FE06000F0000225E4B00F088
:102E200029FF002842D100225B4B3000390000F01E
:102E300037FF00283AD1EB0738D5013536E00627B1
:102E400046E70022544B0898099900F013FF002828
:102E5000D6D1002E01D0F307D2D50136D0E7AA464D
:102E60001F2C11D8013F0A21300000F039FC651CED
:102E700030310CAB19550A21300000F031FC092E1D
:102E800026D906002C00EBE7554604E00CAA3021B9
:102E900011551F0001341F2C02D87B1E002FF5D1C5
:102EA0001F2C03D80CAB2E221A5501341F2C14D81A
:102EB0000A21280000F0ECFB661C30310CAB1955E0
:102EC0000A21280000F0E4FB051E05D03400EDE7E0
:102ED0002B0055461C00DEE734000323229A1340E2
:102EE000012B1CD01F2C06D84346002B32D00CAB34
:102EF0002D221A550134229B0393219B02930194A6
:102F00000CAB00934B465A4607990698FFF7E8FA30
:102F100015B03CBC90469946A246AB46F0BD219BFD
:102F2000002B13D04346002B02D10C3313420FD099
:102F3000219B013B2193190003E00CAB30221A5571
:102F400001348C42CED21F2CF7D9CBE72199F8E778
:102F50002199F6E7229B5B0704D50CAB2B221A556F
:102F60000134C8E7229B1B07C5D50CAB20221A559C
:102F70000134C0E7FFFFEFFFFFFFEF7F65CDCD41DD
:102F800065CDCDC110F0031014F0031008F003104C
:102F900004F0031000F203100000E03FF0B5DE463D
:102FA00057464E464546E0B593B082468B4690461E
:102FB0001193002900D1ECE200275546119B1878A7
:102FC000002800D1E8E2252809D07C1C43463A00BD
:102FD0005946A847119B013311932700EEE70133AF
:102FE000119300241DE00B00303BDBB2092B37D9D5
:102FF0002A293AD000230A93119B1A782E2A44D00A
:1030000000239A46119A1378683BD9B2122900D945
:1030100080E08B00CB49CB589F4601231C430132F3
:103020001192119A11780B00203BD8B21028DAD8EF
:103030008300C548C3589F4602231C4301321192A6
:10304000EFE704231C4301321192EAE708231C43F3
:1030500001321192E5E710231C4301321192E0E79F
:1030600011A8FFF72BFA0A90C6E71C9B1A1D1C92A9
:103070001868002804DB0A90119B01331193BBE709
:1030800002231C4343420A93F6E78022D2001443F2
:103090005A1C11925A781300303BDBB2092B04D929
:1030A0002A2A07D000239A46ACE711A8FFF706FAB0
:1030B0008246A7E71C9B1A1D1C921868002804DB97
:1030C0008246119B013311939CE70020F8E780238F
:1030D0005B002343511C119152786C2A01D01C00D3
:1030E00018E0C0239B001C430131119112E08023A2
:1030F0002343511C11915278682A01D01C0009E029
:10310000C0231C430131119104E080235B001C4368
:1031100001321192119B18780300253BDAB2532A31
:1031200000D92CE29300894AD3589F4680239B0004
:103130001C4301321192EDE780235B001C430132F6
:103140001192E7E7782809D0582838D06F2838D06E
:10315000622838D010239C430A2600E01026582805
:1031600033D0692803D0642801D00C22944363052E
:1031700001D50122944369282AD0642828D0A305C8
:1031800000D59FE0E30500D5B8E0630600D4CAE0AF
:103190001C9A111D1C911168FF220A4005940A9B7C
:1031A00004935346039302960023019300924346EF
:1031B0003A0059462800FFF772FA070027E0102668
:1031C000CDE70826CBE70226C9E720221443C8E74B
:1031D000A30520D4E30550D4630666D51C9A111DBF
:1031E0001C911168FF220A40D317D1185940059449
:1031F0000A9B0493534603930296D20F01920091C7
:1032000043463A0059462800FFF749FA0700119B48
:1032100001331193D2E61C9BDA1D07218A4311006A
:1032200008311C91116853689C46DB170C930D9371
:103230000C9A0D9B100048400E90624653400F932D
:103240000E980F990C9A0D9B801A99410E900F9130
:1032500008940A9B0793534606930496002305930C
:103260006346DA0F02920090019143463A005946B4
:103270002800FFF772FA0700C9E71C9A111D1C917C
:103280001268D317D118594005940A9B04935346EA
:1032900003930296D20F0192009143463A00594699
:1032A0002800FFF7FCF90700B1E7230605D51C9AB3
:1032B000111D1C910023D25E96E71C9A111D1C91D2
:1032C000126891E71C9BDA1D07218A43110008311F
:1032D0001C9108940A9B0793534606930496002377
:1032E00005930293136854680093019443463A008F
:1032F00059462800FFF731FA070088E71C9A111D8C
:103300001C9105940A9B0493534603930296002351
:1033100001931368009343463A0059462800FFF78B
:10332000BEF9070073E7230606D51C9A111D1C91F0
:1033300012681204120C31E71C9A111D1C911268BC
:103340002CE7C0461CF0031068F00310ACF003102B
:1033500046281AD01C9B0733072293431A000832D1
:103360001C9204940A9A0392524602925C681B686B
:103370000093019443463A0059462800FFF764FC45
:103380000700119B0133119318E620231C43E1E74A
:10339000672801D0472802D180231B011C43452800
:1033A00001D0472801D120231C431C9B073307224F
:1033B00093431A0008321C9204940A9A03925246CC
:1033C00002925C681B680093019443463A00594698
:1033D0002800FFF733FA0700119B01331193EDE545
:1033E00002231A002240924623421FD001241C9B34
:1033F0001A1D1C927A1C9146187843463A00594689
:10340000A8475346002B16D1119B013311934F4609
:10341000D4E5561C434659462020B84723003200C5
:103420005C1C9D42F5D83D001700E0E701233A00FF
:103430002F000A9DF4E74A46A9460A9D06E0571C5C
:10344000434659462020C84734003A00661CA5422E
:10345000F5D84D469146D7E71C9B1A1D1C921B6858
:1034600099465346002B00D1013B4E4601E0013600
:1034700013003278002A02D05A1E002BF7D14B4697
:10348000F21A10928023DB0026001E401C4203D05B
:10349000524501D95346109302231A0022400B9241
:1034A000234205D03A0037004C46A946554620E055
:1034B0003A00109B5F46B3462E0006E0551C43467B
:1034C00039002020B04723002A005C1C0A99994249
:1034D000F4D835005E46BB46109437004C46A946EA
:1034E000554606E01D000134561C43465946C84760
:1034F00032002078002804D0002FF4D06B1E002D5D
:10350000F0D117004D460B9B002B03D1119B0133CB
:10351000119353E50A9F109B06E0561C43465946FB
:103520002020A847230032005C1C9F42F5D81700DA
:10353000ECE721231C431C9B1A1D1C921B68009363
:103540000594082304935346039310230293002306
:10355000019343463A0059462800FFF7A0F80700B8
:10356000119B0133119329E57C1C43463A005946CF
:103570002520A847119B0133119327001EE57C1CD1
:1035800043463A005946A847119B0133119327003F
:1035900014E50B4B9A460FE5AA4647450DD3434623
:1035A0005A1E434659460020D047380013B03CBC51
:1035B00090469946A246AB46F0BD3A00F1E7C046B8
:1035C000AD2400100EB410B585B0010007AC08CCD6
:1035D00003940122009452420348FFF7DFFC05B038
:1035E00010BC08BC03B01847A524001000B583B078
:1035F000009313000A0001000248FFF7CFFC03B05C
:1036000000BDC046A524001000B585B0029003910E
:103610000121009313004A4202A90248FFF7BEFCB1
:1036200005B000BDAF24001001480421014B18472C
:10363000D01200205936001010B5010018231B8845
:1036400014221088984710BD10B5010018231B885C
:1036500016221088984710BDF0B5C64600B5070081
:103660000E0000250123984600E00135B5420AD23C
:10367000AC003C192068FFF7DFFF20600028F4D180
:1036800000239846F1E7404604BC9046F0BD000098
:10369000124A936F9B0815D29066D166002905D017
:1036A000FFE7FFE7FFE7516F106F704704B5802118
:1036B0000906C2175140002800D0C8433AF04CFF19
:1036C000002104BDF0B5146E556E576F166FFFF7ED
:1036D000E3FF1466556657671667F0BD000000D01B
:1036E000114A936F9B0813D210665166002905D0CA
:1036F000FFE7FFE7FFE7516F106F704704B5002841
:1037000001D00020C0433AF027FF002104BDC0468D
:10371000F0B5146E556E576F166FFFF7E5FF146620
:10372000556657671667F0BD000000D094464E4AB4
:10373000926F9208624601D230E0C046F0B54A4E20
:10374000B56F6D08FCD3346E756E776F366F00F011
:1037500025F89446444A14665566576716676246CC
:10376000F0BDC0469446404A926F9208624601D22C
:1037700058E0C046F0B53C4EB56F6D08FCD3346ED2
:10378000756E776F366F00F04DF89446364A1466C2
:103790005566576716676246F0BDC046002B24DBAE
:1037A00011D000293EDA00B5C943404200D10131B1
:1037B00000F038F8C943404200D10131DB435242A6
:1037C00000D1013300BD002AEBD1002801D100292E
:1037D00005D00020C90FC90701D1C043410800B579
:1037E0003AF092FE0022002300BD00B500290ADB5A
:1037F000DB43524200D1013300F014F8C943404288
:1038000000D1013100BDC943404200D10131DB4349
:10381000524200D1013300F005F8DB43524200D19F
:10382000013300BD002923D1002B18D1002A0CD070
:10383000BC460D4F38667A6600210023FFE7FFE79C
:10384000FFE77A6F386F67467047002801D0074856
:10385000010000B53AF058FE0022002300BD02002E
:103860000B00002000217047000000D0FFFFFFFF89
:10387000002B00D0BFE0130C28D1002AE7D080B481
:10388000114F39667A66FFE7FFE730B4040C7B6FAF
:10389000396F1B0423433B667A66FFE7FFE7FFE7C8
:1038A000C04684B27B6F3D6F1B0423433B667A6640
:1038B000FFE7FFE7C04600232C042D0C7A6F386F1A
:1038C00000196941B0BC7047000000D0F0B59446C3
:1038D0000025140E01D112020835140F01D1120176
:1038E0000435940F01D192000235D40F01D152005A
:1038F0000135D40B0134254F7C66254C3C660E0CFB
:1039000093B2FFE7FFE7FFE73C6F6643360C7703B0
:10391000BE467343DF0B5B04C01AB941130C7343FB
:10392000DB18C91ACE086643360CB64493B273430B
:103930001F0F1B01C01AB941130C73431F0B1B054A
:10394000C01AB941860D8F023E436643360C092DDD
:1039500024DB520A7243801A7703460A6643360C08
:1039600016235B1BDE40DF40BF1964466643821BA3
:103970007046043506330100D940A840C01900D371
:103980000131A24206D20023F0BD0000000000D0A9
:10399000FFFFFFFF121B0130F3D3F1E709277F1B65
:1039A000FE406446A2B27243801A00D20139220C52
:1039B0007243130C1204821A99410B0070460435AD
:1039C00013370100F940A840801900D30131002BC2
:1039D00002D1A2420AD2F0BD013000D30131121B44
:1039E000FAD2013BF8D1A24200D2F0BD013000D39F
:1039F0000131121BF7E7F0B51C0C00D080E00CB4CD
:103A000000251C0A04D11B02160E3343120208358E
:103A10001C0B04D11B01160F3343120104359C0B00
:103A200004D19B00960F334392000235DC0B02D188
:103A300092185B4101351C00971864410134464FD0
:103A40007C66464C3C660E0CFFE7FFE7FFE7C0468E
:103A50003C6F6643360C7703BE4697B27743C01B74
:103A600000D20139C01B00D201399FB27743C91B74
:103A7000C91B170C77437E04FF0B801BB941CE088E
:103A80006643360C0C2D33DBB644120B1F053A434C
:103A90001B0B97B27743C01B00D201399FB277430B
:103AA000C91B170C77433E043F0C801BB941860DA0
:103AB0008F023E43664329277F1BFE400C3D77461D
:103AC000AF40BF1930BCA2B2ABB272437343801A8D
:103AD0009941220C7243130C1204801A994102007E
:103AE0000B000137001BA941F9D2781E0021F0BD5F
:103AF0000C277F1BFE4077467F0BAF40FF19E0E7A6
:103B000000245D1C07D0144F7D663966FFE7FFE790
:103B1000FFE7FFE73C6F95B29EB265436643401BEB
:103B2000B141150C1E0C6543664336042F0C3E4311
:103B30002D04401BB141994204D202000B00200029
:103B40000021F0BD01D19042F7D3801A9941013490
:103B50009942F2D3F6E70000000000D0FFFFFFFF1C
:103B600044464D4656465F46F0B47047F0BCA0460A
:103B7000A946B246BB46704748404140484018B449
:103B80001B4B5B68FC46019308BD04DFE742001055
:103B900018B4174B1B68FC46019308BD00DFF142C7
:103BA00000109446134A926F920809D2624618B4E4
:103BB0000F4BDB68FC46019308BD0CDFA9450010E4
:103BC0000C4AF0B5146E556E576F166F6246FFF7CC
:103BD000EEFF084A1466556657671667F0BD18B4BD
:103BE000034B9B68FC46019308BD08DF4D44001061
:103BF000D0380020000000D0FFB550404240504077
:103C000059404B40594000E0FFB5154F4C00640D42
:103C100003D0BC4204D10C0314D80020090D0905BF
:103C20005C00640D03D0BC4204D11C030AD80022FE
:103C30001B0D1B0501264B4009D44B4003D58B427D
:103C400000D18242FFBD9942FCD19042FFBD0B439F
:103C5000DB1803431343F5D0C9434918FFBD0000E7
:103C6000FF07000000B5FFF7CFFF01D0002000BD27
:103C7000012000BD00B5FFF7C7FF804100BDC04671
:103C800000B5FFF7C1FF01D9002000BD012000BD34
:103C900000B5FFF7B1FF01D9002000BD012000BD34
:103CA00000B5FFF7A9FF804100BD012040054A0093
:103CB000121804D85A00121801D8002070470120A9
:103CC00070470020704700000021002805D1704790
:103CD000C1174840401AFAD0C90713B5064B1B68F4
:103CE00098470CBC441CA2401005120B0349091B49
:103CF00009051943114310BDB43800201F0400000A
:103D000010B54C00620D8023D218DB00D21A5B057F
:103D10007E2A10DD9E3A13DACC17090349081943AD
:103D20005242D140640001341532202A05DAD040D5
:103D30000843604310BD002010BD0846604310BD1D
:103D4000C80FC018013810BD18B4044B5B6AFC469C
:103D5000019308BD24DF854900100000D038002001
:103D600018B4044B1B6EFC46019308BD60DF934AF8
:103D700000100000D038002018B4044BDB6DFC4666
:103D8000019308BD5CDF914A00100000D03800208C
:103D9000C94211D300B549004908002200F018F8C3
:103DA000002904D4002240428A41114600BD8021EE
:103DB0000906002000BD000018B4044BDB6EFC4671
:103DC000019308BD6CDF934900100000D03800203B
:103DD00018B4044B9B6FFC46019308BD78DFAF49D4
:103DE00000100000D038002018B4044BDB6FFC46F4
:103DF000019308BD7CDF1D4A00100000D038002070
:103E000018B4044B9B69FC46019308BD18DF754745
:103E100000100000D0380020024A034B00B500F02B
:103E20003DFA00BD182D4454FB2119408A0002D3ED
:103E3000920D092A08DA18B4064BDB6BFC46019395
:103E400008BD3CDFC74B001000B5FFF7E5FF04BC21
:103E50009646F0E7D03800208A0002D3920D092A56
:103E600008DA18B4064B1B6CFC46019308BD40DF12
:103E7000D74B001000B5FFF7CFFF04BC9646F0E724
:103E8000D038002018B4044B9B6DFC46019308BD4C
:103E900058DFC54C00100000D038002070B5132347
:103EA0001C78012C0CD0012C13DC022C02DC1F4AE4
:103EB0001F4B9A641F48FFF7BFFB1F4B186070BD74
:103EC00000231F2BEFD899001848194A8850013356
:103ED000F7E71A48FFF7B8FB05001948FFF7B4FBEE
:103EE000023803789B007F2B19DD802229001048BF
:103EF00001F062F9022CD8D1124B1A88B5231B02AB
:103F00009A4209D1104B1A88104B9A4204D1104B97
:103F10001A88104B9A42C8D00020FDF701FF0E4BC3
:103F20000E4A32210E48FDF761FEC046AD42001038
:103F3000D03800204C330000B43800205344000037
:103F40005346000054380000D838000049460000AD
:103F50009C3800005946000050F20310F8F203109C
:103F6000B0F20310F0B5DE4657464E464546E0B582
:103F700085B004000D00009201930E9B9A46002B21
:103F800009DD019B191101204042FFF7A9FB0390B5
:103F900000239B462CE000230393F9E70C2399466A
:103FA000AB11039A53431D224946521A1341013360
:103FB0005B109846202252428B1821D422009A404E
:103FC000170023004A4693401E004346D917009A23
:103FD000019B404600F080FF34003D00241A8D41D3
:103FE0005B464A46934043449B4653469B1A9A4637
:103FF0005346002B0EDD53460C2BCFDCD146CFE7CA
:1040000020235B1A2200DA4013002A008A4017009E
:104010001F43D6E7009A019BAB4209DC01D1A242C3
:1040200006D8009A019BA41A9D4101239C46E344B3
:10403000009A019BAB4209DC01D1A24206D8009A4A
:10404000019BA41A9D4101239C46E344002D0FDBF4
:10405000002D16DB0F9B002B01D05A461A60200062
:10406000290005B03CBC90469946A246AB46F0BD3F
:10407000009A019BA4185D4101235B429C46E344E6
:10408000E6E7009A019BA4185D4101235B429C4630
:10409000E344DFE7F8B504000D0002000B00002048
:1040A0001149FFF76CFD06000F0000220E4B2000A7
:1040B0002900FFF76DFD02000B0030003900FFF70B
:1040C0008EFD06000A000B0D5B0501D0002908DB00
:1040D00030001100FFF794FE22002B00FFF7D2FE04
:1040E000F8BD00200149FBE70000F03F0000F07F31
:1040F00070B50B0D084A934207D0084A934207D087
:104100000022074BFFF7BEFE70BD06480649FBE7DD
:1041100004480649F8E7C046FF070000FF0F00000B
:104120000000F03F182D4454FB21F93FFB21F9BF5B
:10413000F0B5CE4600B588B005900E0011001F0006
:1041400002000491F30F9C46330D5B055B0D3503B4
:104150002D0B80246403100025432900FA0F91469B
:104160003A0D5205550D3A03120B049F0297144362
:1041700003940E9A002A02D000220E9C2260444A28
:10418000934273D0002D74D0002B00D179E095427A
:1041900000D179E06A1E9A4200DD77E041D06246A4
:1041A000002A04D006000F0000217042B94107AA7E
:1041B00001925B1B0093029A039BFFF7D3FE06005C
:1041C0000F0003000C009B197C4122000298039908
:1041D0008C420BDC01D1834208D802998B420CD16E
:1041E000039B9A4209D1079BDB0706D5029B039CE0
:1041F000F61AA741079B013307934B46002B02D0C9
:10420000079B5B4207930E9B002B01D0079A1A6015
:10421000204A521B30003900FFF7A2FD05000E00B6
:1042200029E0039B99420EDD6346002B13D1029EC9
:10423000039FB6197F41801BB94106000F0001336F
:1042400007931500D9E7029B039CA14201D1984234
:10425000EAD8059D0FE0029E039FB6197F41361AEA
:104260008F4101235B4207931500C6E700250A4EE4
:1042700001E00025084E2800310008B004BC91463A
:10428000F0BD00250026F6E7059DF4E7059DF2E761
:10429000FF070000330400000000F07F10B582B07B
:1042A00000240094FFF744FF02B010BD07B560463C
:1042B000002800D100BE01880A0A0230DF2AFAD1A4
:1042C000C9B2820804D3028840880004104300E089
:1042D0000068024A5050039007BD0000D03800200B
:1042E0000FB403BC0CBCF0B50124E407634000E04C
:1042F000F0B50C0DCF0F661E3605891B640503D380
:10430000C943404200D30131640D03D0661CF60A54
:1043100007D0E41B00207F00791C89078912803CAC
:1043200024031D0DDF0F6E1E36059B1B6D0503D389
:10433000DB43524200D301336D0D03D06E1CF60AED
:1043400007D0ED1B00227F007B1C9B079B12803D4A
:104350002D032F1B661B58D4A446202E46DA203787
:104360001400BC401D00BD40F24033412A43801878
:104370005941CB0F05D0C943C0430022644250418C
:10438000514162464D0D28D10D0D07D100281FD097
:10439000241940414941013A0D0DF9D0640006D37A
:1043A000013000D30131002C01D140084000013A16
:1043B0000BD4941CE40A04D112051144DB07194400
:1043C000F0BDD907204B194300E0D9070020F0BD0C
:1043D0000029DDD1002CDBD1F0BD0132C607400839
:1043E000CD0728434908002EE1D0D9E73C2E29DA31
:1043F000203E40371400BC4000D00124F24014435A
:104400001A00BB401C43D317ACE7AC46202F08DA98
:1044100020360400B4400D00B540F840394128432F
:10442000A5E73C2F0CDA203F40360400B44000D012
:104430000124F84004430800B1400C43C117EAE7E7
:1044400010001900002494E70000F07FF0B50C0D77
:10445000661E3605891BE60A6405640D02D0651CDC
:10446000ED0A04D0002001210905803C2403A44664
:104470001C0D671E3F05DB1BE70A6405640D02D0B7
:10448000651CED0A04D0002201231B05803C240397
:104490007740644497B484B296B27443070C7E4369
:1044A000150C6F4380B26843361802D30120000414
:1044B0003F183004350C00197D41844688B29AB209
:1044C00050430C0C62431F0C7C438EB27E43921906
:1044D00002D301263604A4191604170C36186741B6
:1044E00001BC81B29AB25143040C62431B0C5C4381
:1044F00080B25843121802D301200004241810047B
:10450000130C401863412D185E410020474106BC42
:1045100088B293B258430C0C6343120C544389B2D3
:1045200051435B1802D301210904641819041A0CC1
:10453000091862416D1856410020474118BCF90224
:10454000720D1143F0026A0D1043ED020A0D03D102
:104550006D1940414941013B124E9B1B7600B3420D
:104560000ED26D0007D301300026714166463543F7
:1045700001D1400840001B05C918E4072144F0BDE3
:104580000BDA013306D1013004D101314F0D01D0D6
:104590004908F2E7E1070020F0BD013631050020AF
:1045A000EBE70000FF030000F0B51C0D671E3F05A0
:1045B000DB1BE70A6405640D02D0661CF60A04D012
:1045C000002201231B05803C2403D0252D06002654
:1045D000F6432E661E096E66CE0FF619B4464900E4
:1045E0004F0D02D07E1CF60A03D000200021403F70
:1045F0003F033E1BB600B444013F7F05C91B490879
:104600002E6F013676089C02950D25437543ED13F8
:104610007543AD1301356D10F603761B0CB4CC0257
:10462000450D2C43A2B2B3B25A43270C7B43350C41
:104630006F43A4B26C431B1902D3012424043F1915
:104640001C041D0CA4187D4124196D41009A91B2DF
:10465000ACB26143170C7C432B0C5F4392B25A43BC
:10466000A41802D301221204BF182204230C5218EA
:104670007B41019C6C431B19520ED9010A43440132
:10468000A01A81B2B2B2514303145A43360C734399
:1046900087B27743D617D21900277E4136049B197B
:1046A0001704160C7F185E417316ED18F3010026EF
:1046B00080337541A90F06D16400690AE8055B0AD9
:1046C000184309D22FE00422944480337541A90A8B
:1046D000A8059B0A184326D3404149412404009A67
:1046E000019B0D005543641B4343E41A95B286B207
:1046F0007543170C7E43030C5F4392B25A43B618BE
:1047000002D301221204BF183204330C52197B4128
:1047100052429C41002C02D40022013051414008F9
:10472000CA071043490802B06246D7079210084BE7
:10473000D218084B9A4203D212058918C919F0BD44
:104740000020002A01DC3900F0BD01331905F5E72E
:10475000FD030000FE07000007DA002107E0C90F93
:10476000C907520D03D0C91201E04C4909050020C8
:104770007047C0464A00F2D2520D013A484B9A4265
:10478000EAD2F0B51405091B520801D300184941BB
:104790009B08D2181205944640A44A0CA25C0B094F
:1047A000534353431B1353435B131202D21A130098
:1047B0005B435B0B4C086343DB135343DB15013353
:1047C0005B10D21A130CD21A13005B438902840DBA
:1047D00021438DB29EB275430F0C7E431B0C5F4389
:1047E0008CB25C43361902D3012424043F193404EB
:1047F000330C64197B419D01A40E2C432034A5B2D7
:104800005543241454432D0C6419A411D203121BD4
:1048100095B28EB27543170C7E430C0C674393B26E
:104820006343F61802D301231B04FF183304340C2E
:104830005B197C41DB186441DB18002363419EB2A5
:1048400076439DB21F0C7D437F436C04ED0BA4198E
:104850007D4106028F08361BAF417D07F6086E4189
:10486000B4B295B26C4337147D43120C5743B6B2C1
:104870005643EA17AD19002672411204BF182E04E0
:104880002A0C36197A410832521117D29D0A9C051A
:10489000D117101969416144F0BD0000FF07000005
:1048A000FE070000F8EBDFD6CDC5BEB8B2ADA8A4B8
:1048B000A09C9995928F8D8A8885838152415D0A4B
:1048C000DC05D11714194D412B006343A6B2764382
:1048D000A2B2270C7A437F435104D20B89197A4143
:1048E000D218D21880054942904102D400230134E5
:1048F0005D4160086908ED0728436144F0BDC0468A
:10490000624618CA94465A46002A20DB04E06246F2
:1049100018CA944600291ADAC01861415B463B4127
:104920005C46B4405246FA40224344464D466241FA
:104930006B41904699462B46B3403D41FC401C4399
:1049400052465B46A241AB4192469B467047C01A15
:10495000A1414B463B414C46B4404246FA402243BB
:1049600054465D4662416B4192469B462B46B3409E
:104970003D41FC401C4342464B46A241AB41904660
:1049800099467047002200B5203200F010F8080068
:1049900000BD002200B500F00CF8CA179A4200D101
:1049A00000BDD8430121C907414000BD00220B15BD
:1049B0000AD410B5944600F0A7F81414013400DAB4
:1049C0000021CB17144C204700200021704762447F
:1049D000343A0CD40C2A07DA040091409040524239
:1049E0002032D440214310BDD843D94310BD2032DA
:1049F00007D40C469440524220321141D04020430B
:104A000010BD0800C917203203D452422032104191
:104A100010BD1800190010BDCF4900104A00520DFA
:104A2000144BD21A13DDFF2A1EDAD205CB0FDB0797
:104A30001A43C300400F0903490A084310435B00AF
:104A400001D301D0013070474308FBD2704702D038
:104A5000C80FC00770470A0312130132F8D1420F82
:104A6000072AF5D1012200E0FF22C80F00028018BA
:104A7000C00570478003000000210A00002104E007
:104A800000210A00C11704E00022002306E0C0460E
:104A90000022CB1758405940C01A994130B5184CE4
:104AA000A21A002903D1010010D00020203A4C1591
:104AB00012D104D2013A001849414C0DFAD3114CDD
:104AC000A24204D212058918DB07C91830BDD243AF
:104AD000520D00200021F5E703D4013A00184941A6
:104AE000FBD50B324405C00A4D052843C90A6400B2
:104AF00003D0002460416141E1E7E0D34408F8E7D6
:104B000032040000FE0700000A0DCC0F531E1B05E7
:104B1000C91A520503D3C943404200D30131520D93
:104B200003D0531CDB0A07D0121B00206400611C59
:104B300089078912803A1203014BD21A704700008C
:104B4000FF030000023225D40C2A1CDA1125AD1A0D
:104B50000B002B41083207350600EE409040914093
:104B60003143F0CC63431A1500235A415543564351
:104B70005743BF02F412760576196741ED177F1986
:104B8000801BB94170470C220020C9174900013130
:104B90000905DBE70902030E1943000253422032E4
:104BA00008D40C0019419440D840204300225041C1
:104BB000514170470800C917203B2032F1D5002031
:104BC000002100227047F0B5FEF7CAFF00F00EF892
:104BD00000F030F806E0F0B5FEF7C2FF00F006F88E
:104BE00000F046F8FEF7C2FFF0BD000000B5FFF789
:104BF0008BFF30A4FFF7A6FF00242C4D2C4ED207CC
:104C000002D3F6436D426641520004D2A246A34647
:104C1000A846B14603E0A046A146AA46B3466EA404
:104C2000A44601271F26FFF772FE0137013E212F00
:104C3000F9D100BD594684B28DB26C430614754358
:104C40000B145E4382B25A43AD18EA1700D7D24321
:104C50001204B6182A042B0C121973414046494617
:104C60009D009B17920F2A43904199413E2210E7E5
:104C7000494684B28DB26C43061475430B145E43EF
:104C800082B25A43AD18EA1700D7D2431204B618BD
:104C90002A042B0C12197341504659469D009B174C
:104CA000920F2A43504159413E22F2E6BB4DF09DFE
:104CB000C556F6367D5100001A61140085880A0039
:104CC000FB211900F0B5FEF74BFF404D0C002C40C6
:104CD00001D0AC4202D1090D090500201C002C4076
:104CE00001D0AC4202D11B0D1B0500220026ED02B3
:104CF000002B04D502266B40694000D476424F1940
:104D000004D599420CDD0136694003E0BB4207DA65
:104D1000013E6B40070010003A000F0019003B00F5
:104D200040B4002A0FD1002B0AD05C006415013476
:104D300009D14C006415013402D10139013B02E074
:104D4000002000212EE0FFF72FFC3E22FFF722FE7D
:104D500082468B4600200021804601229207914620
:104D60001DA4A44601271F26FFF7CAFD0137013EF7
:104D7000212FF9D14A4653460C3A012464070027F3
:104D800052081B0005D49341001979416408F7D1FA
:104D900004E05341001BB9416408F1D1CE0749102A
:104DA0004008304340BC002E0AD0094C094D01D5C3
:104DB000E443ED43F60701D1001969410019694147
:104DC0003D22FFF766FEFEF7D1FEF0BD0000F07F4A
:104DD0008D305A88A8F64332694FBB610567AC1D18
:104DE000B16E4096FCBAAD0F72DB0BABA66EF50749
:104DF00039BD9FE576ABFE034B6297BA5BD5FF01E9
:104E0000D694DBDDAAFAFF005DEAEE5655FF7F007F
:104E10006E77B7AAEAFF3F00BCBB5555FDFF1F00E8
:104E2000DEADAAAAFFFF0F006F5555F5FFFF070083
:104E3000ABAAAAFEFFFF03005555D5FFFFFF0100F7
:104E4000ABAAFAFFFFFF00005555FFFFFF7F0000F0
:104E5000ABEAFFFFFF3F000055FDFFFFFF1F000013
:104E6000ABFFFFFFFF0F0000F5FFFFFFFF07000094
:104E7000FFFFFFFFFF030000000000000002000032
:104E800000000000000100000000000080000000A1
:104E900000000000400000000000000020000000B2
:104EA00000000000100000000000000008000000EA
:104EB00000000000040000000000000002000000EC
:104EC0000000000001000000000000800000000061
:104ED000000000400000000051434343C9188C46C5
:104EE000110C83B24B4310B4040C614392B280B2F4
:104EF000504362431C041B0C001910BC594113049D
:104F0000120CC018514161447047000048404140B4
:104F1000484000239C46114B5B68184700239C4681
:104F20000E4B1B6818470E4A936F9B0804D2002350
:104F30009C460A4BDB681847F0B5146E556E576FE8
:104F4000166FFFF7F4FF064A146655665767166733
:104F5000F0BD00239C46014B9B681847D0390020C8
:104F6000000000D007B548404140484001E0C0463D
:104F700007B54200120E03D0FF2A03D1420218D80F
:104F8000C00DC0054A00120E03D0FF2A03D14A0209
:104F90000FD8C90DC9050122414005D4414001D5B2
:104FA000814207BD884207BD0143491801D0C04373
:104FB000001807BD00B5FFF7DBFF01D0002000BDE2
:104FC000012000BD00B5FFF7D3FF01D9002000BDCF
:104FD000012000BD01231B064200D21804D84A005C
:104FE000D21801D80020704701207047C10FC907AF
:104FF00000D54042002817D0F44603B40B4B1B6881
:10500000984706BC81409E384042803107D20B064B
:1050100007D04900490AC0051043084360470130E2
:10502000F8E7490A8902F5E770470000B438002024
:1050300000239C46014B5B6A18470000D0390020D2
:1050400070B513231D782A48FEF7FEFA0400012DDF
:1050500011D0012D09DDA31E1B789B007F2B40DDA5
:1050600080222100234800F0A7F82348FEF7E4FA45
:10507000224B186070BD542201001E4800F09CF8BD
:105080001F4B1A881F4B9A421CD1A7239B011A88D9
:105090001D4B9A4216D11D4B1A881D4B9A4211D1B5
:1050A0001C4B1A8894239B019A420BD11A4B1A88E5
:1050B0001A4B9A4206D11A4B1A681A4B9A4201D1DE
:1050C000152307E01848FCF72BFE99001748094AFA
:1050D000885001331F2BF8D9144A064B1A62DA6143
:1050E000B7E7134B134A42211348FCF77FFDC04634
:1050F00053460000D03900204C330000B438002063
:10510000EE290000C40F0000C20D0000962B000025
:10511000C0B50000182B0000CC2A000010B500001C
:10512000FC2C000051ED8764882204103D510010D2
:105130000CF3031088F3031040F3031007B5604627
:10514000002800D100BE01880A0A0230DF2AFAD105
:10515000C9B2820804D3028840880004104300E0EA
:105160000068024A5050039007BD0000D03900206B
:1051700010B504002DF0B8F8002804D00419034B32
:105180009C4200D810BD0248FCF7CAFD0000042074
:105190009CF3031010B52DF0B1F810BD01480421A7
:1051A000014B1847E012002059360010014B1B68D4
:1051B00018470000E0120020014B5B681847000010
:1051C000E012002010B50300080011001B6898478A
:1051D00010BD0000F8B507000D001600437C002B41
:1051E00002D0002400200CE003681100280098473A
:1051F0002DE03B7C10E0022115483B689847601C7D
:105200000134B44214DA002CF3DD2B19013B1B7876
:105210000D3B5A425341DBB22A5D0A2AF0D1002BE2
:10522000EED1A042E7DA211A28183B689847E2E756
:10523000B04203DA311A28183B689847002E06DD81
:10524000AD19013D2B780D3B5A4253413B74F8BDDB
:1052500024F4031070B505000368002B16D00C4B26
:105260001C6805E0290004C92000FFF7B3FFE468CB
:10527000002C09D02368002BF9D0064B1B68002BAB
:10528000F0D0A342F3D1EDE700232B6070BDC04600
:10529000903800209438002070B505000C000B6891
:1052A000802B05D021684B1C23606418257170BDCC
:1052B0000800FFF7CFFFF5E7F0B583B007000E0059
:1052C0000092019328E0A368002B04D0310038003D
:1052D0009847002827DCE468002C06D0134B1D6893
:1052E000002DF0D0A542F6D1EDE701200021FCF71A
:1052F00027F90099019A0E4B5B6A9A4209D80C482B
:10530000806A88420BD29A4201D0012302E0002336
:1053100000E00023002B04D1064B1C68DCE70123CE
:10532000F8E70120404203B0F0BDC04694380020A9
:10533000004005409038002010B582B0D0231B06F5
:1053400000241C5701A9074839F016F9002806D196
:10535000019B9C4203D0034839F03EF9012002B082
:1053600010BDC046A01D002010B5024839F0C4F899
:1053700010BDC046A01D0020F0B5CE46474680B502
:1053800083B006000D0090461C00FFF7D5FF814654
:105390006B1C05D0002C08D0194F1A4B1C6807E075
:1053A00030002EF053FE0500F4E7174FF5E7E468F0
:1053B000002C17D02368002BF9D0144B1B68002B4E
:1053C00001D0A342F3D12A0031002000B847434660
:1053D000002BECD06B46D91D0A230B700122200054
:1053E000B847E4E74B46002B07D1681E8541E8B279
:1053F00003B00CBC90469946F0BDFFF7B5FFF4E74B
:10540000C551001090380020D5510010943800206C
:1054100010B5030008001100002B05D1044B1A68D9
:105420005B68FFF749FF10BD01204042FBE7C04623
:1054300058E9031070B50D001400012807D10023AE
:10544000002221002800FFF797FF200070BD0120F7
:105450004042FBE710B5064B1C6800E0E468002CF6
:1054600004D06368002BF9D09847F7E710BDC04619
:105470009038002070B505002EF0E8FD04000023F0
:10548000012201002800FFF777FFFFF7E3FF20006C
:1054900070BD000070B5A2B004000E00FFF74CFF15
:1054A00005008422002101A8FFF780FE33002200BE
:1054B00001A90848FEF7A8F8040001A8FFF7CAFEF2
:1054C000FFF7C8FF002D02D1200022B070BDFFF70A
:1054D0004BFFF9E7995200100FB400B583B004A94F
:1054E00001C90191FFF7D6FF03B008BC04B018470B
:1054F00010B5024800F004F810BDC046AC380020DA
:1055000070B588B0040004AD00260496092200217D
:1055100005A8FFF74BFE00960922002101A8FFF71E
:1055200045FE4B232B700D226946280038F0DCFF26
:10553000002304E05A1D69468A5CE2540133072BBC
:10554000F8DD08B070BD0000F0B5DE4657464E46A7
:1055500045460122E0B5DF4F00243800DE4B83B022
:105560001A70DE4B7C6098461B681C309D68DC4BD3
:10557000BC603B60FC603C617C61BC619B4601F0AF
:105580001FF9D84BD84E9A463B6001235B4299469F
:105590007B6243461B683D625D6830005B46746019
:1055A0003360B460F46034617461B4611C3001F044
:1055B00007F9534633604B46736243463562CB4D21
:1055C0005A4628001B682A60DB686C60AC60EC609F
:1055D0002C616C61AC611C30019301F0F1F8019B0E
:1055E00052462B624B466B62C14B2A6099461800AB
:1055F00012F0D6F94B4678221C67043B9C520832C5
:105600009C5004329C5004329C50DC67B94C3900E9
:105610002200143248461C605A6012F051F9B64F0D
:10562000380012F0BDF93B0000227C21083B5A52A1
:1056300004315A5004315A5004315A5004315A50EE
:10564000AE4938001960143199603A6731005A60E8
:1056500012F036F9AA4E300012F0A2F90022782199
:10566000331F5A5208315A5004315A5004315A509B
:105670003267B26722001432290030001C603260A9
:1056800012F01EF99F4E300012F08AF900227821A4
:10569000331F5A5208315A5004315A501C60043199
:1056A00014345A50300029003267B267346012F067
:1056B00007F980229449954B92019967944B954F35
:1056C0001869596702431A614346002438001B6871
:1056D0007C609D68904BBC603B60FC603C617C6181
:1056E000BC611C309B4601F06BF88C4B8C4E9A468B
:1056F0003B6001235B4299467B6243461B683D62E7
:105700005D6830005B4674603360B460F46034619F
:105710007461B4611C3001F053F8534633604B465A
:10572000736243461B683562DB687E4D98462800ED
:105730005B466C602B60AC60EC602C616C61AC61B2
:105740001C3001F03DF853462B6043462B624B461C
:105750006B62754B9846180012F022F943467C2282
:105760001C675C67043B9C5404329C5004329C5080
:1057700004329C5004329C506C4C3900220014328C
:1057800040461C605A6012F0F5F8694F380012F07C
:1057900007F93B0000228021083B5A5404315A503B
:1057A00004315A5004315A5004315A50614938007A
:1057B0001960143199603A6731007A675A6012F0C3
:1057C000D9F85D4E300012F0EBF800227C21331F37
:1057D0005A5404315A5004315A5004315A50043149
:1057E0005A503267726722001432290030001C6060
:1057F000326012F0BFF8514E300012F0D1F80022A2
:105800007C21331F5A5404315A5004315A50043108
:105810005A501C60043114345A5030002900326749
:105820007267346012F0A6F880224549454B920118
:105830009967454B1869596702431A61434A1368CF
:105840000133136003B03CBC90469946A246AB4678
:10585000F0BD2D4B3E4A48465A6012F0F3F828F04E
:1058600081FF3C4B3C4A30005A6012F0EBF828F0C4
:1058700079FF354B384A30005A6012F0E3F828F0CF
:1058800071FF304B344A38009A6012F0DBF828F090
:1058900069FF2B4B304A40465A6012F0D3F828F08B
:1058A00061FF2E4B2A4A30005A6012F0CBF828F0E4
:1058B00059FF174B264A30005A6012F0C3F828F0FF
:1058C00051FF124B224A38009A6012F0BBF828F0C0
:1058D00049FFC04654300020F012002088130020F9
:1058E000A022041028180410043000202C300020BE
:1058F0004434002078210410A0320020F419041050
:105900002C330020B833002040340020983200208F
:1059100028330020CC300020E02204106818041046
:105920007C300020A430002084360020A821041000
:10593000D4340020241A041064350020F4350020EB
:1059400080360020CC3400206035002064320020F6
:1059500044190410F035002054190410B433002009
:10596000064A10B513680400591C1160002B01D0C1
:10597000200010BDFFF7E8FDFAE7C04664320020C2
:10598000104A10B513680400591E1160022B01D093
:10599000200010BD0C481CF0D3FF0C481CF0D0FFB9
:1059A0000B481CF0CDFF0B481DF012F80A481DF003
:1059B0000FF80A481DF00CF8EAE729F077F829F00B
:1059C000AFF8E5E76432002040340020283300209F
:1059D000B43300208036002060350020F0350020F0
:1059E0007047C04610B5040028F0B8FD200010BD77
:1059F000044A0B6812680360934202D01A680132AD
:105A00001A607047E431002010B5064C2068002869
:105A100000D010BD2000002203492AF043FA20687C
:105A2000F7E7C046EC31002090F5031000487047BE
:105A300090F50310416870B50500002916D0836801
:105A4000002B10D00024354EA2005058002805D05D
:105A500043685A1E4260012B36D0AB680134A34222
:105A6000F2D8002902D0080028F080FDE96800295A
:105A700016D0AB68002B10D00024284EA20050583E
:105A8000002805D043685A1E4260012B24D0AB6821
:105A90000134A342F2D8002902D0080028F066FDA4
:105AA0002B690024002B0DD01859002802D028F0B3
:105AB0005DFD2B690434182CF6D1002B02D01800A0
:105AC00028F054FD280070BD03685B68B3420BD119
:105AD00028F044FD6968C0E703685B68B34206D1FB
