:020000041000EA
:1000000000B5324B212058609868022188439860DF
:10001000D860186158612E4B002199600221596106
:100020000121F02299502B49196001219960352056
:1000300000F044F80222904214D00621196600F024
:1000400034F8196E01211966002018661A6600F04E
:100050002CF8196E196E196E052000F02FF8012189
:100060000842F9D1002199601B49196000215960AB
:100070001A491B48016001219960EB211966A021F2
:10008000196600F012F800219960164914480160C1
:100090000121996001BC002800D000471248134993
:1000A000086003C880F30888084703B5996A0420EC
:1000B0000142FBD001200142F8D103BD02B5186610
:1000C0001866FFF7F2FF186E186E02BD00000240BE
:1000D000000000180000070000035F00212200005C
:1000E000F4000018222000A00001001008ED00E03C
:1000F00000000000000000000000000074B24E7A12
:1001000000200420F7010010C3010010C5010010F9
:10011000C1010010C1010010C1010010C101001097
:10012000C1010010C1010010C1010010C701001081
:10013000C1010010C1010010C9010010CB01001065
:10014000CD010010CD010010CD010010CD01001037
:10015000CD010010CD010010CD010010CD01001027
:10016000CD010010CD010010CD010010CD01001017
:10017000CD010010CD010010CD010010CD01001007
:10018000CD010010CD010010CD010010CD010010F7
:10019000CD010010CD010010CD010010CD010010E7
:1001A000CD010010CD010010CD010010CD010010D7
:1001B000CD010010CD010010CD010010CD010010C7
:1001C00000BE00BE00BE00BE00BE00BE00F04BF888
:1001D000103800BEF2EB8871487D0410687D041071
:1001E0003402001090A31AE700202149086006C8D5
:1001F00081F3088810471F48006800282FD10DA4FC
:100200000ECC002902D000F012F8F9E71A491B4A77
:10021000002000E001C19142FCD1194988471949E9
:1002200088471949884700BEFDE701C901C29A42C3
:10023000FBD37047687D0410C0000020241F0020FD
:10024000CC9B04100000042000000420CC9B041070
:1002500000100420001004200000000070470B482C
:1002600003F098F90047EFF30580C0B27047000033
:1002700008ED00E0000000D0281F0020BC3B00205B
:1002800065160010750800108D17001057560000F5
:1002900006005250ABB360531CDD031006005250F1
:1002A000861C03022CDD0310060052505422A29D2E
:1002B0003CDD031005005250DE65F468CC9B041051
:1002C000F8B5C0460448054B10B5834203D0044B33
:1002D000002B00D0984710BD241F0020241F0020B1
:1002E0000000000006480749091A8B10C90FC918F9
:1002F00010B5491003D0044B002B00D0984710BD17
:10030000241F0020241F00200000000010B5074C0F
:100310002378002B09D1FFF7D5FF054B002B02D026
:10032000044800E000BF0123237010BD28210020F5
:100330000000000018DA0310054B10B5002B03D0A5
:100340000449054800E000BFFFF7CCFF10BDC046E0
:10035000000000002C21002018DA0310F0B5DE4662
:1003600057464E464546190080461000E0B587B016
:100370000090019103F0E3FB0022CA4B03F0B8FBAD
:1003800003F0E2FC0022C84B03F0A9FB109A119B7A
:1003900004000D001000190003F0D1FB220006003C
:1003A0000F002B002000290003F0C9FB02000B0006
:1003B0003000390003F09CFB03F0C6FC02000B0088
:1003C00006000F0003F0BBFB03000C0002000493C7
:1003D000059400200B00B54903F081FB00220400C6
:1003E0000D0030003900B24B03F0A9FB02000B00F6
:1003F0002000290003F085FB03F01EFD32003B00C6
:1004000004000D001098119903F07BFB03F014FD1C
:10041000002206000F0020002900A64B03F08FFBEE
:10042000A54AA64B03F06DFB002204000D0030002E
:100430003900A04B03F083FB9F4AA04B03F061FB04
:1004400002000B002000290003F052FB009A019BE0
:100450000290039100209A4903F053FB03F01AFD28
:100460000022944B03F06BFB934A944B03F049FB3F
:100470000022944B03F03CFB002206000F0004987E
:100480000599914B03F02BFB0022904B03F027FBC7
:1004900000228F4B03F035FB03F0CEFC0022854B8E
:1004A00003F04DFB844A854B03F02BFB43460400CD
:1004B0000D000299039A19605A60414600221E619C
:1004C0005F619C60DD607E4B8A61CB61009A019B1D
:1004D0000A624B62109A119B8A62CB6243460421E6
:1004E000186B00F0F5F9434601201B6B83469A46D2
:1004F0001B075B0F9A00D318764A9B0099180A686D
:100500009043802252010A4310608022D2004A6048
:10051000714A0A61714A029803999146994403F01D
:100520009FFB02004001801A80008018B421000166
:1005300003F05EF89130FF3004F04EFB684904F0A0
:10054000ECFA684904F0FDFA04F068FB5B46524699
:1005500080B2134200D09CE0634B4A461268504080
:100560008022520192464A46514603400A43136094
:1005700043460421586B00F0ABF9434601205B6B06
:10058000834699461B075B0F9A00D318514A9B007C
:1005900099180A68904352460A4310608022D2009C
:1005A0004A604D4A30000A614C4A390092469A44EA
:1005B00003F056FB02004001801A80008018B4212D
:1005C000000103F015F89130FF3004F005FB4449B9
:1005D00004F0A3FA434904F0B4FA04F01FFB5B46AD
:1005E0004A4680B213425AD13F4B5246126850409D
:1005F0008022520191465246494603400A43136005
:1006000043460421986B00F063F9434601219F6B38
:1006100088463B075B0F9E00F6182E4BB600F3187A
:100620001A68200091434A461A4311608022D20082
:100630005A60294A29001A61284B9C46664403F0F7
:100640000FFB02004001801A80008018B4210001D5
:1006500002F0CEFF9130FF3004F0BEFA204904F0E2
:100660005CFA204904F06DFA04F0D8FA434680B2EF
:100670003B4211D11C4B3268504080225201034052
:100680001643336007B03CBC90469946A246AB4641
:10069000F0BD164B000460E7144B0004EBE7134B6E
:1006A0000004A2E700009940008040400030AE40C6
:1006B00000805BC0008066401F85EB51B81E09407A
:1006C000000044400080464000E9BA4000A2A74034
:1006D00000D5C1C000000540969800000C00054000
:1006E00000409C4600961847FFFF00000000FFFFF7
:1006F000F0B5DE4657464E464546584B00249846D0
:100700000022E0B50026564D564B83B0564F00925E
:100710000193404622002B00FFF720FEC82000F086
:10072000EBFB22002B00404600960197FFF716FED8
:10073000C82000F0E1FB80235B42434400219A463D
:100740000022504600910192484B0022FFF706FE1E
:10075000C82000F0D1FB00225046444B0096019780
:10076000FFF7FCFDC82000F0C7FBC0235B424344F9
:100770009B4622002B00584600960197FFF7EEFD9E
:100780005046002200960197394BFFF7E7FD4023C2
:100790005B42434499460022484600960197334BFA
:1007A000FFF7DCFD00224046314B00960197FFF732
:1007B000D5FDC82000F0A0FB00222A4B484600923D
:1007C000019322002B00FFF7C9FDC82000F094FB25
:1007D00022002B00484600960197FFF7BFFDC82076
:1007E00000F08AFB002100225846009101921F4B25
:1007F0000022FFF7B3FDC82000F07EFB0022584620
:100800001A4B00960197FFF7A9FDC82000F074FB72
:100810005846002200960197154BFFF79FFD2200D6
:100820002B00504600960197FFF798FD484600229E
:10083000009601970E4BFFF791FD22002B004046DA
:1008400000960197FFF78AFDC82000F055FB03B022
:100850003CBC90469946A246AB46F0BDE82000203D
:10086000000034400000444000004E4000005E4064
:100870000080514003200521104B082210B5186359
:1008800059631C201B219A6312329A671A00186759
:10089000596709200A21B03210605160B8220B213B
:1008A00099501A0015211620F03210605160F8227C
:1008B00014219950FFF71CFFFCE7C04628200020B8
:1008C00010B5024804F03AFE10BDC046F4370020CF
:1008D000094A830094464022634410B51C68C00056
:1008E0006240C02414408022520113431C60034B19
:1008F0009C466044416010BD04C00140004001407E
:10090000F8B5EFF3108772B60E4E3368002BFCD0AB
:10091000BFF35F8FCB08C4180725A446C45C01232E
:100920000D40AB4018002040234208D162462343CB
:100930001370BFF35F8F306087F31088F8BD10002D
:1009400000F040FF2C0100D0024B18688007C00F58
:100950007047C04600C006400021044B044ABFF364
:100960005F8F02C39342FAD17047C046000100D0A6
:10097000800100D0044A1078431CDBB2172B00D949
:10098000102313707047C046AC13002083680B48D7
:1009900010B5844661446244090112019A1859183D
:1009A00054684B6801209C4201D802D00020C0B29C
:1009B00010BD12680B689A42F9D8F7E7FFFFFF0FE6
:1009C0000A4B1968EFF3108072B60A68002AFCD04F
:1009D000BFF35F8F1B68BFF35F8F00221A6080F345
:1009E000108840BF002000217047C046A039002079
:1009F000F8B557464E464546DE46E0B5434D81467E
:100A00008A466A68EFF3108872B61368002BFCD030
:100A1000BFF35F8F2E68B47B002C3ED06700336835
:100A20003F19033FDA195378B373002B00D1F373E6
:100A30000023937053701370A968354A8C46494659
:100A4000A218120162441160514651603149D360CD
:100A500091603268D219937053701370737B9B4608
:100A6000002B35D022001900B068736898473268AF
:100A7000002820D05B4658465B005B44D719033BF7
:100A8000B870D118D35C002B00D07B705B460C7023
:100A900073735C451DD0002626E06B68BFF35F8F43
:100AA0001C6088F31088012040423CBC9046994667
:100AB000A246AB46F8BD5B465B005B44033BD318E4
:100AC0009C70D119D25D002A00D05A705B460B7021
:100AD00074734A465346287D00F01CFB061EDAD08C
:100AE0002100286800F080FDEB686A681B19013B53
:100AF0001B78BFF35F8F0021116088F310880020FE
:100B0000002ED2D118022043CFE7C046B0130020F8
:100B1000FFFFFF0FC1090010F8B5574645464E4686
:100B2000DE46E0B599460CAB19780DAB1B78050095
:100B300090469A460768002912D1BE7B002E45D008
:100B400074003B68A419033C1B195A783100BA732E
:100B5000002A00D1FA7300229A705A701A7003E0CA
:100B60000E004C006418033C2C4B00229C46AB68E2
:100B700061449C464346090161440B604B464B600F
:100B80000A9B8B600B9BCB603B681B199A705A7059
:100B90001A707B7B9B46002B2CD032005946B868DC
:100BA0007B6898473A68002817D05B4658465B0038
:100BB0005B441419033BA070D118D35C002B00D008
:100BC00063705B460E707B73B34514D030003CBC41
:100BD00090469946A246AB46F8BD5B465B005B4437
:100BE000033BD3189E701119125D002A00D05A7071
:100BF0005B460B707E7342464B46287D00F08AFAB6
:100C0000041E06D05346002B03D13100286800F0A3
:100C1000EBFC0E9B002BD9D01C70D7E7FFFFFF0F1A
:100C2000F0B5DE464E46574645460023E0B58DB04A
:100C30000A936B4B8200D3580B90994600239B4636
:100C40004B46079300F0DCF9079C06000F00626832
:100C5000EFF3108572B61368002BFCD022000794C6
:100C6000BFF35F8F2468637B9946002B67D092683F
:100C70005C4B90464B441B01984443461A685B68A2
:100C800010001900801BB94100295FDD0B9800F0AE
:100C900041FA00230026984600279A46079C63687D
:100CA000BFF35F8F5A461A6085F310885346002BB6
:100CB00008D10028C6D10DB03CBC90469946A2464A
:100CC000AB46F0BD0A9B414618024B461843D0473D
:100CD000089009916268EFF3108572B61368002BD3
:100CE000FCD00794BFF35F8F0899099A002A48DB6C
:100CF000114303D0079B1B69002B5DD1079B1B6829
:100D0000DA7B002A07D051008A1819688C464946B8
:100D10006244033A51704A46DA734B46079A013BE4
:100D2000D168CA5C0132CA545B46079A13615368A2
:100D3000BFF35F8F5A461A6085F3108882E700235D
:100D40000026984600279A460020A7E7002901D1EF
:100D500000289BD10021200000F0A8FB43461E681C
:100D60005F689B68079A9A464346DB689846D36853
:100D70004B44013B1B780A931B0203431361002081
:100D80008CE72369002BB9D033003C005B1A9441F7
:100D90001A002300A74219D89F421BD0594604913C
:100DA000012103914946029141460191514607981C
:100DB0000091FFF7B1FEB7E700F022F9089A099B0E
:100DC00006000F0092197B419942E5D90122524257
:100DD000D317E3E79642E1D901225242D317DDE768
:100DE00084390020FFFFFF0F10B5124C6368002B01
:100DF00004D00A21104800F01FFA10BD23000F4A4A
:100E00001021206800F070FA032000F0EDF80320B4
:100E100000F0F2F903200A4900F036F9FFF7AAFDC5
:100E2000084B9C46032360442375074B8000606099
:100E3000DC60DEE7B0130020A03900208D0900102F
:100E4000210C00104000003484390020F0B504006B
:100E50000D0006267642F717C64636196F4100B5D3
:100E60008F4213D810D000F0CBF832003B00121A9A
:100E70008B41002B14DC002B37D02900200000F020
:100E8000F3F804BC9046F0BD8642ECD9002600275A
:100E900000F0B6F832003B00121A8B41002BEADD5D
:100EA00030003900FFF7A4FD0028E6DB0023984658
:100EB000BC460F4A0F4F7B6A9C4504D8B96A8E42E4
:100EC000DBD99C45D9D11168EFF3108072B60B685D
:100ED000002BFCD0BFF35F8F1368BFF35F8F4146D9
:100EE000196080F3108820BFE5E7002AC5D0D7E756
:100EF000A03900200040054070B5060000F080F8E1
:100F0000FA2204000D00002330000021920003F0BB
:100F1000E1FD001969418D4205D802D0FFF796FF27
:100F200070BD8442FAD901204042C117F6E7C0469D
:100F3000F0B5D6464F464646C0B5EFF305833F228F
:100F4000134018001038EFF3108C72B6204D2A6849
:100F5000002AFCD0BFF35F8F0122110081401D4C9D
:100F6000884661631C4917000E788A463100C140EB
:100F70000F400A4215D019498200646A51588C42C8
:100F800019D3174BD25843469E4353461E70BFF3A6
:100F90005F8F00232B608CF31088002A06D09047C7
:100FA00004E0BFF35F8F2F608CF310881CBC904669
:100FB0009946A246F0BD0B4A9B00904643441A68EE
:100FC0001A60BFF35F8F00232B608CF31088EDE76E
:100FD000280100D000400540B7390020A439002086
:100FE000FC370020D03F054010B50100024A0348FD
:100FF000FFF786FC10BDC04620DA0310B53900208B
:10100000034B596A0A00986A596A8A42FAD17047B2
:101010000040054070B504000D00124A536A1900E3
:10102000966A536A8B42FAD13000190024184D4158
:10103000AB4211D80ED02B000A494A6A9A42FCD31F
:1010400007D1084A02E0516A994202D1916AA1424D
:10105000F9D370BDA642EED9012301246442E517FD
:101060005B42E9E700400540064A536A9942FCD8D2
:1010700007D1044B02E05A6A914202D19A6A824235
:10108000F9D370470040054070B504000D00EFF340
:10109000108672B61A4A1368002BFCD0BFF35F8F1C
:1010A000002D1BD0200000F01BFD164981420AD004
:1010B000200000F01DFD0121200000F0FFFC0123B5
:1010C000A340114A1360114BA400E550BFF35F8F9A
:1010D00000220B4B1A6086F3108870BD0B4BA200E8
:1010E000D5500122A2400A4920000B7893430B708F
:1010F000044900F027FD0021200000F0DFFCE5E7B7
:10110000280100D0310F001038600540FC37002066
:10111000B7390020F0B54F46D6464646C0B5070061
:10112000304C616A0D00A66A616AA942FAD18B420D
:1011300008D805D001201CBC90469946A246F0BDB7
:10114000B242F7D9EFF3108972B627480168002937
:10115000FCD0BFF35F8F01252449BD408C46097840
:10116000204C0E002E438846F1B28A466146504616
:101170000870391D1E48890065630A51B9000B507B
:10118000216A0020294219D0616A0800A66A616AB2
:101190008142FAD18B4219D801D1B24216D8C24548
:1011A0001DD0104B1F201D625D6301230740BB4013
:1011B000104A1E381360634642461A70BFF35F8FB1
:1011C0000022094B1A6089F31088B4E70020BFF3AE
:1011D0005F8F0022044B1A6089F31088ABE701206F
:1011E000ECE7C04600400540280100D0B739002098
:1011F000A439002080E200E010B5EFF3108472B64D
:101200000A490B68002BFCD0BFF35F8F012383409A
:10121000074A0848136202789A430270BFF35F8F4F
:1012200000230B6084F3108810BDC046280100D055
:1012300000400540B7390020024B9C4661448900BC
:10124000016070474000003410B50400FFF792FBC6
:1012500001002000FFF7F0FFFF232371BFF35F8F32
:1012600010BDC04610B50400FFF784FB010020004C
:10127000FFF7E2FFFF23A380BFF35F8F10BDC046DF
:1012800070B505000E001400002924D0002A24D0D7
:1012900080686B689847296800280ED063001B1986
:1012A0007200033B9219CB18033A9E7088188A5C2F
:1012B000002A14D1047030000EE073009B19620004
:1012C000033B1219CB18033A9C7088188A5C002AD9
:1012D00000D05A700670200070BD0800FCE75A70FC
:1012E00004703000F8E7C04630B583600023CCB20C
:1012F00043730133047342608373C4730D00006849
:10130000012C06D9421C0133DBB2137003329C421C
:10131000F9D1FF2129404B00591800234018033808
:10132000437030BDF8B5CE46474606000C0080B588
:10133000002907D04D0003686D18033D5A195778EE
:10134000002F04D120000CBC90469946F8BD7900CE
:10135000C919033988464344597889460021597090
:10136000517073683A0021008068984733680028FC
:1013700014D042469A18947059195B5D002B00D026
:1013800053700F70270049463000FFF7CBFF39003C
:1013900002003000FFF774FF0400D3E742464146E5
:1013A0005D19AF709A185B5C002B00D06B701470E5
:1013B000E9E7C046F0B557464546DE464E46E0B53D
:1013C0000D006B0001685B19DF1E0400C85D83B06F
:1013D0000192CA1900284CD043001B18033BCB18BC
:1013E0005E78B446002E16D1019E002E3ED0E67BDC
:1013F000002E04D073009B19CB18033B5D70E5737E
:1014000000282FD10023537003B03CBC904699466E
:10141000A246AB46F0BD72006244033A89184A788E
:10142000904600224A7091465A7001003200200016
:10143000FFF726FF43468246002B07D05B0021685A
:101440004344033BCB185A78002A16D142465146F2
:101450002000FFF715FF2168019BCA19002BC6D198
:101460000028CFD043001B18033BCB1800219970F4
:10147000C8E7019B002BBAD1C4E75000801803389D
:1014800009184878834648464870587041462000FD
:10149000FFF7F6FE594680462000FFF743FF41461E
:1014A00002002000FFF7ECFE8046CFE7F0B54E4685
:1014B0004546DE465746E0B5467B040075000068A9
:1014C000AD19033D83B00191415D421900294ED011
:1014D0004B005B18033BC3185F78BC46002F18D144
:1014E000019D002D40D0E57B002D04D06B005B19E1
:1014F000C318033B5E70E673002931D1002330002E
:101500005370617303B03CBC90469946A246AB460B
:10151000F0BD7A006244033A801842789346002274
:10152000427091465A7020003A00FFF7A9FE5B46D0
:101530008046002B07D05B0021685B44033BCB183F
:101540005A78002A17D15A4641462000FFF798FEE4
:10155000019B010020684219002BC4D10029CDD085
:101560004B005B18033BC31800209870C6E7019B33
:10157000002BB8D1C2E7500080180338091848780A
:10158000824648464870587059462000FFF778FE5A
:1015900053468346002B07D05B0021685344033B2E
:1015A000CB185A78002A06D1594652462000FFF738
:1015B00067FE8346C7E7500080180338091848467D
:1015C0004F784870587051462000FFF759FE390097
:1015D00081462000FFF7A6FE494602002000FFF7E3
:1015E0004FFE8246E0E7C04670B5040000292CD0CB
:1015F000437B8B422ED005684800401803382818DA
:101600008278002A21D053009B18033BEA5CEE1835
:101610008A4202D11BE0002A08D053009B18033BEA
:10162000EB185A788A42F6D142785A700023012288
:10163000837043702000FFF7BDFE617B0200200035
:10164000FFF71EFE6073012000E0002070BD4378AC
:101650003370EBE701221900FFF7ACFE6073012045
:10166000F4E7C0462C4B2D4A70B51A602C4A2D4B1E
:101670002D491A6010008B689843FBD12B4C2C4BE2
:101680009C4209D2013B1D1BAD080135AD002D194F
:1016900008CC9847AC42FBD100F0B2F8254A214B68
:1016A0001A60214A9368DB018033FBD14022224B30
:1016B000224C234D9A675A671A67DA66AC4208D201
:1016C00023682000002B21D00834FFF7CBFDAC426B
:1016D000F6D31C4C1C4DA168C022280003F010FB5F
:1016E000A560FFF739F900F065FBFFF77DFB174CAC
:1016F000174B9C4209D2013B1D1BAD080135AD00C3
:101700002D1908CC9847A542FBD170BD0834FFF7CE
:101710009BFDAC42D4D3DCE700E00040BFCDFBFE34
:10172000FE7F3C0000F0004000C00040F01E0020A2
:10173000001F0020FFFFFF0100F00140E81E002015
:10174000F01E002000ED00E000000020001F00203F
:10175000241F002000BEFDE7094A0300106800288E
:1017600005D00849C3188B4207D813607047064854
:101770000449C31810608B42F7D901204042F5E7B5
:101780007C39002000000420BC3B002000BEFDE7A7
:1017900010B50C0082B01900002A09D0064B019246
:1017A000009302002300054801F0B4FE00BEFDE7EF
:1017B000034B1A00F3E7C04644DA031054DA03106F
:1017C000680A04100FB400B5084883B003F0C2FBE8
:1017D000049B002B07D005A91800019101F0BAFE67
:1017E000034803F0B7FB00BEFDE7C04684DA0310F0
:1017F00094DA031010B50148FFF7E4FF98DA0310FC
:1018000030B50C2083B000F039FBFFF79DF80028BD
:101810000ED0944B944A1A605A609A60DA601A614A
:101820005A619A61DA611A62904A5A6203B030BD15
:101830008F4CA06700F02AFB01228E4B1A60636C6C
:10184000012BFCD103228C4B1A60894A936B012B2C
:10185000FCD102240121894A89480533009400F013
:10186000BBFA0523874A01218748009400F0B4FAA7
:10187000864B5A68FF2A02D8802252005A60802282
:10188000784C7D4B21691201804D1A60002905D0EA
:10189000606901F0D5FE01300138FDD1E0217B4BBC
:1018A00002201A681140802252012A4311601968EF
:1018B000484003210140116004219A681142FCD084
:1018C0008022802192012A43090111608022520066
:1018D0005A606F4B23616F4B5968FF2900D85A60DB
:1018E00003226C48634B01211A600200936819427D
:1018F000FCD0E02513681D4080235B0103431D607D
:1019000012684A400321114019600221614A93681C
:101910001942FCD0802380219B01034309011960F7
:1019200080215D4B4900516063615C4B5A68FF2A1E
:1019300000D8596080225A4BE1691201574D1A6054
:10194000002905D0606901F07BFE01300138FDD12E
:10195000E02252490B681A4080235B012B431A6036
:10196000802380229B012B4312011A6080223E4B70
:1019700052004A60E3614B4B5968FF2900D85A6016
:101980008022494B216A1201464D1A60002905D078
:10199000606901F055FE01300138FDD1E022414976
:1019A0000B681A4080235B012B431A60802380223E
:1019B0009B012B4312011A60802380225B004B6045
:1019C000294BD2022362394B5968914200D25A60A6
:1019D0008022374B616A1201344D1A60002905D00C
:1019E000606901F02DFE01300138FDD1E0222F4960
:1019F0000B681A4080235B012B431A6080238022EE
:101A00009B012B4312011A608023DB024B60174BB2
:101A10006362284B5A68FF2A02D8802252005A601B
:101A20008022254BA1691201224D1A60002905D0A0
:101A3000606901F005FE01300138FDD1E0221D4949
:101A40000B681A4080235B012B431A60802380229D
:101A50009B012B4312011A6080235B004B600E4BED
:101A6000A361E3E60C390020006CDC021BB7000028
:101A7000008000403CB0004030B00040002F68596A
:101A80000080024000389C1C00C0024030800040B2
:101A9000001BB7003C800040405973075480004051
:101AA00054B000406080004060B000406C80004056
:101AB0006CB000404880004048B0004001238340A3
:101AC000002904D0034A1360034A13607047034A95
:101AD0001360FBE780E200E000E100E080E100E06D
:101AE000024B10309B688000C058704700ED00E04A
:101AF00070B50D00EFF3108672B60F4A1368002B15
:101B0000FCD0BFF35F8F0D4B10309B6884001B59D6
:101B10000B4A934203D09D4201D0FFF76BFE074B67
:101B20009B681D51BFF35F8FBFF35F8F0022024B95
:101B30001A6086F3108870BD240100D000ED00E02B
:101B4000CD010010F0B5DE4657464E464546E0B59D
:101B50000C0083B0EFF3108A72B65B4A1368002B57
:101B6000FCD0BFF35F8F1022914681444A46574B09
:101B700096009B689D59564B98469D4205D0A542BC
:101B800016D0544FEB1B2F2B14D9504B9B689D51F3
:101B9000BFF35F8FBFF35F8F00224B4B1A608AF356
:101BA000108803B03CBC90469946A246AB46F0BDB7
:101BB0001D00EAE7012383409B465A46464B1B68BB
:101BC0001A4000925A46454B1A60BFF35F8FFEF7EA
:101BD0004AFB0190002803D0814501D0FFF70AFE9F
:101BE00001232A009A4313003D49DB1B5B41594303
:101BF000090D93689C4208D15BE043001B189B00D1
:101C0000FB189868A04211D01A0006201056002830
:101C1000F3DA009B002B05D05A46324B1A602E4B4C
:101C20001A60B2E75A462D4B1A60AEE706201856E6
:101C3000002822DB4200111889007C188846A16820
:101C40009960E179D971062161569971A1797F294D
:101C50001FD8A488F91A6405241544440919E024FE
:101C60000905490D24022143998012181E4B920048
:101C7000BF181A781870BA71CBE7019800280BD1F9
:101C8000FF30907119489080174A10781170987140
:101C9000BFE7BD210902E7E7154A1649D21A083AFB
:101CA0005002400D01439980134952080A43DA80DB
:101CB000AFE70620105613000028BBDA019A002A6D
:101CC000EAD14546E0E7C046240100D000ED00E03F
:101CD000CD010010D813002000E100E080E100E019
:101CE000AAAA000080E200E0B639002000BDFFFF94
:101CF0001214002000F0FFFF00F8FFFFF8B50125E7
:101D000004000543FEF7AFFA0300EFF3108672B646
:101D100021490A68002AFCD0BFF35F8F1F4A2000C8
:101D20001F49801A40414143090D1E489B008768A6
:101D300049B2FF58AF421CD00623D3568B421CD069
:101D40001223D3568B4222D01E23D3568B4220D04F
:101D50002A23D35603208B4210D0134B1A781970C4
:101D6000A271BFF35F8F00220B4B1A6086F31088BD
:101D7000F8BD82680D48D050EFE7002043001B18E3
:101D80009B00D218FF239371094B9380E5E7012054
:101D9000F4E70220F2E7C046240100D0D813002067
:101DA000AAAA000000ED00E0B6390020CD01001025
:101DB00000BDFFFF054B064A1360064A13605360DF
:101DC0009360D3601361536193617047808080801A
:101DD00000E400E004E400E0F8B504000C20170083
:101DE0001D000E0001F02CFC4101091A8B01591A4B
:101DF000C90009188901380001F022FC069A2B0459
:101E0000120313432268002A21DB184AA218514208
:101E10004A41802149018C4652420A401449624499
:101E20000A6014490A60144917008D68AF43FBD15A
:101E3000C021221D8901114321222660A0600A6071
:101E40002268002AFCDAE36008230B60F8BD3F2219
:101E500021680A40B242D8D1A2681205120D82420E
:101E6000D3D1E268002BD0D1F0E7C0460040FDBFDF
:101E700000E0004000F0004000C000408023024A23
:101E80009B000343D362704700800540AA23064AA3
:101E90001B0113602F230549D360054B196053685C
:101EA000002BFCDA7047C0460040024000B0FA0048
:101EB000006002409A4200D2885470477047C04682
:101EC000F8B557464E46DE464546E0B51F000A9B2C
:101ED00005009B460D9B0E00914692469B0718D12C
:101EE0000B9B0C9A934214D213000B9AB8469B1A80
:101EF0004B444C460F0006001D00220043460134AF
:101F000039002020B047AC42F7D1AA4635003E0048
:101F100047460B9B002B38D09A441C00D0465346B2
:101F20001A1B5B46013C185D31003B00A847002CA2
:101F3000F5D10D9B9B0721D543464A469C1A0C9B25
:101F4000A3421BD93A009A464F469146E2194B46A6
:101F5000310020200134A8475445F7D343460C995B
:101F6000DB1B0133B9460022994203D343464A1E84
:101F70004A44D21A434690460133984440463CBCFA
:101F800090469946A246AB46F8BDD046D1E7C0463A
:101F9000F0B54F464646D646C0B584B098460EAB1F
:101FA0001B78129F994694460D9C109B119EBA0770
:101FB00025D4002E69D19C4200D3C2E001223A40D0
:101FC00092461F2C00D9BBE00C9A551E302201E02E
:101FD000202C03D001342A55A342F9D85246002AB6
:101FE0000DD0B4420BD21F2C62D80C9A551E302251
:101FF00001E0202C5CD001342A55B442F9D1FA0614
:1020000035D57A055DD4002C57D10F9B102B00D10C
:102010007CE00F9B022B00D18DE030230C9A012431
:1020200013704B46002B27D02D230C9A13550134E7
:102030000C9B624600930397434602960194FFF778
:102040003FFF04B01CBC90469946A246F0BDBB06BB
:1020500063D4202CECD00C9B1A1901347823137014
:10206000202CE5D030220C9B1B191A700134202C37
:10207000DED04B46002BD7D17B0735D43B07D7D5D5
:1020800020230C9A13550134D2E7012215003D405C
:10209000AA463A4220D04A46002A2AD10C323A4275
:1020A00027D19C429DD21F2C00D88DE7202E19D914
:1020B0002024FA06BCD57A0503D4A3421BD0A6423D
:1020C00019D00F9B102BC2D0022BC9D1202CAFD01E
:1020D0000C9B1B19013440E09C4200D38FE71F2C5E
:1020E00000D871E720248AE72B230C9A135501347A
:1020F0009EE7013ED5E7631E012C00D185E70F9ACC
:10210000102A20D0022A25D01C00ABE7BB060DD434
:1021100078230C9A01241370A4E7202C00D187E7C0
:1021200058220C9B1B191A70013499E758230C9AFA
:102130000124137096E70C9A60330124137091E721
:10214000202400265BE7023CBA06E9D40C9A121957
:102150001C0083E70C9A9246534462221A707FE770
:1021600010B5002800D110BD02F0A2FEFBE7C0466A
:10217000F0B5DE46574645464E46E0B59BB09B4619
:10218000249B0A909846259B0B910C924046424610
:1021900019009A4601F039FD002800D0E8E001223C
:1021A000404651467F4B524201F02AFD002800D0A4
:1021B000DEE00122404651467B4B524201F00AFDCF
:1021C000002800D0D4E0002200234046514601F010
:1021D00001FD002800D0CAE15346C146099380237F
:1021E000289ADB001A400E92289A1A4201D106233F
:1021F00026934C46099B234300D0D9E0289B002618
:1022000000271B0500D4AEE100230D93269B190087
:102210000D9B994200DCB0E1C81A431E269380232F
:10222000289ADB001A430023002528920D93279B50
:102230000024AB4200D95C1B0223289A1A400E925C
:10224000289A134203D06B426B415B421C400D9BAA
:10225000002B07D04846099932003B0001F051FCA1
:1022600081460991002200234046514601F0B2FC0C
:10227000002805D080200006844609996144099110
:10228000289A4A4B0A9E13404A460493269B0B9970
:102290000293099B03940092019330005B460C9AD1
:1022A000884600F0A1F90400002D72D0289B22007E
:1022B00098061F23C017984341465B466530B047D8
:1022C0000D9B671CDA179C18DB0F98466B1E99460E
:1022D0000025544001E0202D13D00AAA94461F2364
:1022E000200063440A2101355E1901F0A9F930315B
:1022F000317020000A2101F0A3F926000400092E04
:10230000E9D8052306934B460593002304930A332B
:10231000039343463A000A9E0B9F029312AB00932D
:1023200039005B4630000195FFF732FE0E9B04003A
:10233000002B2ED00C9B279AC51AAA4229D93C0003
:10234000814698461700434621005A1920205B46D3
:102350000135B047AF42F6D84C460C992798631A1E
:1023600001330022984200D30AE10134141910E02D
:10237000289B42460493279B0B990393269B0A981C
:1023800002935346009201935B460C9A00F02CF99D
:10239000040020001BB03CBC90469946A246AB46C8
:1023A000F0BDC046FFFFEF7FFFFFEFFFFFF7FFFF2E
:1023B000764B099D9C466800400D604401F038FC56
:1023C000734A744B01F0BBFB734A744B01F090FBF2
:1023D0002B03734A1B0B1A4306000F00714B1100AD
:1023E00048460022099501F07AFB6F4A6F4B01F0D5
:1023F000A6FB02000B003000390001F079FB01F070
:102400002FFC0D9001F014FC694A6A4B04000D008A
:1024100001F095FB0022684B01F06AFB01F020FC03
:10242000664A0600664B2000290001F088FB040084
:1024300030000D000F9601F0FBFB624A624B01F089
:102440007EFB02000B002000290001F048FB020087
:102450000B0006000F0001F072FB320004000D00BB
:102460003B003000390001F043FB00221090119135
:10247000564B2000290001F044FB0022544B01F090
:1024800037FB02000B002000290001F03AFB00227C
:10249000504B01F02DFB02000B002000290001F041
:1024A00030FB0D00802132003B000400C9050020F4
:1024B00001F015FB02000B002000290001F018FBC1
:1024C00002000B001098119901F01BFB0022344B05
:1024D00001F00EFB404A0F9B9446634400221B050B
:1024E00001F02DFB06000F0002000B004846099981
:1024F00001F070FB00280AD00D9B3000013B390031
:102500000D930022324B01F0FCFA06000F00C625A5
:102510000D99330063318D42AD4128996D420435E8
:10252000090500D483E63B4300D16FE6099C484689
:1025300021002A4A2A4B01F05BFB002808D0002228
:1025400048462100274B01F045FB002800D05DE6FE
:10255000269B002B00D16AE60E9B5A1E9341269AB9
:10256000D31A269363E6002304250D935FE68023A8
:102570001B065344C146099331E6002326934EE6D9
:102580000A008446013A6244121BEEE601FCFFFF9A
:10259000FB799F501344D33FB3C8608B288AC63F52
:1025A0000000F03F0000F83F61436F63A787D23F10
:1025B00071A379094F930A400000E03F1655B5BB5F
:1025C000B16B0240EF39FAFE422EE63F00002C408C
:1025D0000000244000001840FF0300002D431CEBC6
:1025E000E2361A3F80842E41F0B54E46DE4657460D
:1025F0004546E0B597B09946209E219F229B834691
:10260000984607910C923B0032003000390001F0EF
:10261000FCFA002800D0C1E1012230003900CA4B89
:10262000524201F0D7FA002800D0E0E00122300049
:102630003900C64B524201F0E3FA002800D0B6E060
:10264000002230003900C24B01F0DAFA002800D035
:1026500098E0002230003900BE4B01F0BBFA0028A0
:1026600000D08FE0002200233000390001F0B2FAE0
:10267000002800D0B0E000230D93249B5B0501D41B
:102680000623984608AB9C46172200243023414677
:10269000624404E0013413550139202C01D009298A
:1026A000F8D888463000390001F0DAFA4346DA00FB
:1026B000A94B05009B181A685B680892099301F002
:1026C000B7FA02000B003000390001F008FA089A4E
:1026D000099B01F034FA0A900B9101F0E5FA824669
:1026E00001F0A2FA02000B000A980B9901F0F7F929
:1026F00000229A4B0A900B9101F082FA002800D137
:10270000C0E001239C46E244504601F08DFA0200ED
:102710000B000898099901F063FA002802D0002301
:102720009A4601354346002B69D008AB17269C46D4
:1027300008956644554614E001235B4243440A2150
:1027400028009A4600F07CFF013430313719397087
:1027500028000A2100F074FF092D00D8D5E0D046EA
:102760000500202CE8D10323249A1340012B00D12B
:1027700000E10EAB9846249B01940393239B0293A4
:1027800043461EE0249B58460493239B00960197E2
:10279000039343460C9A029307994B46FFF7E8FCD4
:1027A00017B03CBC90469946A246AB46F0BD249B70
:1027B0005B070ED403226A4B24990192039123995B
:1027C0000291009358464B460C9A0799FFF778FB05
:1027D000E6E70422634BEFE73B00320000200021D4
:1027E00001F07DF9012306000F000D9345E7249BBE
:1027F0000393239B0293042301935B4BE1E728009F
:1028000001F016FA02000B003000390001F067F900
:10281000524B002206000F0001F0DCF90EAB984687
:1028200000280AD10022300039004C4B01F0E8F9B1
:10283000002802D1EB0700D50135202C32D008AAA0
:1028400094461723280063440A2101341E1900F01E
:10285000CFFE3031280031700A2100F0C9FE051E7C
:10286000EBD10323249A1340012B00D191E01F2CBC
:1028700000D980E70D9B002B3BD02D2342461355FA
:10288000013478E700220A980B99344B01F0A2F941
:10289000002800D046E75346002B67D101239C4611
:1028A000E2443FE70323249A1340012B00D062E760
:1028B000239B002B00D15EE70D9B002B03D1249AB4
:1028C0000C33134202D0239B013B2393239B9C4256
:1028D000CDD208AB9C461722302362441F2C06D869
:1028E0002399013413558C42C1D0202CF8D12024D7
:1028F00041E7249B5B0721D4249B1B0700D43AE7C4
:10290000202342461355013435E75746089D202CB5
:1029100037D0220030214046002F08D00132B15478
:10292000202A43D0D3431B191B18002BF6D10EAB22
:1029300098462E234146541C8B547EE72B23424657
:102940001355013417E7C046FFFFEFFFFFFFEF7F8E
:1029500065CDCD4165CDCDC1A0DC03100000E03FC9
:10296000A4DA0310A8DA0310B4DA0310DB0700D4EA
:10297000D8E693E7239B002B00D1FAE60EAB9846EE
:102980009AE70323249A1340012B00D0F1E60EAB03
:102990009846239B002B00D169E78DE7249B039386
:1029A000239B029303230193064B0AE70323249AF4
:1029B00020241340012B00D0DBE6239B2024002B96
:1029C000DCD1D6E6B0DA0310F0B5DE464E46574607
:1029D0004546E0B59FB01C00289B93460993CF4A1B
:1029E000CF4B894608901A60002900D116E20023D7
:1029F00020789A46002800D118E226001D004C4697
:102A00000AE02A006F1C5B46089D2100A8473D0094
:102A10000136307800287AD02528F2D110239A4642
:102A2000083B9946043B9846023B00219C46721C99
:102A3000107816000300203BDBB2102B03D8B94FEF
:102A40009B00FB589F460300303B092B3CD90023D9
:102A50000A932A2800D171E0002398462E2847D0F7
:102A60000300683BDBB2122B1FD8AF4A9B00D35840
:102A70009F46012301321943DAE7634601321943C5
:102A8000D6E7434601321943D2E753460132194390
:102A9000CEE74B4601321943CAE770786C2800D163
:102AA000BFE280235B00194301360300253BDBB204
:102AB000532BA6D89D4A9B00D3589F4680235B008A
:102AC000707819430136F0E700270300B800C019F9
:102AD00001364000C018337830381A00303A070009
:102AE000092AF3D90A901800002398462E28B7D156
:102AF00080237078DB0019430300303B721C092BE4
:102B000000D895E12A2800D1A6E11600A8E7A14641
:102B1000AA462C00D34503D801235B425B449A4666
:102B20005B46524649460020089DA84720001FB03A
:102B30003CBC90469946A246AB46F0BD099B40CBB3
:102B40000A96002E03DB50780993561C84E7283838
:102B5000014370420A9009935078561C7CE778280C
:102B600000D1D4E1582800D168E26F2800D152E3A7
:102B7000622800D1D8E110230A009A430B926928F9
:102B800001D000F0A2FC0A230C934B0500D4D5E140
:102B900001230B9A9A430B92692800D1CEE1642855
:102BA00000D1CBE10B9A802311009B0019408A468B
:102BB0001A4200D032E3802311005B00194089469D
:102BC0001A4201D000F002FC13005B0600D510E3AE
:102BD0000B9B1B0601D400F06EFC099B04CB120476
:102BE000120C924609935346002B00D064E30B9AD3
:102BF0001033110099430B91520500D45CE300237C
:102C000099460B9B06930A9B0593434604930C9BA2
:102C100003930023DEE27078682800D107E2802366
:102C20000136194341E780239B0070781943013630
:102C30003BE7462800D174E10722099B0491073342
:102C400093430A9A19000392424602920CC90898CB
:102C50000092019309912A005B462100FFF7C4FC12
:102C600001360500D5E6099B1A0008CA9146002BDB
:102C700000D105E1212211438A460EA884461F2176
:102C80006144099500220F27A4460D0002E0202A86
:102C90000CD00B003C001C4020003730092C00D821
:102CA00007380132A85419090F2BF0D86446099D42
:102CB000F0E08B0700D4D1E1099B2A0099466B1CF8
:102CC00098464B4601CB21009946089F5B46C0B20F
:102CD000B8470A9B9C466544012B00D890E2B24657
:102CE0005E464746A846089D3A003300013721005A
:102CF0002020A8474745F7D1B3464B4656463D00EE
:102D00000993013685E62A006F1C5B46089D210069
:102D10002520A84701363D007BE6C046C9290010A2
:102D200080390020BCDA031000DB03104CDB0310F9
:102D3000099B04CB994643460992002B00D097E0AB
:102D400013789C46002B00D1B3E302235B425A1C4C
:102D5000099B924618000A9F0B92504402E083425E
:102D600000D169E15A780133002AF8D1099A0A970B
:102D70009B1A0B9380230A00DB001A400C92194225
:102D800004D00B9B434501D943460B9302231A0001
:102D90000A400D920B4200D184E16046002823D006
:102DA0000C9B002B00D124E1A844C246099B574646
:102DB0005B1B9846089BB2462A0026005C469B4651
:102DC00009E023003100551CD8474346585D0028D0
:102DD00000D13FE12A009742F3D1A3463D003400E1
:102DE00056460D9B002B69D00B9B0A99A846994229
:102DF00064D98C466544ED1A089B47469A46B0460E
:102E000026005C463A002300013731002020D047DD
:102E1000AF42F7D1A346340046464FE0D24B20786C
:102E2000089300239A46002800D0E6E5002471E6C6
:102E3000434606000A9F9800C018013240008019DE
:102E40001678030030003038303B0928F3D93000C1
:102E5000984616000A9703E6099B023604CB904673
:102E6000D2434046D2171040804609933078F7E5A8
:102E700013789C46002B00D11AE34346013B66E7DA
:102E80001022080090431132104382460022490567
:102E900000D4F2E653460693082305934346049371
:102EA000102303930023029316AB019200932A0090
:102EB0005B4621000898FFF76BF805004B4601368A
:102EC0000993A6E5202302009A43472A04D18023D0
:102ED0001B01194302239843452801D1202319439C
:102EE0000722099B0491073393430A9A190003921E
:102EF000424602920CC908980092019309912A0057
:102F00005B462100FFF734F90136050081E5102307
:102F10000C930C230A009A430B924B0500D43BE61A
:102F200036E62023194387E602230C930B910B9975
:102F30006428EED10B9B5B0500D529E60B9A802314
:102F400011009B0019408A461A4200D0CEE080232F
:102F500011005B00194089461A4200D0DBE11300E2
:102F60005B0600D51DE10B9B09991B0600D499E275
:102F700008C91BB2D8171A18424092B2099192465A
:102F8000DA0F1292002B09D1802310220B99DB005B
:102F90000B4091430B91002B00D012E10B9A61235F
:102FA000920600D541230EA91F228C46DBB2624453
:102FB0000A3B57461395A2464D460C9CB1460D93CD
:102FC00016000AE03033DBB201357355A74200D258
:102FD0001CE1202D00D119E107002100380000F08C
:102FE0002FFBCBB20929EDD90D9A94466344DBB28D
:102FF000EAE7099B5F465B1B98460A9BB3469A46E5
:103000002600089C2A003B003100A04743460135BA
:10301000585D0028F6D1534634000A935E46BB46FD
:10302000DFE6C0239B00B078194302363DE5C0239C
:10303000B0781943023638E50A979BE60C230A005C
:103040009A4314331A4310230B920C934B0500D46C
:10305000A8E59DE5A34634005646C2E60A9A012A31
:1030600000D82EE26B1E9F18089BB046994626009A
:103070005C462A002300013531002020C847BD42AC
:10308000F7D1A34634004646099B3A0001CB210004
:1030900098467D1C5B46089FC0B2B8474346013640
:1030A0000993B6E40B9A0A98531C904200D80AE29E
:1030B00043199B1A1F00089BB24626005C469B469C
:1030C0002A002300013531002020D847BD42F7D126
:1030D0000A9BA34601330B93099B34001B78564689
:1030E0009C466046002800D05AE6E7E60722099B86
:1030F00007339343013294469C4462465F680992C9
:103100001A68FB17109311931098119903005340FC
:103110000E930B007B400F9394460E9A0F9B121A4E
:103120008B410E920F93FB0F6246129300233A439A
:103130009A463DD00B9A6123920600D54123002286
:10314000DBB20EA90A3B8C4691460D9343461F32D3
:103150006244139515964D460E9E0F9FA1469046CC
:103160000C9C14930FE0C046BD1E00103032D2B24A
:10317000434601355A55BA4500D17CE1202D00D196
:103180007CE106000F00220000233000390000F02F
:1031900099FAD2B2092AE9D90D9B9C466244D2B26F
:1031A000E6E7FF23099904C913401A000991E6E6EE
:1031B0000B9A1033110099430B915205BAD5002395
:1031C00099460B9B06930A9B0593434604930C9BDD
:1031D0000393129B02934B46019316AB2A00009374
:1031E00021005B460898FEF7D3FE01360500FFF785
:1031F00010FCFF22099B02CB11408A460993F2E49E
:103200004B46454609930136FFF703FC4E465446AC
:10321000A946139DD5E708230C9387E60722099B4F
:1032200007339343013294469C44624609921A68DC
:103230005B6810009A4613005246134307D10B9A5D
:103240001033110099430B91520500D5D7E40B9A26
:103250006123920600D541230022DBB20EA90A3B6E
:103260008C4691460D9343461F3262445746129551
:10327000A2464D460400B14690460C9E13930DE0C5
:103280003032D2B2434601355A550023BB4200D1F9
:10329000FDE0202D00D1FDE004000F0032000023EE
:1032A0002000390000F00EFAD2B2092AE8D90D9BAD
:1032B0009C466244D2B2E5E70B9A6123920600D5A0
:1032C0004123DBB20EA90A3B1F228C460D9323003B
:1032D00062445446129517004D469A46B1460C9EDC
:1032E00008E03033DBB201357B55B4420ED3202DDC
:1032F0000CD004003100200000F0A2F9CBB2092963
:10330000EFD90D9A94466344DBB2ECE74E4654463F
:10331000A946129D75E4099B1A0008CAD917139291
:103320005A184A409146DA0F1292002B08D1802396
:1033300010220B99DB000B4091430B91002B2BD1FA
:103340000B9A6123920600D541230EAA1F279446AB
:10335000DBB20A3B0D95674455460993A2464C469D
:10336000B1460C9E08E03033DBB201357B55B442E8
:103370000ED3202D0CD004003100200000F060F9A5
:10338000CBB20929EFD9099A94466344DBB2ECE742
:103390004E465446AA460D9D0B9B2A0006930A9B57
:1033A00021000593434604930C9B08980393129BBA
:1033B000013602935346019316AB00935B46FEF72A
:1033C000E7FD139B05000993FFF723FB099B04CB43
:1033D00091461293002A08D1802310220B99DB001A
:1033E0000B4091430B91002B2BD10B9A612392063A
:1033F00000D541230EAA1F279446DBB20A3B0D9548
:10340000674455460993A2464C46B1460C9E08E0D7
:103410003033DBB201357B55B4420ED3202D0CD0B6
:1034200004003100200000F00BF9CBB20929EFD9DC
:10343000099A94466344DBB2ECE74E465446AA46EA
:103440000D9D0B9B2A0006930A9B21000593434682
:1034500004930C9B08980393002302935346019313
:1034600016AB00935B46FEF793FD129B0500099394
:103470000136FFF7CEFAB44200D87FE6149B4C46E3
:103480000E960F97A9469846159E139D99E6A6425B
:1034900000D8FEE6139B4E469846A9465446129D18
:1034A000FFF7AFFB08C9D8171A184240099166E523
:1034B00000230B935EE4099B04CB92460993FFF72C
:1034C00092FB2F00E0E50B930BE6063B0C932EE5F9
:1034D0000EB4012210B585B007AC08CC01000094F1
:1034E000524204480394FFF76FFA05B010BC08BCC1
:1034F00003B01847B51E001000B583B00093130049
:103500000A0001000248FFF75FFA03B000BDC046A1
:10351000B51E00100FB410B50C4984B006AA08CA35
:103520000C680392002C0BD00092012208485242F2
:1035300002A9A047012004B010BC08BC04B0184781
:10354000180001F007FD0020F5E7C0468039002093
:103550006121001010B5094A0300146884B0002CE2
:1035600008D0012200910648524203A9A047012039
:1035700004B010BD01F0EEFC0020F9E78039002016
:103580006121001001480421014B1847201400203C
:10359000B5350010142310B50100188804331B88BA
:1035A000984710BD162310B50100188802331B88F8
:1035B000984710BDF0B5C64600B5002916D01423B3
:1035C00004000125984618278900461843462168BB
:1035D00018883B88984701C4431E984140420540E3
:1035E000A642F3D1280004BC9046F0BD0125F9E7BE
:1035F000124A936F9B0815D29066D166002905D0B8
:10360000FFE7FFE7FFE7516F106F704704B58021B8
:103610000906C2175140002800D0C8433AF0A4F967
:10362000002104BDF0B5146E556E576F166FFFF78D
:10363000E3FF1466556657671667F0BD000000D0BB
:10364000114A936F9B0813D210665166002905D06A
:10365000FFE7FFE7FFE7516F106F704704B50028E1
:1036600001D00020C0433AF07FF9002104BDC046DC
:10367000F0B5146E556E576F166FFFF7E5FF1466C1
:10368000556657671667F0BD000000D094464E4A55
:10369000926F9208624601D230E0C046F0B54A4EC1
:1036A000B56F6D08FCD3346E756E776F366F00F0B2
:1036B00025F89446444A146655665767166762466D
:1036C000F0BDC0469446404A926F9208624601D2CD
:1036D00058E0C046F0B53C4EB56F6D08FCD3346E73
:1036E000756E776F366F00F04DF89446364A146663
:1036F0005566576716676246F0BDC046002B24DB4F
:1037000011D000293EDA00B5C943404200D1013151
:1037100000F038F8C943404200D10131DB43524246
:1037200000D1013300BD002AEBD1002801D10029CE
:1037300005D00020C90FC90701D1C043410800B519
:103740003AF0DAF80022002300BD00B500290ADBB8
:10375000DB43524200D1013300F014F8C943404228
:1037600000D1013100BDC943404200D10131DB43EA
:10377000524200D1013300F005F8DB43524200D140
:10378000013300BD002923D1002B18D1002A0CD011
:10379000BC460D4F38667A6600210023FFE7FFE73D
:1037A000FFE77A6F386F67467047002801D00748F7
:1037B000010000B53AF0A0F80022002300BD02008D
:1037C0000B00002000217047000000D0FFFFFFFF2A
:1037D000002B00D0BFE0130C28D1002AE7D080B422
:1037E000114F39667A66FFE7FFE730B4040C7B6F50
:1037F000396F1B0423433B667A66FFE7FFE7FFE769
:10380000C04684B27B6F3D6F1B0423433B667A66E0
:10381000FFE7FFE7C04600232C042D0C7A6F386FBA
:1038200000196941B0BC7047000000D0F0B5944663
:103830000025140E01D112020835140F01D1120116
:103840000435940F01D192000235D40F01D15200FA
:103850000135D40B0134254F7C66254C3C660E0C9B
:1038600093B2FFE7FFE7FFE73C6F6643360C770351
:10387000BE467343DF0B5B04C01AB941130C73439C
:10388000DB18C91ACE086643360CB64493B27343AC
:103890001F0F1B01C01AB941130C73431F0B1B05EB
:1038A000C01AB941860D8F023E436643360C092D7E
:1038B00024DB520A7243801A7703460A6643360CA9
:1038C00016235B1BDE40DF40BF1964466643821B44
:1038D0007046043506330100D940A840C01900D312
:1038E0000131A24206D20023F0BD0000000000D04A
:1038F000FFFFFFFF121B0130F3D3F1E709277F1B06
:10390000FE406446A2B27243801A00D20139220CF2
:103910007243130C1204821A99410B00704604354D
:1039200013370100F940A840801900D30131002B62
:1039300002D1A2420AD2F0BD013000D30131121BE4
:10394000FAD2013BF8D1A24200D2F0BD013000D33F
:103950000131121BF7E7F0B51C0C00D080E00CB46D
:1039600000251C0A04D11B02160E3343120208352F
:103970001C0B04D11B01160F3343120104359C0BA1
:1039800004D19B00960F334392000235DC0B02D129
:1039900092185B4101351C00971864410134464F71
:1039A0007C66464C3C660E0CFFE7FFE7FFE7C0462F
:1039B0003C6F6643360C7703BE4697B27743C01B15
:1039C00000D20139C01B00D201399FB27743C91B15
:1039D000C91B170C77437E04FF0B801BB941CE082F
:1039E0006643360C0C2D33DBB644120B1F053A43ED
:1039F0001B0B97B27743C01B00D201399FB27743AC
:103A0000C91B170C77433E043F0C801BB941860D40
:103A10008F023E43664329277F1BFE400C3D7746BD
:103A2000AF40BF1930BCA2B2ABB272437343801A2D
:103A30009941220C7243130C1204801A994102001E
:103A40000B000137001BA941F9D2781E0021F0BDFF
:103A50000C277F1BFE4077467F0BAF40FF19E0E746
:103A600000245D1C07D0144F7D663966FFE7FFE731
:103A7000FFE7FFE73C6F95B29EB265436643401B8C
:103A8000B141150C1E0C6543664336042F0C3E43B2
:103A90002D04401BB141994204D202000B002000CA
:103AA0000021F0BD01D19042F7D3801A9941013431
:103AB0009942F2D3F6E70000000000D0FFFFFFFFBD
:103AC00044464D4656465F46F0B47047F0BCA046AB
:103AD000A946B246BB46704748404140484018B4EA
:103AE0001B4B5B68FC46019308BD04DF073F0010D9
:103AF00018B4174B1B68FC46019308BD00DF113F4B
:103B000000109446134A926F920809D2624618B484
:103B10000F4BDB68FC46019308BD0CDFC941001068
:103B20000C4AF0B5146E556E576F166F6246FFF76C
:103B3000EEFF084A1466556657671667F0BD18B45D
:103B4000034B9B68FC46019308BD08DF6D400010E5
:103B5000B8390020000000D0FFB55040424050402E
:103B600059404B40594000E0FFB5154F4C00640DE3
:103B700003D0BC4204D10C0314D80020090D090560
:103B80005C00640D03D0BC4204D11C030AD800229F
:103B90001B0D1B0501264B4009D44B4003D58B421E
:103BA00000D18242FFBD9942FCD19042FFBD0B4340
:103BB000DB1803431343F5D0C9434918FFBD000088
:103BC000FF07000000B5FFF7CFFF01D0002000BDC8
:103BD000012000BD00B5FFF7C7FF804100BDC04612
:103BE00000B5FFF7C1FF01D9002000BD012000BDD5
:103BF00000B5FFF7B1FF01D9002000BD012000BDD5
:103C000000B5FFF7A9FF804100BD012040054A0033
:103C1000121804D85A00121801D800207047012049
:103C200070470020704700000021002805D1704730
:103C3000C1174840401AFAD0C90713B5064B1B6894
:103C400098470CBC441CA2401005120B0349091BE9
:103C500009051943114310BD9C3900201F040000C1
:103C600010B54C00620D8023D218DB00D21A5B0520
:103C70007E2A10DD9E3A13DACC170903490819434E
:103C80005242D140640001341532202A05DAD04076
:103C90000843604310BD002010BD0846604310BDBE
:103CA000C80FC018013810BD18B4044B5B6AFC463D
:103CB000019308BD24DFA54500100000B83900209D
:103CC00018B4044BDB6DFC46019308BD5CDFB146C4
:103CD00000100000B8390020C94211D300B54900D6
:103CE0004908002200F018F8002904D400224042BC
:103CF0008A41114600BD80210906002000BD000058
:103D000018B4044BDB6EFC46019308BD6CDFB34571
:103D100000100000B839002018B4044B9B6FFC461B
:103D2000019308BD78DFCF4500100000B8390020AE
:103D300018B4044BDB6FFC46019308BD7CDF3D46A5
:103D400000100000B839002018B4044B9B69FC46F1
:103D5000019308BD18DF954300100000B83900201A
:103D600018B4044B9B6DFC46019308BD58DFC14855
:103D700000100000B8390020132370B51D78012D04
:103D800015D010DD2748FFF70DFC274C01008022DD
:103D9000200000F0B5FF022D06D02448FFF7FAFB03
:103DA000234B186070BD204C224AA264F5E72E0018
:103DB0001D4C204AA3085B421E401D422FD03300F9
:103DC00022602020B1006118801B0A604A608A606E
:103DD000CA600A614A618A61CA610A624A628A6289
:103DE000CA620A634A638A63CA630A644A648A6469
:103DF000CA640A654A658A65CA650A664A668A6649
:103E0000CA660A674A674008102803D18A67CA67EA
:103E1000A264C2E71E339B00E250A264BDE7002308
:103E2000CFE7C04653440000B83900204C330000AF
:103E30009C390020D53E0010F8B502000B000400AC
:103E40000D0000201149FFF74AFE002206000F0076
:103E50000E4B20002900FFF74BFE02000B00300044
:103E60003900FFF76CFE4B0006000A005B0D01D025
:103E7000002908DB11003000FFF766FF22002B004D
:103E8000FFF76EFFF8BD00200149FBE70000F03F9F
:103E90000000F07F094A70B50B0D93420AD0084A22
:103EA000934204D00022074BFFF75AFF70BD06482B
:103EB0000649FBE704480649F8E7C046FF0700004B
:103EC000FF0F00000000F03F182D4454FB21F9BF04
:103ED000FB21F93F07B5604601880A0A0230DF2A54
:103EE000FAD1C9B2820804D3028840880004104382
:103EF00000E00068014A5050039007BDB839002027
:103F00000FB403BC0CBCF0B50124E407634000E02F
:103F1000F0B50C0DCF0F661E3605891B640503D363
:103F2000C943404200D30131640D03D0661CF60A38
:103F300007D0E41B00207F00791C89078912803C90
:103F400024031D0DDF0F6E1E36059B1B6D0503D36D
:103F5000DB43524200D301336D0D03D06E1CF60AD1
:103F600007D0ED1B00227F007B1C9B079B12803D2E
:103F70002D032F1B661B58D4A446202E46DA20376B
:103F80001400BC401D00BD40F24033412A4380185C
:103F90005941CB0F05D0C943C04300226442504170
:103FA000514162464D0D28D10D0D07D100281FD07B
:103FB000241940414941013A0D0DF9D0640006D35E
:103FC000013000D30131002C01D140084000013AFA
:103FD0000BD4941CE40A04D112051144DB071944E4
:103FE000F0BDD907204B194300E0D9070020F0BDF0
:103FF0000029DDD1002CDBD1F0BD0132C60740081D
:10400000CD0728434908002EE1D0D9E73C2E29DA14
:10401000203E40371400BC4000D00124F24014433D
:104020001A00BB401C43D317ACE7AC46202F08DA7C
:1040300020360400B4400D00B540F8403941284313
:10404000A5E73C2F0CDA203F40360400B44000D0F6
:104050000124F84004430800B1400C43C117EAE7CB
:1040600010001900002494E70000F07FF0B50C0D5B
:10407000661E3605891BE60A6405640D02D0651CC0
:10408000ED0A04D0002001210905803C2403A44648
:104090001C0D671E3F05DB1BE70A6405640D02D09B
:1040A000651CED0A04D0002201231B05803C24037B
:1040B0007740644497B484B296B27443070C7E434D
:1040C000150C6F4380B26843361802D301200004F8
:1040D0003F183004350C00197D41844688B29AB2ED
:1040E00050430C0C62431F0C7C438EB27E439219EA
:1040F00002D301263604A4191604170C361867419A
:1041000001BC81B29AB25143040C62431B0C5C4364
:1041100080B25843121802D301200004241810045E
:10412000130C401863412D185E410020474106BC26
:1041300088B293B258430C0C6343120C544389B2B7
:1041400051435B1802D301210904641819041A0CA5
:10415000091862416D1856410020474118BCF90208
:10416000720D1143F0026A0D1043ED020A0D03D1E6
:104170006D1940414941013B124E9B1B7600B342F1
:104180000ED26D0007D301300026714166463543DB
:1041900001D1400840001B05C918E4072144F0BDC7
:1041A0000BDA013306D1013004D101314F0D01D0BA
:1041B0004908F2E7E1070020F0BD01363105002093
:1041C000EBE70000FF030000F0B51C0D671E3F0584
:1041D000DB1BE70A6405640D02D0661CF60A04D0F6
:1041E000002201231B05803C2403D0252D06002638
:1041F000F6432E661E096E66CE0FF619B4464900C8
:104200004F0D02D07E1CF60A03D000200021403F53
:104210003F033E1BB600B444013F7F05C91B49085C
:104220002E6F013676089C02950D25437543ED13DC
:104230007543AD1301356D10F603761B0CB4CC023B
:10424000450D2C43A2B2B3B25A43270C7B43350C25
:104250006F43A4B26C431B1902D3012424043F19F9
:104260001C041D0CA4187D4124196D41009A91B2C3
:10427000ACB26143170C7C432B0C5F4392B25A43A0
:10428000A41802D301221204BF182204230C5218CE
:104290007B41019C6C431B19520ED9010A43440116
:1042A000A01A81B2B2B2514303145A43360C73437D
:1042B00087B27743D617D21900277E4136049B195F
:1042C0001704160C7F185E417316ED18F3010026D3
:1042D00080337541A90F06D16400690AE8055B0ABD
:1042E000184309D22FE00422944480337541A90A6F
:1042F000A8059B0A184326D3404149412404009A4B
:10430000019B0D005543641B4343E41A95B286B2EA
:104310007543170C7E43030C5F4392B25A43B618A1
:1043200002D301221204BF183204330C52197B410C
:1043300052429C41002C02D40022013051414008DD
:10434000CA071043490802B06246D7079210084BCB
:10435000D218084B9A4203D212058918C919F0BD28
:104360000020002A01DC3900F0BD01331905F5E712
:10437000FD030000FE07000007DA002107E0C90F77
:10438000C907520D03D0C91201E04C4909050020AC
:104390007047C0464A00F2D2520D013A484B9A4249
:1043A000EAD2F0B51405091B520801D3001849419F
:1043B0009B08D2181205944640A44A0CA25C0B0933
:1043C000534353431B1353435B131202D21A13007C
:1043D0005B435B0B4C086343DB135343DB15013337
:1043E0005B10D21A130CD21A13005B438902840D9E
:1043F00021438DB29EB275430F0C7E431B0C5F436D
:104400008CB25C43361902D3012424043F193404CE
:10441000330C64197B419D01A40E2C432034A5B2BA
:104420005543241454432D0C6419A411D203121BB8
:1044300095B28EB27543170C7E430C0C674393B252
:104440006343F61802D301231B04FF183304340C12
:104450005B197C41DB186441DB18002363419EB289
:1044600076439DB21F0C7D437F436C04ED0BA41972
:104470007D4106028F08361BAF417D07F6086E416D
:10448000B4B295B26C4337147D43120C5743B6B2A5
:104490005643EA17AD19002672411204BF182E04C4
:1044A0002A0C36197A410832521117D29D0A9C05FE
:1044B000D117101969416144F0BD0000FF070000E9
:1044C000FE070000F8EBDFD6CDC5BEB8B2ADA8A49C
:1044D000A09C9995928F8D8A8885838152415D0A2F
:1044E000DC05D11714194D412B006343A6B2764366
:1044F000A2B2270C7A437F435104D20B89197A4127
:10450000D218D21880054942904102D400230134C8
:104510005D4160086908ED0728436144F0BDC0466D
:10452000624618CA94465A46002A20DB04E06246D6
:1045300018CA944600291ADAC01861415B463B410B
:104540005C46B4405246FA40224344464D466241DE
:104550006B41904699462B46B3403D41FC401C437D
:1045600052465B46A241AB4192469B467047C01AF9
:10457000A1414B463B414C46B4404246FA4022439F
:1045800054465D4662416B4192469B462B46B34082
:104590003D41FC401C4342464B46A241AB41904644
:1045A00099467047002200B5203200F010F808004C
:1045B00000BD002200B500F00CF8CA179A4200D1E5
:1045C00000BDD8430121C907414000BD00220B15A1
:1045D0000AD410B5944600F0A7F81414013400DA98
:1045E0000021CB17144C2047002000217047624463
:1045F000343A0CD40C2A07DA04009140904052421D
:104600002032D440214310BDD843D94310BD2032BD
:1046100007D40C469440524220321141D0402043EE
:1046200010BD0800C917203203D452422032104175
:1046300010BD1800190010BDEF4500104A00520DC2
:10464000144BD21A13DDFF2A1EDAD205CB0FDB077B
:104650001A43C300400F0903490A084310435B0093
:1046600001D301D0013070474308FBD2704702D01C
:10467000C80FC00770470A0312130132F8D1420F66
:10468000072AF5D1012200E0FF22C80F000280189E
:10469000C00570478003000000210A00002104E0EB
:1046A00000210A00C11704E00022002306E0C046F2
:1046B0000022CB1758405940C01A994130B5184CC8
:1046C000A21A002903D1010010D00020203A4C1575
:1046D00012D104D2013A001849414C0DFAD3114CC1
:1046E000A24204D212058918DB07C91830BDD24393
:1046F000520D00200021F5E703D4013A001849418A
:10470000FBD50B324405C00A4D052843C90A640095
:1047100003D0002460416141E1E7E0D34408F8E7B9
:1047200032040000FE0700000A0DCC0F531E1B05CB
:10473000C91A520503D3C943404200D30131520D77
:1047400003D0531CDB0A07D0121B00206400611C3D
:1047500089078912803A1203014BD21A7047000070
:10476000FF030000023225D40C2A1CDA1125AD1AF1
:104770000B002B41083207350600EE409040914077
:104780003143F0CC63431A1500235A415543564335
:104790005743BF02F412760576196741ED177F196A
:1047A000801BB94170470C220020C9174900013114
:1047B0000905DBE70902030E1943000253422032C8
:1047C00008D40C0019419440D840204300225041A5
:1047D000514170470800C917203B2032F1D5002015
:1047E000002100227047000000B5FFF79DFF30A4B4
:1047F000FFF7B8FF00242C4D2C4ED20702D3F6430E
:104800006D426641520004D2A246A346A846B14674
:1048100003E0A046A146AA46B3466EA4A4460127DB
:104820001F26FFF784FE0137013E212FF9D100BD7D
:10483000594684B28DB26C43061475430B145E4323
:1048400082B25A43AD18EA1700D7D2431204B61801
:104850002A042B0C12197341404649469D009B17B0
:10486000920F2A43904199413E2222E7494684B261
:104870008DB26C43061475430B145E4382B25A43E7
:10488000AD18EA1700D7D2431204B6182A042B0C2D
:1048900012197341504659469D009B17920F2A43A7
:1048A000504159413E2204E7BB4DF09DC556F636B6
:1048B0007D5100001A61140085880A00FB2119004F
:1048C000F0B5FFF7FDF8404D0C002C4001D0AC4294
:1048D00002D1090D090500201C002C4001D0AC427A
:1048E00002D11B0D1B0500220026ED02002B04D572
:1048F00002266B40694000D476424F1904D5994294
:104900000CDD0136694003E0BB4207DA013E6B4033
:10491000070010003A000F0019003B0040B4002AC5
:104920000FD1002B0AD05C006415013409D14C0072
:104930006415013402D10139013B02E0002000215D
:104940002EE0FFF741FC3E22FFF734FE82468B4605
:104950000020002180460122920791461DA4A44612
:1049600001271F26FFF7DCFD0137013E212FF9D17A
:104970004A4653460C3A01246407002752081B009C
:1049800005D49341001979416408F7D104E05341FB
:10499000001BB9416408F1D1CE07491040083043EB
:1049A00040BC002E0AD0094C094D01D5E443ED432B
:1049B000F60701D100196941001969413D22FFF74D
:1049C00078FEFFF783F8F0BD0000F07F8D305A8845
:1049D000A8F64332694FBB610567AC1DB16E4096C6
:1049E000FCBAAD0F72DB0BABA66EF50739BD9FE5C8
:1049F00076ABFE034B6297BA5BD5FF01D694DBDD45
:104A0000AAFAFF005DEAEE5655FF7F006E77B7AA5F
:104A1000EAFF3F00BCBB5555FDFF1F00DEADAAAA53
:104A2000FFFF0F006F5555F5FFFF0700ABAAAAFE69
:104A3000FFFF03005555D5FFFFFF0100ABAAFAFFAA
:104A4000FFFF00005555FFFFFF7F0000ABEAFFFFAF
:104A5000FF3F000055FDFFFFFF1F0000ABFFFFFF02
:104A6000FF0F0000F5FFFFFFFF070000FFFFFFFF44
:104A7000FF03000000000000000200000000000032
:104A800000010000000000008000000000000000A5
:104A900040000000000000002000000000000000B6
:104AA00010000000000000000800000000000000EE
:104AB00004000000000000000200000000000000F0
:104AC0000100000000000080000000000000004025
:104AD0000000000051434343C9188C46110C83B2B7
:104AE0004B4310B4040C614392B280B25043624312
:104AF0001C041B0C001910BC59411304120CC018E3
:104B000051416144704700004840414048400E4BCD
:104B10005B6818470C4B1B6818470C4A936F9B083F
:104B200002D2094BDB681847F0B5146E556E576F0B
:104B3000166FFFF7F6FF054A146655665767166746
:104B4000F0BD014B9B681847B83A0020000000D028
:104B500007B548404140484001E0C04607B5420023
:104B6000120E03D0FF2A03D1420218D8C00DC0058F
:104B70004A00120E03D0FF2A03D14A020FD8C90DF2
:104B8000C9050122414005D4414001D5814207BDFC
:104B9000884207BD0143491801D0C043001807BD32
:104BA00000B5FFF7DBFF01D0002000BD012000BDF4
:104BB00000B5FFF7D3FF01D9002000BD012000BDE3
:104BC00001231B064200D21804D84A00D21801D88B
:104BD0000020704701207047C10FC90700D540422F
:104BE000002817D0F44603B40B4B1B68984706BC4B
:104BF00081409E384042803107D20B0607D04900E1
:104C0000490AC0051043084360470130F8E7490AE4
:104C10008902F5E7704700009C390020014B5B6A70
:104C200018470000B83A0020132310B512481C782A
:104C3000FEF7B8FC0100012C0AD003DD80220F48EA
:104C400000F05EF80E48FEF7A5FC0E4B186010BD94
:104C50000A4C5422200000F053F80B4B6365A36507
:104C6000E36523666366A366E36623676367A367FA
:104C7000E3672362E361E5E753460000B83A0020AA
:104C80004C3300009C3900208D4C001007B5604665
:104C900001880A0A0230DF2AFAD1C9B2820804D395
:104CA000028840880004104300E00068014A505028
:104CB000039007BDB83A002010B504002CF0D2FDD7
:104CC000002804D0034B04199C4200D810BD0248B0
:104CD000FCF778FD00000420F0DC031010B52CF088
:104CE000CBFD10BD01480421014B184730140020B2
:104CF000B5350010014B1B68184700003014002028
:104D0000014B5B681847000030140020030010B509
:104D100008001B681100984710BDC046F8B547460B
:104D2000CE4680B5437C07000D001600002B37D01F
:104D300000240020002A1EDD4B1E98461B4B99467E
:104D4000002C2BD043461B5D0D3B5A425341DBB236
:104D50002A5D0A2A13D00134A642F1DC864203DD23
:104D6000311A3B6828189847AD19013D2B780D3B47
:104D70005A4253413B740CBC90469946F8BD002BF7
:104D8000E9D1A04203DA211A3B682818984748461F
:104D900002213B68013498472000DDE73B7CD7E7E0
:104DA0000368110028009847E5E7C04678DD031046
:104DB000F0B557464E464546DE461C00D023E0B5CA
:104DC0001B061F68354B83B006000D00180001A9B3
:104DD00091469A4638F0D8FD8046002808D1019BBC
:104DE0007FB29F4204D0504638F0FEFD0123984622
:104DF0006B1C03D130002EF021FB0500002C2AD1C2
:104E0000274F284B1C68002C18D04B46002B24D170
:104E1000254B994602E0E468002C0FD02368002B54
:104E2000F9D04B461B68002B01D0A342F3D12000E0
:104E30002A003100B847E468002CEFD14346002B2C
:104E400028D1681E8541E8B203B03CBC9046994623
:104E5000A246AB46F0BD154FD3E7134B99460A2344
:104E60009B4602E0E468002CE8D02368002BF9D0D0
:104E70004B461B68002B01D0A342F3D12A0031001E
:104E80002000B8475A466B4620001A7101A901223A
:104E9000B847E7E7504638F027FDD2E7E81E002084
:104EA0001D4D001074390020783900200D4D001080
:104EB000F0B54746CE4680B583B06B46DF1CD023A5
:104EC00038701B061C68204B060001A91800984684
:104ED00038F05AFD051E22D01C4B1C68002C2AD02D
:104EE0001B4B994602E0E468002C10D02368002B8D
:104EF000F9D04B461B68002B01D0A342F3D1200010
:104F000001223900FFF70AFFE468002CEED1002DE2
:104F100011D1300003B00CBC90469946F0BD019B06
:104F200064B29C420BD0404638F05EFD074B012531
:104F30001C68002CD4D1404638F0D6FCE9E7034B7E
:104F40001C68002CCCD1E4E7E81E00207439002056
:104F50007839002070B504002EF070FA00230100AB
:104F6000050001222000FFF723FF084B1C68002CDE
:104F700006D06368002B05D09847E468002CF8D170
:104F8000280070BDE468002CF3D1F9E774390020E3
:104F9000F0B5CE46474680B50D00160083B0002818
:104FA00030D11D4B1D4F1A685B68019200931C4B5A
:104FB00099461C4B98464B461C68002C03D115E0C3
:104FC000E468002C12D043461B68002B01D0A3429A
:104FD000F6D1A368002BF3D03100280098470028B1
:104FE000EEDD03B00CBC90469946F0BD01200021D7
:104FF000FCF710F87B6A009A9A42DCD8BA6A0199E9
:105000008A4202D301204042EBE7009A9A42D2D072
:1050100001204042E5E7C04618DA03100040054091
:105020007439002078390020F0B54F46D646464600
:10503000C0B515000F0082B0012841D1D0231B0656
:105040001C68214B01A91800994638F09DFC061EEA
:1050500007D1019B64B29C4203D0484638F0C4FC9F
:105060000136A8466B1C03D138002EF0E7F98046C4
:10507000164B1C68002C16D0154B9A4602E0E468CB
:10508000002C10D02368002BF9D053461B68002B4E
:1050900001D09C42F3D1200042463900FFF73EFE8A
:1050A000E468002CEED1002E06D1280002B01CBC12
:1050B00090469946A246F0BD484638F015FCF4E704
:1050C00001256D42F1E7C046E81E0020743900203A
:1050D0007839002010B5024800F004F810BDC04631
:1050E0009439002030B5002589B004000922002140
:1050F00001A80095FFF7FEFD0922002105A80495EF
:10510000FFF7F8FD4B236A466846137004A90D2289
:1051100038F0E2FB1521082220006944FFF7F0FD7A
:1051200009B030BDF0B5DE4657464E464546012231
:10513000E0B5DF4F00243800DE4B83B01A70DE4B41
:105140007C6098461B681C309D68DC4BBC603B60F3
:10515000FC603C617C61BC619B4601F0EFF8D84B80
:10516000D84E9A463B6001235B4299467B62434698
:105170001B683D625D6830005B4674603360B460FC
:10518000F46034617461B4611C3001F0D7F85346A7
:1051900033604B46736243463562CB4D5A46280016
:1051A0001B682A60DB686C60AC60EC602C616C6131
:1051B000AC611C30019301F0C1F8019B52462B6297
:1051C0004B466B62C14B2A609946180012F082F977
:1051D0004B4678221C67043B9C5208329C50043298
:1051E0009C5004329C50DC67B94C390022001432C8
:1051F00048461C605A6012F00FF9B64F380012F0A2
:1052000069F93B0000227C21083B5A5204315A5074
:1052100004315A5004315A5004315A50AE493800C2
:105220001960143199603A6731005A6012F0F4F84D
:10523000AA4E300012F04EF900227821331F5A5244
:1052400008315A5004315A5004315A503267B2670B
:1052500022001432290030001C60326012F0DCF8A9
:105260009F4E300012F036F900227821331F5A5237
:1052700008315A5004315A501C60043114345A50C9
:10528000300029003267B267346012F0C5F880221E
:105290009449954B92019967944B954F18695967BA
:1052A00002431A614346002438001B687C609D68F5
:1052B000904BBC603B60FC603C617C61BC611C301D
:1052C0009B4601F03BF88C4B8C4E9A463B60012389
:1052D0005B4299467B6243461B683D625D683000D5
:1052E0005B4674603360B460F46034617461B461CF
:1052F0001C3001F023F8534633604B46736243463B
:105300001B683562DB687E4D984628005B466C6002
:105310002B60AC60EC602C616C61AC611C3001F006
:105320000DF853462B6043462B624B466B62754B20
:105330009846180012F0CEF843467C221C675C6742
:10534000043B9C5404329C5004329C5004329C50C8
:1053500004329C506C4C39002200143240461C60D0
:105360005A6012F0A1F8694F380012F0B3F83B0010
:1053700000228021083B5A5404315A5004315A50BB
:1053800004315A5004315A506149380019601431BF
:1053900099603A6731007A675A6012F085F85D4E7D
:1053A000300012F097F800227C21331F5A54043148
:1053B0005A5004315A5004315A5004315A5032670D
:1053C000726722001432290030001C60326012F033
:1053D0006BF8514E300012F07DF800227C21331F13
:1053E0005A5404315A5004315A5004315A501C60F6
:1053F000043114345A503000290032677267346027
:1054000012F052F880224549454B92019967454B6D
:105410001869596702431A61434A136801331360DC
:1054200003B03CBC90469946A246AB46F0BD2D4B1E
:105430003E4A48465A6012F09FF828F09DFE3C4BC9
:105440003C4A30005A6012F097F828F095FE354B30
:10545000384A30005A6012F08FF828F08DFE304B39
:10546000344A38009A6012F087F828F085FE2B4BFA
:10547000304A40465A6012F07FF828F07DFE2E4BED
:105480002A4A30005A6012F077F828F075FE174B60
:10549000264A30005A6012F06FF828F06DFE124B69
:1054A000224A38009A6012F067F828F065FEC0467C
:1054B0003831002040140020D0140020800A04104D
:1054C0001C000410E8300020103100202835002096
:1054D0005809041084330020D40104101034002033
:1054E0009C340020243500207C3300200C34002024
:1054F000B0310020C00A04105C00041060310020AC
:10550000883100206837002088090410B835002051
:105510000402041048360020D836002064370020EA
:10552000B035002044360020483300202401041008
:10553000D43600203401041098340020064A10B5F7
:1055400013680400591C1160002B01D0200010BD0D
:10555000FFF7E8FDFAE7C046483300207047C04631
:1055600010B5040028F004FD200010BD044A0B68AB
:1055700012680360934202D01A6801321A607047C1
:10558000C832002010B5064C2068002800D010BD9D
:105590002000002203492AF08FF92068F7E7C0466F
:1055A000D03200207CDD0310004870477CDD031002
:1055B000416870B50500002916D08368002B10D013
:1055C0000024354EA2005058002805D043685A1ECA
:1055D0004260012B36D0AB680134A342F2D80029D7
:1055E00002D0080028F0CCFCE968002916D0AB688E
:1055F000002B10D00024284EA2005058002805D0BF
:1056000043685A1E4260012B24D0AB680134A34288
:10561000F2D8002902D0080028F0B2FC2B6900243F
:10562000002B0DD01859002802D028F0A9FC2B69B6
:105630000434182CF6D1002B02D0180028F0A0FC5E
:10564000280070BD03685B68B3420BD128F090FC62
:105650006968C0E703685B68B34206D128F088FC3C
:10566000E968D2E798476968B5E79847E968CCE701
:1056700028F026FF28F05EFF6968ACE728F020FFDD
:1056800028F058FFE968C0E74B1C02D128F098FECB
:10569000FAE728F071FDC046615500100E4A0B680C
:1056A000126870B504000D00934202D019680131F0
:1056B00019602668B24204D03268511E3160012A56
:1056C00002D02000236070BD3000FFF771FF300072
:1056D00028F04EFC2B68F4E7C83200200A4B70B566
:1056E0001B68056804009D4204D02B685A1E2A607E
:1056F000012B01D0200070BD2800FFF759FF2800C2
:1057000028F036FCF6E7C046C8320020F0B54E4619
:10571000DE4657464546E0B583B0161E009000D1E0
:10572000E6E00C68002C04D1A84B1A68541C1C60DD
:105730000C60009A671E9368013BBB425CD2E31C7D
:10574000994653689B46A24B994500D8DCE001235B
:105750005B429A46504629F0CBFB009B80469B68F3
:105760009C46002B0AD0009B586863469900002392
:105770004546C258EA5004339942F9D1E14509D966
:1057800063460021A2009B000C324344424402C302
:105790009A42FCD1009D5046EB68019329F0A8FB8A
:1057A000AB689C46002B09D0009BD96863469A00E1
:1057B0000023CD58C55004339A42FAD1E14509D9A6
:1057C00063460021A2009B000C32C318821802C35A
:1057D0009A42FCD14B46009A9360434653605B4625
:1057E000D060002B02D0584628F0CAFB019B002B4A
:1057F00002D0180028F0C4FB7368BF000133736047
:10580000009B5B68984647443B68BA469946002B24
:1058100048D0704A116800293DD06C48844610E099
:1058200057683B68002B05D1634665461B6801330A
:105830002B603B609C4200D173E0916808320029E4
:1058400029D00B68002B03D10368013303600B6080
:105850009C42E5D151680C68002C04D15B4A136866
:105860005C1C14600C60013CA40044442368002BC1
:1058700011D030000CF0A4FE436880460133436031
:10588000206843685A1E4260012B6FD04346236054
:1058900053461B6899464B4649465B685A1E4A6008
:1058A000012B35D053461E60009B9A68002A1FD0FA
:1058B000D968494B00240027984605E01F60009BEB
:1058C0009A680134A24213D9A6008B1918680028DF
:1058D000F7D04268551E4560012AEFD103685B6826
:1058E00043450CD128F044FB009BD9688B19E5E7B0
:1058F00003B03CBC90469946A246AB46F0BD9847E3
:10590000009BD9688B19D9E74B469B009A4621E743
:105910000B68314A5B684846934225D128F028FB42
:10592000C0E70C68002C04D1284A13685C1C146082
:105930000C60013CA40044442368002BABD0300031
:1059400004F0B4FC43688046013343602068436838
:105950005A1E4260012B99D103681F4A5B6893422B
:105960000BD128F005FB91E798479BE703681A4A9B
:105970005B689342F5D0984788E7984786E728F018
:105980009FFD404628F0FCFA29F012FA28F098FD15
:1059900028F0D0FD86E728F093FD28F0CBFDAFE797
:1059A00028F08EFD28F0C6FD70E728F089FD28F06C
:1059B000C1FD6BE728F0BEFD28F0DEFB4B1CFBD1E0
:1059C00028F0FEFCFAE7F9E7F8E7C046CC32002001
:1059D000FEFFFF1F9CDD031061550010F0B5C646A9
:1059E00000B53D4F80463B780D001400BFF35B8F40
:1059F000DB0744D5394A1168002934D038480700FC
:105A00000EE056683368002B03D13B6801333B60DE
:105A10003360013B9C423BD091680832002922D080
:105A20000B68002B03D10368013303600B60013B5B
:105A30009C42E6D152681368002B45D04246D2689A
:105A4000A40014192168013B002932D0002D07D091
:105A50002B68244A5B68280093423BD128F088FADF
:105A600004BC9046F0BD4346DA68A40014192368CC
:105A7000002BEBD16B6801336B602560F0E73800D9
:105A800029F0CEF90028B5D0380029F0E5F9B1E7C2
:105A90000A68002A04D1124B1A6801321A600A609F
:105AA0002300541E4246D268A4001419216800291C
:105AB000CCD16968481C68602560581CD0D0023180
:105AC0009B0069609D50CBE705490B6801330B6073
:105AD0001360B3E79847C3E7442200209CDD03101E
